:100000000C94DE030C9425040C9425040C94250414
:100010000C9425040C9425040C9425040C942504BC
:100020000C9425040C9425040C94C0290C94FC28F1
:100030000C94801B0C9425040C9425040C9425042A
:100040000C9425040C9425040C9425040C9425048C
:100050000C9425040C94331B0C9425040C94250457
:100060000C9425040C9425040C9425040C9425046C
:100070000C9425040C9425040C9425040C9425045C
:100080000C9425040C9425040C9425040C9425044C
:100090000C9425040C9425040C9425040C9425043C
:1000A0000C9425040C9425040C942504B809BB0970
:1000B000E409F109F809180A1B0A5D0A7E0A240BF3
:1000C000240B890A8B0A900AB60AD90ADC0ADF0ACD
:1000D000030BF50FF50F2D102D108610A2103812FE
:1000E0003812AD108B119C119C111C1D1C1D2F1D55
:1000F0002F1D251D2F1D2F1D2F1D1C1D1C1D2A1DD5
:100100002F1D2F1D2A1D10273727DE283727DE2811
:100110008327A627DE289B28AB28020155FFFFFF77
:1001200000000000010155FFFFFF0000000000017A
:1001300055FFFFFF000000002E0124011A010000FE
:100140001E0F0500047F3F1F643214643214783C94
:100150001E1E140A05000000000000000000000040
:10016000000000000000000000000000000000008F
:100170000000000000000000007E0F00D4FFFFFF21
:10018000C70000007800000000000000002A2B28B3
:10019000000000000000000000000000000000005F
:1001A00029000000002C1E3420212224342627257B
:1001B0002E362D3738271E1F2021222324252633B3
:1001C00033362E37381F0405060708090A0B0C0DB5
:1001D0000E0F101112131415161718191A1B1C1DC7
:1001E0002F3130232D350405060708090A0B0C0DA5
:1001F0000E0F101112131415161718191A1B1C1DA7
:100200002F3130354C0001010101010101010102D2
:1002100002020202020202020303030303030303B6
:100220000404040404040405050505050606060681
:1002300006070707070708080808090909090A0A3D
:100240000A0B0B0B0C0C0C0D0D0D0E0E0E0F0F0FE1
:10025000101011111112121313141415151616176C
:1002600017181819191A1A1B1B1C1D1D1E1E1F20DA
:1002700020212222232424252626272829292A2B27
:100280002C2D2D2E2F30313232333435363738394C
:100290003A3B3C3D3E3F4041424344454647484946
:1002A0004A4C4D4E4F50515354555658595A5B5D18
:1002B0005E5F616264656668696B6C6D6F707273B6
:1002C0007577787A7B7D7E8082838587888A8C8E1D
:1002D0008F91939596989A9C9EA0A2A3A5A7A9AB4F
:1002E000ADAFB1B3B5B7BABCBEC0C2C4C6C9CBCD41
:1002F000CFD1D4D6D8DBDDDFE2E4E7E9EBEEF0F3F3
:10030000F5F8FAFDFFFFAA7F55402223252628296C
:100310002A2C2D2F3032333536383A3B3D3E404281
:10032000434547494A4C4E5051535557595A5C5EC4
:100330006062646668696B6D6F71737577797B7DD8
:100340007F81838587898A8C8E90929496989A9CD7
:100350009E9FA1A3A5A7A8AAACAEAFB1B3B4B6B8EF
:10036000B9BBBCBEBFC1C2C3C5C6C7C9CACBCCCD51
:10037000CED0D1D2D2D3D4D5D6D7D7D8D9D9DADA2C
:10038000DBDBDBDCDCDCDCDCDDDDDDDDDCDCDCDCAC
:10039000DCDBDBDBDADAD9D9D8D7D7D6D5D4D3D2E0
:1003A000D2D1D0CECDCCCBCAC9C7C6C5C3C2C1BFBE
:1003B000BEBCBBB9B8B6B4B3B1AFAEACAAA8A7A522
:1003C000A3A19F9E9C9A98969492908E8C8A8987DE
:1003D0008583817F7D7B79777573716F6D6B6968BC
:1003E000666462605E5C5A5957555351504E4C4A90
:1003F0004947454342403E3D3B3A3836353332303B
:100400002F2D2C2A292826252322290014001A0002
:10041000080015001700000000001C0018000C0068
:10042000120013002D002B00040016000700090025
:100430000A00000002510B000D000E000F003300F7
:100440003400E1001D001B000600190005004C00EF
:10045000E30011001000360037003800E50000000E
:100460000000506850684F642C42E00028622A4324
:100470005142524400002E002800010001000100FA
:100480000100010001000000000001000100010066
:100490000100010001000100010001000100010054
:1004A0000100000001000100010001000100010045
:1004B0000100010001000100010001000100010034
:1004C0000100010001000100010001000100010024
:1004D0000000010001000100010001000100010015
:1004E0000100010000000100010035001E001F0096
:1004F000200021002200000000002300240025002D
:10050000260027002F0001001E021F0220022102E8
:100510002202000001000000210022002300250229
:100520002E020100230224022502260227020100D6
:10053000010027001E001F002000380001000100FC
:100540000000500950094F0901000100010001009D
:100550000100010000003000310001003A003B00C2
:100560003C003D003E000000000000004E00520034
:100570004B000000500939003F004000410042009C
:100580004300000001000000500051004F00000037
:100590000000010000000000000000000000010059
:1005A000010000004A0051004D0000000000010061
:1005B0000000010001000100010001000100010034
:1005C0000100010000004F090000005CC25CCA5C31
:1005D000C95C1B5C1C5C0000000000000000000007
:1005E000000000000000DE5CC35CC85CC75C175CF8
:1005F000185C000000000000000000000000000087
:1006000000000000C45CC65CC55C195C0000000012
:1006100000000000000000000000000000000100D9
:1006200000000100010001000100010001000100C3
:100630000100010000000000000005010902A10105
:1006400085020901A10005091901290815002501E4
:100650009508750181020501093009311581257F51
:1006600095027508810609381581257F9501750861
:100670008106050C0A38021581257F9501750881D0
:1006800006C0C005010980A101850319012AB70030
:10069000150126B700950175108100C0050C0901F0
:1006A000A101850419012AA002150126A0029501C5
:1006B00075108100C00660FF0961A1010962150083
:1006C00026FF009520750881020963150026FF00AA
:1006D000952075089102C005010906A101050719B9
:1006E000E029E7150025019508750181029501753E
:1006F0000881010507190029FF150026FF0095064E
:1007000075088100050819012905950575019102F3
:10071000950175039101C009025B00030100A0FA75
:100720000904000001030101000921110100012257
:1007300040000705810308000A09040100020300C4
:100740000000092111010001222200070582032077
:100750000001070503032000010904020001030052
:100760000000092111010001227B000705840320FC
:10077000000A120110010000000801BB1100010075
:10078000010200011A034500720067006F00740047
:100790006F006E00690063005F00340039000000E4
:1007A0001603480061006E00610063006800690084
:1007B0002D006100700000000403090411241FBE15
:1007C000CFEFDAE0DEBFCDBF04B603FE27C08091D5
:1007D0003D0390913E03A0913F03B09140038730C9
:1007E000904BA740B04BD1F410923D0310923E03C2
:1007F00010923F031092400314BE84B7877F84BFDA
:100800000FB6F894A895809160008861809360008D
:10081000109260000FBEE0E0F8E3099511E0A0E05F
:10082000B1E0E4EDF2E602C005900D92AE3CB107F6
:10083000D9F723E0AEECB1E001C01D92AD33B207B1
:10084000E1F70E9427040C9468310C940000CF93C8
:10085000DF93CDB7DEB7E4970FB6F894DEBF0FBED7
:10086000CDBF84B7877F84BF0FB6F894A8958091D9
:100870006000886180936000109260000FBE90E07D
:1008800080E80FB6F89480936100909361000FBEEA
:1008900085B7806885BF85B7806885BF88E69AE19F
:1008A0009093CF018093CE010E9440290E945F293E
:1008B0008091E20084608093E200789480912F031D
:1008C0008823A1F01091E9001F709091EC00892F0E
:1008D000817090FD80E8182B1092E9008091E8006B
:1008E00083FD0E942A261F701093E90082E084BDD8
:1008F00093E095BD9AEF97BD80936E00A0E2B1E0C2
:1009000024E231E0AD0101E010E0FA018191AF0194
:10091000E82FE295EF70F0E061A18F70680102C0EE
:10092000CC0CDD1C8A95E2F7C6019C2D9095962390
:1009300091A392A1892B82A32417350731F764E292
:1009400071E08BE291E001E010E0FB014191BF0119
:10095000E42FE295EF70F0E0F1A04F70680102C063
:10096000CC0CDD1C4A95E2F7A6015C2D50955F2169
:1009700051A352A1452B42A38617970731F762E393
:1009800071E001E010E0FC014191CF01E42FE2951C
:10099000EF70F0E0F1A04F70680102C0CC0CDD1CDC
:1009A0004A95E2F7A6015C2D50955F2151A352A113
:1009B000452B42A36817790731F761E070E08D910C
:1009C000E82FE295EF70F0E041A18F707B0102C04B
:1009D000EE0CFF1C8A95E2F7C7019E2D909594239B
:1009E00091A392A1892B82A32A173B0741F710926A
:1009F000D3011092D2011092100210920F021092A5
:100A0000D5011092D401109212021092110210928C
:100A1000D7011092D6011092140210921302109274
:100A2000D9011092D801109216021092150280E09E
:100A300090E00E94682D8A3E9E4F11F00E94E11BBB
:100A400082E090E00E945A2D8093FE010E94D01B0C
:100A50009093D1018093D0010E94F6188FE39CE916
:100A60000197F1F700C000000E94F61880910F0274
:100A700080FF17C06FEF83E290E00E946E2D6FEF52
:100A800084E290E00E946E2D6FEF85E290E00E947C
:100A90006E2D6FEF7FEF80E090E00E948C2D0E9422
:100AA0000F1B83E090E00E945A2D682F70E080E0D9
:100AB00090E00E94F71D83E290E00E945A2D81325F
:100AC00081F484E290E00E945A2D863051F485E250
:100AD00090E00E945A2D91E0823109F090E0892F38
:100AE00001C080E080FFF9C58091DA01811136C034
:100AF00080E090E00E94682D8A3E9E4F21F00E9487
:100B0000E11B0E94491388E090E00E94622D6093EF
:100B10000A0270930B0280930C0290930D026E7F79
:100B200071F40E94491388E090E00E94622D609366
:100B30000A0270930B0280930C0290930D020E94A4
:100B400002131092080280910A0280FF04C060E044
:100B500086950E94CB1481E08093DA0161EF862EA6
:100B600061E0962E47E551E02AE531E07EEE672E02
:100B700071E0772E61E070E08614970409F44EC0AE
:100B8000F901A1919F018A2F82958F7090E0FC015D
:100B9000F1A0AF70EA2E8B0101C0000FAA95EAF711
:100BA000F02FF095FF22DC019196FC92919792969E
:100BB000AC91A02BFC01A2A3DA01FD90AD01EF2DB9
:100BC000E295EF70F0E0B1A0BF2DBF70FB2E6B017E
:100BD00001C0CC0CBA95EAF7DC2CD094DB20D1A272
:100BE000D2A0CD28C2A2DC0190968C9190E002C0E8
:100BF00095958795EA94E2F78170E0A1F0E002C054
:100C0000F595E795FA94E2F7E0FF02C092E001C0A3
:100C100090E0892BF30181933F01AECF88E391E00F
:100C20009093DC018093DB0184E091E09093DE01FE
:100C30008093DD0158E1252E312C80912F038530E2
:100C400009F07AC0FF24F39400E112E180912F03B0
:100C5000853009F05AC080912F03843009F441C0D7
:100C600080E00E940018109208028091E101811139
:100C700016C0F092E10180910A02982F9170909332
:100C8000E0018E7F80930A02FFEF20E732E0F1500F
:100C900020403040E1F700C000000E94E6221092A0
:100CA000DF0140E40FB6F894A895209260000FBED3
:100CB0004093600083B7817F846083BF83B7816086
:100CC00083BF7894889583B78E7F83BF0FB6F894DF
:100CD000A895809160008861809360001092600008
:100CE0000FBE80912E03882309F4B0CF0E94F6181E
:100CF000EFE0F2E081919191892B09F0CFC487E177
:100D000092E08E179F07B1F7A1CF0E943A200E9470
:100D100074210E9400181092E1018091E001882363
:100D200049F080910A02816080930A0260E0869512
:100D30000E94CB140E94D0220E94F61881110E94BA
:100D4000681BAFE0B2E0EFEFF1E000E010E0702FE1
:100D50002D913D918191919182279327009779F16F
:100D600060E0EE24E394F12CAC014E215F21452B91
:100D700009F169A37AA32E213F2181E0232B09F4F5
:100D800080E08BA30E94741B8160782F9DA38CA3AD
:100D900049A15AA16BA18DA10E94AA20000F111F89
:100DA000F801E150FE4F80819181E826F926F18219
:100DB000E0821AC06F5FEE0CFF1C6E30A9F60F5F69
:100DC0001F4F0430110519F68FEF8EA38FA318A6BD
:100DD0000E94741B8160782F9AA789A74EA15FA1FA
:100DE00068A58AA50E94AA2080910802882309F498
:100DF000A5C080910702E0910A02E695E81BE09306
:100E0000E401823059F4F0E0EF5AFE4FE4910E2FE6
:100E100010E086E9E82E80E2F82E6BC0863059F4A7
:100E2000F0E0E25BFE4FE4910E2F10E0B6E8EB2E0F
:100E3000B0E2FB2E5EC0893061F4E695F0E0E55B40
:100E4000FE4FE4910E2F10E0A4ECEA2EA5E2FA2E5C
:100E500050C08F3061F4E695F0E0E85BFE4FE4911E
:100E60000E2F10E0F7E5EF2EF5E2FF2E42C08531A0
:100E700059F4F0E0EB5BFE4FE4910E2F10E0E9E057
:100E8000EE2EE5E2FE2E35C08831F9F0833249F4CA
:100E9000E3E4F1E00591149176E4E72E70E2F72E99
:100EA00028C08432C9F08532F1F48E2F63E00E94AD
:100EB000052EE92FF0E0E05CFE4FE4910E2F10E0EC
:100EC00065EAE62E63E2F62E14C008E210E050E870
:100ED000E52E54E2F52E0DC004EF11E046E4E42EB9
:100EE00044E2F42E06C000ED17E035E4E32E30E2D4
:100EF000F32E8091E501882361F01092E5010E94B4
:100F0000741B9093E3018093E2011092E701109229
:100F1000E6010E94741BE091E201F091E3018E1B57
:100F20009F0B8F3F9F4750F40E0F1F1F1093E3013D
:100F30000093E20182EE91E0F70109959BEE492EC4
:100F400091E0592E22E3E22E21E0F22E08EE11E08C
:100F500024E531E03CA72BA78EEE91E09EA78DA75C
:100F6000A7E5B1E0B8ABAFA7EAE5F1E0FCABEBABCE
:100F70009AAB89AB912C812CA9A9BAA98D91BAAB56
:100F8000A9ABE82FEE0FEE0FABA9BCA92D91BCAB1E
:100F9000ABABA22FA295AF70B0E090968C9190E091
:100FA0002F7002C0959587952A95E2F79C012170D4
:100FB0003327AFA5B8A98D91B8ABAFA7A82FA2953D
:100FC000AF70B0E090964C9150E08F7002C0559594
:100FD00047958A95E2F7CA018170992740FF02C0C0
:100FE00082E090E0822B932B8E2BEDA5FEA58193C2
:100FF000FEA7EDA7ABA5BCA5CD90BCA7ABA78F70F6
:10100000E82FF0E0EC5BFE4F9081F2018081890FC8
:101010008083D12C082E000C990B8C159D052CF18A
:10102000D8018C918F5F8C93F701A080B180A114BF
:10103000B10449F0C5010E94E0188FE39CE90197D3
:10104000F1F700C00000D70112966D907C901397C5
:10105000C3010E94E018C3010E94CA18A114B10480
:1010600031F0C5010E94CA1802C020E001C021E091
:10107000F2018081082E000C990B442755274C194A
:101080005D09481759072CF1D8018C9181508C9338
:10109000F701A080B180A114B10449F0C5010E94FC
:1010A000E0188FE39CE90197F1F700C00000D70139
:1010B00014966D907C901597C3010E94E018C301AF
:1010C0000E94CA18A114B10419F0C5010E94CA18DF
:1010D00021E0F2018081082E000C990BB6010E94DC
:1010E000332ED2018D932D01922A8394B6E0EB0E1C
:1010F000F11C0F5F1F4FE3E08E123ECF91100E9454
:10110000681B86E0E7EFF1E08E010F5F1F4FD8010B
:1011100001900D928A95E1F7C090F901D090FA0103
:10112000E090FB01F090FC011092F9011092FA019D
:101130001092FB011092FC01C11003C0DD2009F4E4
:1011400051C08091F5019091F6010E94591B9C01BC
:101150009091F401992309F4D9C22333310508F49D
:1011600041C09F3F19F09F5F9093F401CC2061F044
:101170000E94F6151C1414F491E001C09FEF899FA2
:10118000802D11248093F901DD2061F00E94F61575
:101190001D1414F491E001C09FEF899F802D11244C
:1011A0008093FA013091F9013323E1F02091FA01A3
:1011B0002223C1F045EB3403C0011124992319F017
:1011C0009093F90103C081E08093F90135EB23038B
:1011D000C0011124992319F09093FA0103C081E012
:1011E0008093FA01E11003C0FF2009F451C08091FF
:1011F000F2019091F3010E94591B9C019091F10121
:10120000992309F488C22536310508F441C09F3F6F
:1012100019F09F5F9093F101EE2061F00E94D415C8
:101220001E1414F491E001C09FEF899F802D1124BA
:101230008093FB01FF2061F00E94D4151F1414F469
:1012400091E001C09FEF899F802D11248093FC01C4
:101250003091FB013323E1F02091FC012223C1F006
:1012600045EB3403C0011124992319F09093FB013D
:1012700003C081E08093FB0135EB2303C0011124FF
:10128000992319F09093FC0103C081E08093FC0145
:101290008091F90181110BC08091FA01811107C081
:1012A0008091FB01811103C08091FC0181110E949A
:1012B0003315CB82DC82ED82FE8286E0F801A7EF57
:1012C000B1E001900D928A95E1F70E94742190910E
:1012D000FD01891731F00E9474218093FD010E9465
:1012E000001880912F03843009F0A7CC83E080930D
:1012F000E9008091E80082FFA0CC8091E80085FFA2
:1013000021C00E94952A81111BC080E2C82ED12CD9
:10131000780109C08091F100D7018D937D01B1E082
:10132000CB1AD10869F08091E80085FDF3CF809158
:10133000E8008B778093E8000E94952A882399F330
:1013400091E001C090E08091E8008B778093E80005
:10135000992309F472CCE9818E2F90E0FC0131973A
:10136000E331F10508F070C1EA5AFF4F0C94472EA3
:101370001A8289E0D3C08A81823009F4A5C1833002
:1013800051F0813009F060C10E94681B9B838C83FF
:101390007D836E835BC180910F02909110029B83CD
:1013A0008C8380911102909112029D838E83809193
:1013B0001302909114029F83888780911502909167
:1013C000160299878A8742C18A81823009F03CC11E
:1013D0006B817C818D819E810E944D2E86E290E002
:1013E00024C04C816B818A810E9485229D8373C1B8
:1013F000ED80FE80FE24EF24FE248C81CB809A8138
:10140000ECE1CE9E60011124F0E79F9FC00CD11C3F
:101410001124C80ED11CC80ED11C6F2DC601879691
:101420000E946E2D6E2DC60188960E946E2D0EC1F3
:101430000E9451220BC18A818138B1F050F480386A
:1014400009F004C120E04B8160910C0280910B02F5
:1014500031C0823859F1833809F0F8C020E040915A
:101460000D026C818B8126C060E08B810E94CB14C1
:101470009B8180910A02911111C08E7F80930A0294
:10148000109208022FEF30E742E0215030404040F8
:10149000E1F700C000000E94E622D8C0816080937E
:1014A0000A0260E086950E94CB14D0C08B818093A5
:1014B0000E02CCC00E94EE13C9C08A81813899F017
:1014C00030F4803809F0C2C080910D0227C0823804
:1014D00091F0833809F0BAC080910B028B83809120
:1014E0000C028C83B3C080910A0280FF02C08695F3
:1014F00015C080E013C080910E0210C060910A02F6
:1015000070910B0280910C0290910D020E941513B4
:101510009DC080E152C081E08A8389EA8B8396C0B6
:10152000EA80FB80FE24EF24FE24CC80D12C5801DD
:10153000C701895A9D4F9501201B310B2C153D0584
:1015400008F084C0A9EAEA16A1E0FA0628F40E948D
:101550005A2DF501848303C0D50114961C92BFEF68
:10156000EB1AFB0AEFEFAE1ABE0AE2CFEA80FB806D
:10157000FE24EF24FE24CC80D12C5801C701895AC7
:101580009D4F9501201B310B2C153D0508F05EC0C9
:10159000F9EAEF16F1E0FF0628F4D50114966C91F4
:1015A0000E946E2DBFEFEB1AFB0AEFEFAE1ABE0AD8
:1015B000E5CF0E9441224AC085E08A8347C0EA8085
:1015C000FB80FE24EF24FE24CC80D12C5801C701DF
:1015D00087969501201B310B2C153D05B8F5F0E3DE
:1015E000EF16F2E0FF0630F40E945A2DD501149652
:1015F0008C9302C0F5011482FFEFEF1AFF0A2FEF60
:10160000A21AB20AE4CFEA80FB80FE24EF24FE2473
:10161000CC80D12C5801C70187969501201B310B36
:101620002C153D0598F430E3E31632E0F30628F478
:10163000D50114966C910E946E2DBFEFEB1AFB0A38
:10164000EFEFAE1ABE0AE7CF8FEF898380912F03A9
:10165000843009F0F2CA8091E9008F702091EC008B
:10166000922F917020FD90E8F92EF82A82E0809365
:10167000E9008091E80080FF0CC040E050E060E2AB
:1016800070E0C8010E94C82A8091E8008E7780939C
:10169000E8008F2D8F708093E900CFCA09BD19BD76
:1016A00009B400FEFDCF8091D8008F7D8093D800D3
:1016B0008091E00082608093E0008091E00081FDF5
:1016C000FCCF0E943A20C2CA86E290E00E945A2DC6
:1016D0001B821C821D828E83B9CF60E086E290E07F
:1016E0000E946E2D0E9451220E94412261E283E2FB
:1016F00090E00E946E2D66E084E290E00E946E2DE4
:1017000062E185E290E00E946E2DEEC92D323140FB
:1017100008F029CD67CD2D32314008F07ACDB8CD13
:101720008F929F92AF92BF92CF92DF92EF92FF92F1
:101730000F931F93CF93DF93CDB7DEB72D970FB6DF
:10174000F894DEBF0FBECDBFFC0180819181238163
:101750003481232B31F09F3F31F491E08F3F19F416
:1017600003C091E001C090E090FDB8C67F0185E024
:10177000DE01199601900D928A95E1F7F701228119
:1017800089859A85222349F00E94BD1C182F682F55
:1017900089859A850E945F1D03C00E94331D182F02
:1017A00069857A85812F0E94AB228C01F7018281A5
:1017B000882309F446C0C80182519F45409708F02C
:1017C00077C68FEF93E00E945A2D811143C02EEE11
:1017D000D22ED00E07E512E0DD2069F00115F4E00D
:1017E0001F07C1F1C8010E945A2D811101C0DA946E
:1017F0000F5F1F4FF1CF19821A821B821C82BB24FC
:10180000B39468012FEFC21AD20AC8010E945A2D60
:1018100089831A828823F1F09FEF980F933058F450
:101820008A83B9820E5F1F4FC6010E945A2D8B8397
:10183000882381F06801CE0101960E941718860165
:10184000E0CF0031FFE51F0799F481E00E94941D6D
:101850000E940C2680918402877009F43FC6F7012C
:101860008281882309F43AC682E00E94B91D36C6F7
:1018700001312FE5120711F482E0E8CF0E94741BBA
:101880006C01F7018281882309F47CC080911001EA
:1018900082FF05C0B60180E090E00E94802182E0D6
:1018A0000E94521C09313CE51307D1F178F407314D
:1018B0009CE5190759F10831ECE51E0709F04DC008
:1018C00080910E0190910F01059725C00B31FCE529
:1018D0001F0781F040F00C313CE51307F1F58091D2
:1018E00010018E7F0DC080911001982F909590FB74
:1018F00080F906C08091100181608093100194C02E
:101900008093100182E00E94521C8EC080910E01D3
:1019100090910F01059690930F0180930E0184C062
:1019200080910F018F9380910E018F938DE591E04F
:101930009F938F931F9288E08F93CE0101966C0145
:101940009F938F930E94702EC6010E9417180FB6A6
:10195000F894DEBF0FBECDBF67C00B32110509F48E
:1019600091C128F4C80104978497B8F48BC10D3253
:10197000110598F00933110508F484C104361105E6
:1019800061F480C10B32110509F49FC108F095C1C3
:10199000C8010497849708F498C1033FFCE51F072A
:1019A00059F190F4083D3CE51307E9F0093D8CE559
:1019B0001807A1F1073D9CE51907B1F506E221EEF4
:1019C00041EE67ED7CE514C0053FECE51E0701F133
:1019D000C8F0063F2CE5120739F507E225EE46EE82
:1019E00066EF7CE505C007E225EE45EE68ED7CE597
:1019F000C7010E94CE212ECF06E221EE40EE63EF1A
:101A00007CE5F6CF07E225EE44EE64EF7CE5F0CF0F
:101A100006E221EE42EE65EF7CE5EACF08E221E046
:101A200045EE69ED7CE5E4CFF7019281992309F455
:101A300067C110921B020230FCE51F0708F44AC17F
:101A400006312CE5120738F098012A5F3C45293011
:101A5000310508F03FC10E94D01B9093D1018093C3
:101A6000D00100313CE5130709F4C3C008F041C0C0
:101A700008309CE5190709F49AC0F0F40430FCE53D
:101A80001F0709F487C068F402303CE5130709F426
:101A900077C003301C4509F0E5C08091D001826019
:101AA00076C006309CE5190709F46EC008F07BC0CB
:101AB0008091D00188606BC00C30FCE51F0709F4F1
:101AC00085C068F40A303CE5130709F474C008F0D7
:101AD00079C00E943A208091D001806858C00E30B1
:101AE0009CE5190709F476C008F07FC08091D00109
:101AF0008BC00B3FFCE51F0709F44FC018F50331FD
:101B00003CE5130709F47DC078F401319CE5190721
:101B100009F473C002311C4509F0A4C00E943A20A8
:101B20008091D0018F7733C00531FCE51F0709F4A0
:101B300072C008F486C00A3F1C4509F093C080912A
:101B4000D1013EC00F3F8CE5180709F45FC058F47F
:101B50000D3FECE51E0709F444C008F43FC0809136
:101B6000D10182602DC001302DE5120709F475C046
:101B700008F45DC002301D4509F074C060E06EC01D
:101B80008091D001816003C08091D00180618093F9
:101B9000D00168C08091D00111C08091D1018260D4
:101BA0008093D1015FC08091D0018062F0CF80919D
:101BB000D0018064ECCF8091D00188608460E7CF51
:101BC0008160EECF8091D0018E7FE1CF8091D001F6
:101BD0008D7FDDCF8091D001877FD9CF8091D101DA
:101BE00018C08091D1018D7FDBCF8091D0018F7E95
:101BF000CECF8091D0018F7DCACF8091D0018F7BD5
:101C0000C6CF8091D001877F8B7FC1CF8091D101DA
:101C10008D7F8E7FC5CF8091D00182FB222720F956
:101C200091E0922790FB82F990FB83F9B0CF8091ED
:101C3000D101982F909591708E7F892B90FB81F91F
:101C4000AFCF0E943A208091D00187FB222720F954
:101C500091E0922790FB87F99ACF61E08EE090E0C7
:101C60000E946E2D6091D0011091D10184E090E02E
:101C70000E946E2D612F82E290E00E946E2D0E94E4
:101C80003A20E8CDF70192819923F9F08091100173
:101C900080FFCFCE209186022111CBCE10931A0265
:101CA00000931902D0921802C092170284608093A8
:101CB000100182E00E94B91DCDCD0D32110508F44E
:101CC0006CCE0933110508F002C4B601C8010E94A8
:101CD0008021C0CD809186020631FCE51F0709F501
:101CE0008A7A91E009F490E090931C02882311F025
:101CF00065E301C069E280E292E00E94B61B0EC07B
:101D000006311C4509F02BC180911C02882309F47F
:101D1000E3C365E380E292E00E94A91B0E94591C84
:101D200099CD82720C3CECE51E0709F4C4C008F0A2
:101D300045C0063C2CE5120709F4A9C0D8F4033CC1
:101D4000ECE51E0709F499C030F4023C2CE51207BB
:101D500009F46EC0D1C0043C3CE5130709F492C0FD
:101D6000053CECE51E0709F0C7C049EB54E162EC05
:101D700074E1A5C0093CFCE51F0709F492C078F4A2
:101D8000073C3CE5130709F487C0083CECE51E0757
:101D900009F0B2C04DEA54E161EA74E190C00A3C36
:101DA000FCE51F0709F482C00B3C2CE5120709F083
:101DB000A3C047E253E168E373E181C0013D3CE524
:101DC000130709F488C0A0F40E3CECE51E0709F4E3
:101DD0007CC008F477C00F3C2CE5120709F478C0EA
:101DE000003D3CE5130709F087C06EE089E081C043
:101DF000043D8CE5180709F474C068F4023DFCE565
:101E00001F0709F46BC0033D2CE5120709F074C0ED
:101E100061E088E16BC0053D3CE5130709F464C04F
:101E20000D358DE5180709F067C06AE285E261C0EB
:101E300080910A0280FF1BC08E7F80930A0260910E
:101E40000A0270910B0280910C0290910D020E9487
:101E50001513109208029FEFE0E7F2E09150E04086
:101E6000F040E1F700C000000E94E622F3CC816060
:101E700080930A0261E0869539C046E055E16FE043
:101E800075E11DC04FE055E166E075E118C042EC18
:101E900054E169EB74E113C041EA54E16DEA74E185
:101EA0000EC049E854E165E974E109C045E954E12F
:101EB00069E874E104C048E353E167E273E10E941A
:101EC000CA22C8CC61E081E011C065E082E011C0A7
:101ED00068E086E00EC064E18FE00BC067E185E159
:101EE00008C062E289E105C061E083E20E94CB1490
:101EF000B1CC0E94B822AECC992389F10A352DE5E8
:101F0000120741F150F401158CE51807A9F00E3DB8
:101F10001C4529F50E94E11B9DCC0B35EDE51E0704
:101F2000D9F00C351D45D9F48091D10182FB882769
:101F300080F991E0892711C00E943A200FEF14E345
:101F40002CE0015010402040E1F700C000000E944A
:101F50000F1B80CC81E001C080E00E94A31CF70130
:101F6000828100811181882349F0C8010E94BD1C33
:101F7000D82E682FC8010E945F1D04C0C8010E94AE
:101F8000331DD82EB8018D2D0E9471168C01982E0C
:101F9000F701D280A580A2949FE0A92280918402BB
:101FA000877099F0DD2089F0812F807F803421F0C7
:101FB00080E2800F883048F082E00E94B91D809155
:101FC00084028770CC24C3948111C12CB12EB294A9
:101FD0008FE0B8228B2D90E08C30910508F048C23C
:101FE000FC01E759FF4F0C94472E812F807F1F7013
:101FF000882311F01295107FDD20B9F0112309F428
:1020000022C280E2800F883010F0911006C08091CB
:102010008602182B1093860205C080918702182B28
:10202000109387020E94591C0EC2802F0E941A2B07
:10203000112309F41DC2005E083010F0911007C092
:1020400010958091860218231093860203C0812F79
:102050000E94521C0E94591C0BC2812F807F1F704E
:10206000803211F01295107F992021F0F1E09F1637
:1020700011F130C0DD20B1F0AA2081F001E0A01202
:102080000DC08091D10182FDF3C180918802182B8F
:10209000181709F4EDC110938802EAC180918802F3
:1020A000812B10C0AA2021F021E0A21609F4E0C182
:1020B0000E944C1C27C0DD2041F035E03A1508F4A1
:1020C000D7C1812F0E94092BD3C184E08A1508F45F
:1020D000CFC118C0DD2049F0AA2099F3F70185810E
:1020E00080FFB1C18F708583ECCFAA2059F00933EE
:1020F00009F0BBC1FFEF17EE23E0F1501040204084
:10210000E1F7B1C1812F0E94FE2AB2C1812F8695CD
:102110008695837019F0813059F0AAC1DD2019F03D
:10212000C801937002C080E090E00E945E21A8C1C7
:10213000DD2019F0C801937002C080E090E00E9499
:1021400048219EC1802FDD2019F00E94161602C082
:102150000E945D150E94331593C1812F837009F091
:1021600069C0D11089C1902F929596959770990F5B
:10217000990F802F8F70882E912CA12CB12C092EB5
:1021800004C0880C991CAA1CBB1C0A94D2F704FF3B
:1021900012C04FE050E060E070E004C0440F551FF3
:1021A000661F771F9A95D2F7DB01CA01809590953B
:1021B000A095B09503C080E090E0DC0116951695DF
:1021C000412F4370423019F1C8F4009189021091F7
:1021D0008A0220918B0230918C02413059F088297B
:1021E0009929AA29BB29BC01CD016023712382232F
:1021F00093230AC0802A912AA22AB32ABC01CD01C6
:10220000682979298A299B290E94F71D35C18829C7
:102210009929AA29BB290091890210918A0220914B
:102220008B0230918C02BC01CD016027712782277F
:102230009327EACFDD2019F0812F817001C08695A8
:10224000882309F419C1902F929596959770990F4C
:10225000990F802F8F70882E912CA12CB12C092ED4
:1022600004C0880C991CAA1CBB1C0A94D2F704FF5A
:1022700012C04FE050E060E070E004C0440F551F12
:10228000661F771F9A95D2F7DB01CA01809590955A
:10229000A095B09503C080E090E0DC0116951695FE
:1022A000412F43704230D9F068F500913903109105
:1022B0003A0320913B0330913C03413059F0882987
:1022C0009929AA29BB29BC01CD016023712382234E
:1022D00093231EC0802A912AA22AB32A13C08829D8
:1022E0009929AA29BB290091390310913A03209119
:1022F0003B0330913C03BC01CD016027712782274D
:10230000932706C0BC01CD01682979298A299B2918
:102310000E948A1DB1C01F70DD2039F0812F0E94FC
:10232000D61D802F0E94092BA7C0802F0E94FE2A55
:10233000812F0E94941DA0C0802F32EF931609F4C4
:1023400040C0391538F090EF991661F0E1EF9E1614
:1023500099F174C0F3EF9F16D9F124EF921609F4A6
:102360004EC06CC0DD2019F134E03A1508F480C08D
:102370001F7181E090E0A0E0B0E0AC01BD0104C0BD
:10238000440F551F661F771F1A95D2F780913903A6
:1023900090913A03A0913B03B0913C038A019B01C9
:1023A000082719272A273B27C901B80125C025E09E
:1023B0002A1508F45DC0DCCFDD2029F0812F8F7154
:1023C00030C0DD20D9F3812F8F710E94941D50C041
:1023D000DD2079F01F7181E090E0A0E0B0E0BC0169
:1023E000CD0104C0660F771F881F991F1A95D2F779
:1023F00003C060E070E0CB010E948A1D39C0DD207F
:1024000099F01F71812F0E94D61D8091D10182FD0C
:1024100007C038E0139FC0011124836080938402B9
:10242000812F0E94D61D24C081E00E94B91D81E049
:102430008A15F0F482E00E94B91D1AC0DD2039F03F
:10244000AA2009F4BBCF802F0E94812B11C0AA20A3
:1024500009F4B9CF893349F49FEFE7EEF3E09150E7
:10246000E040F040E1F700C00000802F0E941A2BEE
:1024700088EF8B0D843020F40E9474210E94001894
:10248000CC2061F18091840280FD28C0F701128286
:102490008595859585950E94D61DC7010E94900B54
:1024A000809184028595859585950E94941D16C01E
:1024B00000313FE5130711F481E006C001318FE5DB
:1024C000180709F0DBC982E00E94D61DC1C9043695
:1024D000110509F062CAF9CB69E21CCC2D960FB642
:1024E000F894DEBF0FBECDBFDF91CF911F910F914A
:1024F000FF90EF90DF90CF90BF90AF909F908F9024
:1025000008959091D00192FF0DC0282F2871283096
:1025100019F4877F846006C0282F2471243011F4B9
:102520008B7F886093FF0DC0282F2871283119F404
:10253000877E846106C0282F2471243111F48B7E9C
:1025400088612091D10120FF0DC0382F38713830BB
:1025500019F4877F816006C0382F3171313011F452
:102560008E7F886021FF0DC0282F2871283119F433
:10257000877E816106C0282F2171213111F48E7E62
:10258000886194FD877E08959C013A9521153F410D
:1025900038F5DC01AA27B270AC01442754709C01C5
:1025A0002227387094FF0FC090FF02C080E101C065
:1025B00080E0AB2B09F08062452B09F08064232B6F
:1025C00069F080680BC0892F8170AB2B09F08260A5
:1025D000452B09F08460232B09F08860FB010994E6
:1025E000089590910A0290FF0CC0E4E9F2E0818323
:1025F00060834283339692E0E73CF907C1F70C947D
:10260000E622089580910A02282F269530E02115B0
:10261000310519F48170826005C02B32310524F038
:102620008170846580930A020895CF92DF92EF92C1
:10263000FF926B017C010E940213B701A60188E0A2
:1026400090E0FF90EF90DF90CF900C94802D8091E0
:102650000E02882319F0815080930E0260910A02C5
:1026600070910B0280910C0290910D020C94151345
:1026700080910E02833018F48F5F80930E02609178
:102680000A0270910B0280910C0290910D020C9441
:102690001513EAE0F2E083E0808311828FEF8283FA
:1026A0008383148260817181828193810C941513DC
:1026B000AF92BF92CF92DF92EF92FF920F931F9350
:1026C000CF93DF93E82EF62EE901E42FF0E06111BD
:1026D00006C0EB5FFD4FE4914E2F2E2F71C0062FE9
:1026E00010E0EB5FFD4F4491F42FC42ED12C26E077
:1026F000829FC00111242FEF30E0B9010E941F2EEC
:102700005BEA5603C001579F900D11248E0D911D59
:102710008E0D911D582F550F580FD901A01BB10BCD
:10272000AC9DC001AD9D900DBC9D900D1124E92F75
:10273000F59ED0011124AB2FBB277901EA1AFB0AC1
:10274000EC9CD001ED9CB00DFC9CB00D1124590106
:10275000A51AB108A09E7001A19EF00CB09EF00CCD
:102760001124EF2CFF242E193F092C9D80012D9D53
:10277000100D3C9D100D1124212F6230710591F038
:1027800048F461157105E1F061307105B9F4242F49
:102790004B2F16C06430710569F040F0663071054A
:1027A00079F00CC0242F492FE12F0AC0492FEF2FB9
:1027B0002B2F06C0292FE42F412F02C0292FEB2FEA
:1027C00049832883EA83DF91CF911F910F91FF9076
:1027D000EF90DF90CF90BF90AF9008955F926F928F
:1027E0007F928F929F92AF92BF92CF92DF92EF92A1
:1027F000FF920F931F93CF93DF9300D01F92CDB71B
:10280000DEB7182F762E042F622E90910A0290FFC9
:102810006DC0E92FE695AE2FB0E0AE59BE4F8C915A
:10282000809307029E7F923061F49E012F5F3F4F9D
:10283000812F0E9458134B8169818A810E94F11275
:1028400043C0823019F400910D023EC0863019F465
:1028500010910B0239C08930D9F38931A9F5E951BA
:102860008E2F8170582EE695F0E0EB5FFC4FA5901F
:10287000B49084E9C82E82E0D82EE12CF12CBB2440
:1028800091E1892E912CAE9CC001AF9C900DBE9C15
:10289000900D1124B4010E941F2E812F511002C0EF
:1028A000860F01C0861B9601402F672D0E9458138A
:1028B0008FEFE81AF80A83E0C80ED11C81E1E81610
:1028C000F10409F70E94E62210930B0270920C02A9
:1028D00000930D02662051F060910A0270910B0284
:1028E00080910C0290910D020E9415130F900F9091
:1028F0000F90DF91CF911F910F91FF90EF90DF909C
:10290000CF90BF90AF909F908F907F906F905F908F
:102910000895EAE0F2E0438128E0421B08F440E039
:1029200021E0628181810C94EE13EAE0F2E04381C0
:1029300028E0420F08F44FEF21E0628181810C947E
:10294000EE13EAE0F2E0628128E0621B08F460E046
:1029500021E0438181810C94EE13EAE0F2E0628190
:1029600028E0620F08F46FEF21E0438181810C942D
:10297000EE13EAE0F2E0818121E043816281885038
:102980000C94EE13EAE0F2E0818121E04381628160
:10299000885F0C94EE1390910A0290FF36C09170FC
:1029A000811102C0926006C08B3210F0946502C0A3
:1029B000880F982B90930A02662351F060910A02C7
:1029C00070910B0280910C0290910D020E941513E0
:1029D00060910A02669570E04BE050E081E191E081
:1029E0000E94632E892B19F01092080202C00E94E7
:1029F000D02281E08093E50120E040910D026091BA
:102A00000C0280910B020C94EE13089580910A023F
:102A10008695815009F48AE261E00C94CB14809190
:102A20000A0286958F5F8B3208F081E061E00C949A
:102A3000CB14CF93DF9300D01F92CDB7DEB7909128
:102A40000A0290FF0AC09E012F5F3F4F0E94581359
:102A50004B8169818A810E94F1120F900F900F9033
:102A6000DF91CF9108950E94741B2091F9012111EB
:102A700004C02091FA01222321F09093F601809363
:102A8000F5012091FB01211104C02091FC012223BA
:102A900021F09093F3018093F201E091DD01F09138
:102AA000DE01309749F082E08093F7010480F581E0
:102AB000E02D87EF91E009940895803F39F49091DB
:102AC000FA0197FF35C01092FA0159C0813F29F4ED
:102AD0009091FA011916BCF32BC09091F901823F35
:102AE00029F497FF25C01092F90149C0833F19F4DA
:102AF0001916CCF31DC09091FB01893F29F41916DA
:102B0000BCF41092FB013BC08A3F19F497FF10C040
:102B1000F8CF8B3F39F49091FC0197FF09C01092D8
:102B2000FC012DC08C3F21F49091FC011916BCF3DF
:102B30009CE0980F953080F421E030E0A90102C0BC
:102B4000440F551F9A95E2F7CA0180959091F801BC
:102B500089238093F80113C08D3F21F480912802CE
:102B60008E7F0BC08E3F21F4809128028D7F05C09F
:102B70008F3F29F4809128028B7F809328028091D7
:102B8000F901811106C08091FA01811102C01092F1
:102B9000F4018091FB01811106C08091FC0181113B
:102BA00002C01092F10108958091280280FD16C0A4
:102BB00081FD16C082FD18C08091F101882391F03B
:102BC000883290F428E0829FC001112468E270E00E
:102BD0000E94332E862F672B29F007C082E00895CC
:102BE00084E0089581E0089588E0089580912802A6
:102BF00080FD14C081FD14C082FD16C08091F401D7
:102C0000882381F0843180F422E3829FC001112463
:102C100064E170E00E94332E862F08958CE00895C1
:102C200089E1089585E0089582E30895803F21F4C5
:102C30000E94F615819504C0813F29F40E94F61583
:102C40008093FA010895823F21F40E94F615819540
:102C500004C0833F29F40E94F6158093F90108957A
:102C6000893F19F40E94D41505C08A3F31F40E94AF
:102C7000D41581958093FB0108958B3F21F40E9428
:102C8000D415819504C08C3F29F40E94D4158093FB
:102C9000FC0108959CE0980F953078F421E030E035
:102CA000A90102C0440F551F9A95E2F7CA019091FD
:102CB000F801892B8093F80108958D3F21F48091CC
:102CC000280281600BC08E3F21F48091280282602F
:102CD00005C08F3F29F480912802846080932802E8
:102CE0000895CF93DF930E94AB22EC0182389105C7
:102CF00059F1A0F48133910509F473C040F489328D
:102D0000910509F467C08A9709F472C084C08533BD
:102D1000910509F458C0C997B9F07DC0833E91056B
:102D200071F138F4803E9105B1F0823E910511F1C8
:102D300072C0863E9105B9F1873E9105C9F1843E86
:102D4000910509F068C024C08091D00180FD5DC06C
:102D500081FD5BC060C08091D00180FD50C080913A
:102D6000D10180FF49C18091D00184FD43C1C3EEF0
:102D7000D0E042C18091D00182FF3EC1F4CF80916A
:102D8000D00182FD3FC08091D10180FD3EC0EBCFDC
:102D90008091D10181FF30C18091D00184FD2AC191
:102DA000C7EED0E029C18091D00183FF25C1F4CFC7
:102DB0008091D00183FD2CC08091D10181FFECCFA7
:102DC000C4EED0E019C18091D00185FF15C1C9E2E0
:102DD000D0E012C18091D00185FF0EC1C5E3D0E0E3
:102DE0000BC18091D00186FF07C1CAE2D0E004C1C7
:102DF0008091D00186FF00C1C1E3D0E0FDC0C9E3EE
:102E0000D0E0FAC0C2EED0E0F7C0C0EED0E0F4C02F
:102E1000C6EED0E0F1C0C11581E5D80708F066C064
:102E2000C11520E5D207E0F0CE0174E096958795B4
:102E30007A95E1F783709C2F937021E030E002C017
:102E4000220F331F9A95E2F73C68382BCF70C69556
:102E5000C69540E2C49FE0011124C22BD32BCCC005
:102E6000C83ED10560F5C03ED10508F0C5C0C83ADE
:102E7000D105B0F4C53AD10540F0C55AD0E0C456EA
:102E8000DE4FC881D0E0D064B7C0C130D10509F4AD
:102E9000B3C008F4AFC0C430D10508F4ABC0ACC0B7
:102EA000CF3BD10508F0A6C0C85AD0E0CC0FDD1F3B
:102EB000C156DE4F0990D881C02DD4649DC0C11584
:102EC00040E2D40758F4C11581E0D80708F094C057
:102ED000C03FD10508F48EC0D0658EC0C11520E476
:102EE000D20708F487C0DF70D06A86C0C11545E5F7
:102EF000D40708F042C0C11584E5D80728F0DC2FBC
:102F0000CC27C46FD06A78C0C11523E5D207B0F0D2
:102F1000CE018370992721E030E002C0220F331FD9
:102F20008A95E2F78C2F8695869540E2849FC001B2
:102F30001124E901C82BD92BDA685EC0C11542E51E
:102F4000D40728F4DC2FCC27C16FD06A55C0CE013E
:102F50008370992721E030E002C0220F331F8A9549
:102F6000E2F78C2F8695869540E2849FC00111245C
:102F7000E901C82BD92BDC683FC0C11589E5D8070A
:102F8000B8F4C11528E5D20728F0DC2FCC27C06F94
:102F9000D06A32C0C11546E5D40760F58C2F0E9477
:102FA00081128F71C82FD0E0DC2FCC27D06224C0D3
:102FB000C1158AE5D80780F48C2F8F700E9481128A
:102FC00094E0D695C7959A95E1F7CF70D0E0DC2FC5
:102FD000CC27D069C82B10C0CE01905681159042E5
:102FE00048F48D2F8F710E948112DD27D0628F717E
:102FF000D82B02C0C0E0D0E0CE01DF91CF91089580
:103000000E947421682F617080E00E94EE250E946A
:10301000742181FB662760F981E00E94EE250E9401
:10302000742182FB662760F982E00C94EE25AF9252
:10303000BF92CF92DF92EF92FF920F931F93CF93A5
:10304000DF93EC018AE0A82E2881222309F497C09F
:10305000213009F041C08981813039F48E010E5F41
:103060001F4F8A810E94252C08C0823041F48E01B6
:103070000E5F1F4F8A810E94812BE8017EC0833042
:1030800039F48E010E5F1F4F8A810E941A2BF5CFF3
:10309000843011F0219671C02A81229680E090E060
:1030A00030E0205331092A30310558F4A89EA001A0
:1030B000A99E500D1124C901840F951F21962881C6
:1030C000EFCF009709F459C0EFE9FFE03197F1F72E
:1030D00000C000000197F5CFE22FF0E0EB57FE4F64
:1030E000B490822F86958695869590E0FC01EB58EA
:1030F000FE4FE4902770F12C022E02C0F594E79465
:103100000A94E2F7F1E0EF22FF24FC01EB59FE4FB5
:10311000C490D12C022E02C0D594C7940A94E2F731
:1031200031E0C322DD24FC01EB5AFE4F049110E094
:1031300002C0159507952A95E2F701701127E11451
:10314000F10419F081EE0E94812BC114D10419F011
:1031500086EE0E94812B8B2D0E94252CCD2819F004
:1031600086EE0E941A2BEF2819F081EE0E941A2B8E
:10317000012B19F08CE20E94252C219665CFDF915E
:10318000CF911F910F91FF90EF90DF90CF90BF9064
:10319000AF900895CF93DF93EC010E941A2BCE01DC
:1031A000805E9109089710F0209719F46EEF7AE28B
:1031B00002C063E17BE2CE01DF91CF910C94C41297
:1031C000CF93DF93EC01805E9109089710F0209770
:1031D00019F469E07BE202C064EF7AE2CE010E945A
:1031E000C4128C2FDF91CF910C94812B2F923F92A0
:1031F0004F925F926F927F928F929F92AF92BF9207
:10320000CF92DF92EF92FF920F931F93CF93DF93B2
:1032100000D000D0CDB7DEB73AEDA32E31E0B32E0B
:10322000A2EDB1E060E271E0198241E050E04D01B1
:103230006D907C901197FB018191BF01E82FE29581
:10324000EF702E2E312CF10191A18F706A0101C017
:10325000CC0C8A95EAF7892F8C2981A382A15C2C5A
:103260005094852182A3F0EAFA95F1F704E211E087
:1032700080E090E0F801F1908F012F2D22952F70C2
:1032800030E0F90120A130E0FF2DFF7002C035953C
:103290002795FA95E2F7ED90FC90119720FF0CC06E
:1032A0009A01082E02C0220F331F0A94E2F72095DC
:1032B00030952E213F2109C09A01082E02C0220F0D
:1032C000331F0A94E2F72E293F2911963C932E933F
:1032D00001968730910571F6F10121A1522251A288
:1032E00022A1C22AC2A2129621E0F401008111811A
:1032F0000615170509F420E0F981F22BF983AA16C7
:10330000BB0609F094CF6BE271E001E010E0DB0155
:103310002D91BD01E22FE295EF70F0E031A12F7009
:10332000480101C0880C2A95EAF7232F282921A3F8
:1033300022A1382C3094232122A3B0EABA95F1F7C8
:103340007801082E02C0EE0CFF1C0A94E2F7270158
:103350004094509422ED31E03C832B8320E2C22E36
:1033600021E0D22E212C6B807C80D3012D913C91C9
:10337000D6014D916D014A8342954F7050E0DA01BC
:1033800090964C9150E0BA81BF7002C05595479518
:10339000BA95E2F740FD05C0A9014E295F29D30186
:1033A00005C0A90144215521AB81BC814D935C939B
:1033B0004B815C814E5F5F4F5C834B83D3014D91AA
:1033C0005C912417350711F0222423942B813C8132
:1033D000A216B30641F621A1322231A222A1822AED
:1033E00082A239813229398301968E30910509F004
:1033F0008ECF332349F081E080931F020E94741B1B
:1034000090931E0280931D0280911F02882351F128
:1034100080911D0290911E020E94591B069710F187
:103420008091D2019091D3019093100280930F026A
:103430008091D4019091D501909312028093110252
:103440008091D6019091D70190931402809313023A
:103450008091D8019091D901909316028093150222
:1034600010921F028091100182FF17C00E94741BEE
:103470002091170230911802AC01421B530B20918E
:103480000E0130910F014217530738F0BC018091B3
:10349000190290911A020E94802189810F900F9049
:1034A0000F900F90DF91CF911F910F91FF90EF90B0
:1034B000DF90CF90BF90AF909F908F907F906F9054
:1034C0005F904F903F902F9008958091240308952E
:1034D00080E008952091600290912F0256E0291714
:1034E000A9F030E0529FF001539FF00D1124E05DF0
:1034F000FD4F7181761306C07081781303C072810D
:10350000741306C02F5F3F4F2770E9CF80E0089506
:1035100081E00895CF93DF9300D01F92CDB7DEB73F
:1035200090912F03943011F589837B836A83909364
:10353000E9008FEF9091E800815095FD06C095ED70
:103540009A95F1F700008111F5CF8091E80085FF91
:103550000DC040E050E063E070E0CE0101960E94B3
:10356000C82A8091E8008E778093E8000F900F9032
:103570000F90DF91CF910895BC0184E00C948A1ADA
:10358000BC0183E00C948A1A24E02093E9002FEF19
:103590003091E800215035FD06C035ED3A95F1F740
:1035A00000002111F5CF2091E80025FF0BC040E07D
:1035B00050E066E070E00E94C82A8091E8008E77B3
:1035C0008093E8000895CF93DF9321E02093E900F2
:1035D0002FEF3091E800215035FD06C035ED3A95CA
:1035E000F1F700002111F5CF2091E80025FF14C06C
:1035F000EC0140E050E068E070E00E94C82A809151
:10360000E8008E778093E80088E0FE01A5E2B3E051
:1036100001900D928A95E1F7DF91CF91089581E0B5
:103620008093E00080E28093D8001092C9008FE17F
:103630009EE40197F1F700C0000087E090EBDC0109
:1036400080933D0390933E03A0933F03B0934003C8
:103650009CE088E10FB6F894A895809360000FBEB7
:1036600090936000FFCF78941F920F920FB60F9245
:1036700011248F939F93AF93BF9380918D0290916C
:103680008E02A0918F02B09190020196A11DB11DF2
:1036900080938D0290938E02A0938F02B09390023C
:1036A000BF91AF919F918F910F900FBE0F901F9080
:1036B00018959C014FB7F89480918D0290918E02DD
:1036C000A0918F02B09190024FBF821B930B08957F
:1036D0002FB7F89460918D0270918E0280918F02C5
:1036E000909190022FBF08952FB7F89480918D028A
:1036F00090918E02A0918F02B09190022FBF0895F9
:103700001F920F920FB60F9211248F939F93AF9336
:10371000BF938091DF01811113C080918D02909140
:103720008E02A0918F02B09190024196A11DB11D11
:1037300080938D0290938E02A0938F02B09390029B
:10374000BF91AF919F918F910F900FBE0F901F90DF
:1037500018959C012A5F3F4FFC014281461301C02E
:103760001282019682179307B9F708959C01FC0114
:1037700032969FEF80E04191461789F09F3F19F400
:10378000411101C0982F8F5F8630A9F79F3F39F014
:10379000F901E90FF11D97FDFA95628308950895E7
:1037A000CF9384E090E00E945A2DC82F82E290E0EF
:1037B0000E945A2D2C2F30E0A901582BCA01CF911D
:1037C00008956AEE7EEF80E090E00E948C2D60E02C
:1037D00082E090E00E946E2D60E083E090E00E9425
:1037E0006E2D1092890210928A0210928B02109212
:1037F0008C0260E084E090E00E946E2D60E082E246
:1038000090E00E946E2D60E085E090E00E946E2DB9
:1038100060E086E090E00E946E2D6FEF87E090E020
:103820000E946E2D40E050E0BA0188E090E00E94D6
:10383000802D60E08DE090E00E946E2D40E050E031
:10384000BA0188E190E00E94802D60E087E190E07D
:103850000E946E2D40E050E0BA018CE190E00E94A1
:10386000802D60E070E080E290E00E948C2D40E0CE
:1038700050E0BA0188E190E00E94802D40E050E0E5
:10388000BA018FE090E00E94802D40E050E0BA0144
:1038900083E190E00C94802D809188028111109238
:1038A00088020895809590918702892380938702EA
:1038B00008959091860280918702892B209185023C
:1038C000982F922B9093200280918802882389F070
:1038D000892B80932002E2E2F2E097E080E09150B1
:1038E00029F021912223D9F38F5FF9CF81110E9412
:1038F0004C1CE091DD01F091DE01309731F0028047
:10390000F381E02D80E292E00994089580E090E058
:103910000E945E2180E090E00E9448211092870280
:10392000109285020E94591CE7EFF1E086E0DF016A
:103930001D928A95E9F71092F4011092F10110920C
:1039400028020C943315CF93C091D101C2FB992763
:1039500090F9981781F080FBC2F9C093D101609172
:10396000D00184E090E00E946E2D6C2F82E290E006
:10397000CF910C946E2DCF910895BF92CF92DF928C
:10398000EF92FF920F931F93CF93DF938C01C09020
:103990003903D0903A03E0903B03F0903C038091D0
:1039A000890290918A02A0918B02B0918C02C82A60
:1039B000D92AEA2AFB2ACFE1D0E0D701C6010C2E92
:1039C00004C0B695A795979587950A94D2F780FD80
:1039D00004C0219790F7B12C07C0BC2EB8018C2FE2
:1039E0000E9471160197A9F38B2DDF91CF911F9142
:1039F0000F91FF90EF90DF90CF90BF900895CF93FD
:103A0000DF93EC010E94BD1CBE010E947116DF9184
:103A1000CF9108950E94FF1C292F2F70E92FE29566
:103A2000EF704E2F50E0FA013297EE30F105B8F406
:103A3000EB58FF4F0C94472E803F99F018F4883EC6
:103A400070F40FC0843F59F40CC0883E50F0813FA1
:103A500031F407C0822F869586958695089580E07B
:103A6000089581E008952EE0929F800D1124682F23
:103A7000669566956695982F977085E0689FB0016A
:103A8000112440E050E080E0FB01E40FF51FEF5906
:103A9000FD4F208130E0092E02C0369527950A940B
:103AA000E2F721703327042E01C0220F0A94EAF7AF
:103AB000822B4F5F5F4F4530510531F708952EE05F
:103AC000929F800D1124E82FE695E695E695877084
:103AD00051E001C0550F8A95EAF785E0E89FF001B3
:103AE0001124EF59FD4F20E030E070E04081CB0120
:103AF000022E02C0969587950A94E2F7817081950F
:103B000084278523842781932F5F3F4F25303105FC
:103B100069F708956093390370933A0380933B03E8
:103B200090933C030C94861C0F931F9341E050E04C
:103B300060E070E004C0440F551F661F771F8A9530
:103B4000D2F740955095609570958091390390918A
:103B50003A03A0913B03B0913C038A019B010823E7
:103B600019232A233B23C901B8011F910F910C94FB
:103B70008A1D209184028095822380938402982F4D
:103B8000977041F430E0482F082E000C550B241795
:103B9000350721F49091D10192FF07C08595859555
:103BA00085950E94941D1092840208950F931F938F
:103BB00041E050E060E070E004C0440F551F661F14
:103BC000771F8A95D2F78091390390913A03A0919B
:103BD0003B03B0913C038A019B01082B192B2A2B34
:103BE0003B2BC901B8011F910F910C948A1D609362
:103BF000890270938A0280938B0290938C020C94BA
:103C0000861C8091600290912F02891719F08F5FB6
:103C10008770FBCF08950F931F93CF93DF9380910D
:103C20002E0282958F7009F05DC080912B0288234F
:103C300009F458C08091600210912F02609129020E
:103C400070912A02C0912C02D0912D0291E06F3F19
:103C500009F090E0292F06E0811709F443C020976E
:103C600021F07F3F21F030E003C031E001C0322F6E
:103C700090E030FD34C0089FF001099FF00D112441
:103C8000DF01A05DBD4F11963C911197371327C0FE
:103C90003C91361324C012963C91129731111FC0EB
:103CA00013964D915C9114974C1B5D0B483C51054C
:103CB000B0F480912E028F70806180932E02EB5CB5
:103CC000FD4F80818F708061808389E292E00E9445
:103CD000900BDF91CF911F910F910C94011E0196D3
:103CE0008770BACFDF91CF911F910F9108958F9276
:103CF0009F92AF92BF92CF92DF92EF92FF920F937B
:103D00001F93CF93DF93CDB7DEB761970FB6F894CB
:103D1000DEBF0FBECDBF8C0185E0F801DE011D9630
:103D200001900D928A95E1F7D801DC901196EC9004
:103D300011971296CC909091290220912A024091DD
:103D40002C0250912D024115510531F02F3F31F4D5
:103D500081E09F3F19F403C081E001C080E080FD55
:103D600058C1F801A380B48089E2882E82E0982EA1
:103D7000F0902B02B501641B750BFF2009F403C101
:103D800080912E02382F307F683C710508F0CDC03D
:103D9000311188C02E1112C09D1110C0FC2CC11011
:103DA0000DC08F70806180932E02C4010E94900B21
:103DB00080912E02D80115968C9348C1A114B104AC
:103DC00039F0BFEFEB1206C081E0DB1203C003C085
:103DD00081E001C080E080FD03C081E08C2502C04D
:103DE00080E090E080FF10C04C2D6E2D8D2D0E9444
:103DF0006A1A882349F089E292E00E94900BE9E276
:103E0000F2E086E0DF0199C0AB2839F0BFEFEB129A
:103E100006C081E0DB1203C003C081E001C080E086
:103E200080FD03C081E08C2502C080E090E0E82F97
:103E3000E170BE2E80FF2CC04C2D6E2D8D2D0E946A
:103E40006A1AF82E811124C0DD86EE868D859E8546
:103E50000E94FF1C292F22952F70223018F0243049
:103E600090F405C09F7059F0811109C0EFC09F7098
:103E700031F0D80115969C91907F09F4E7C0805EDF
:103E8000883008F4E3C0C8010E94900BFB2CDEC010
:103E9000FC2CCC2009F4DAC080912E028160809342
:103EA0002E024EC02E1106C09D1104C0C11002C0CA
:103EB000F8018BC0DD86EE868D859E850E940A1DE9
:103EC000882369F1CC2059F120912E02822F82950E
:103ED0008F7090E0029774F08091290290912A02ED
:103EE00098878F831986BB86AA862C87CE01079672
:103EF0000E94900B86E0F801A9E2B2E001900D92D9
:103F00008A95E1F70E940B1E0DC02E15D9F0DD86B3
:103F1000EE868D859E850E940A1D81111DC0C801F7
:103F20000E94900BFF24F39491C03111EECF89E2EF
:103F300092E00E94900B86E0D4011D928A95E9F7E9
:103F4000F12C84C09D11E3CFC110E1CFF80185832E
:103F5000C8010E94900B57C0CC2009F320912E027B
:103F6000822F82958F7090E0029724F2809129022F
:103F700090912A029A8389831B82BD82AC822E8310
:103F8000CE010196B5CF683C7105E8F5FC2CCC203C
:103F900031F22E1127C09D1125C020912E0220FD47
:103FA00018C0822F82958F70482F50E0411551051F
:103FB00081F0F80125834F30510541F08F5F982F34
:103FC0009295907F822F8F70892B8583C8010E94E4
:103FD000900B86E0F801A9E2B2E001900D928A957B
:103FE000E1F734C0DD86EE868D859E850E940A1D30
:103FF000811180CF80912E02816080932E02C801B2
:104000000E94900B23C086E0D4011D928A95E9F7A7
:104010001DC0CC2009F483CFDD86EE868D859E857C
:104020000E940A1DF82E882309F479CF86E0F80152
:10403000A9E2B2E001900D928A95E1F78091290200
:1040400090912A020E94FF1C0E940B1E8F2D6196E8
:104050000FB6F894DEBF0FBECDBFDF91CF911F9199
:104060000F91FF90EF90DF90CF90BF90AF909F9017
:104070008F9008951092860286E0E2E2F2E0DF017E
:104080001D928A95E9F70C94861C08950F931F934F
:10409000CF93DF9300D01F92CDB7DEB78C01809114
:1040A000930281110AC09E012F5F3F4F4FEF6FEFC8
:1040B0000E9458138A8180939302F8018481813091
:1040C00051F028F0823061F4409193020AC080914F
:1040D000930240E007C06091930240E080E003C09B
:1040E00040E080E060E00E94F112F801848190E0FD
:1040F000019663E070E00E94332E84830F900F904E
:104100000F90DF91CF911F910F910895CF93DF937F
:10411000EC01EAE0F2E0438162818C810E94191592
:104120008C818F5F8C83DF91CF910895CF93DF9344
:10413000EC01EC81F0E0E65FFC4F4491EAE0F2E054
:10414000628181810E9419158C818F5F8C83DF9140
:10415000CF9108951F93CF93DF93CDB7DEB76797C5
:104160000FB6F894DEBF0FBECDBF342F4B8B252F7B
:104170005C8B6D8B7E8B8F8B4E895F89611110926A
:10418000870286E0FE013D96DF01982F1D929A95E9
:10419000E9F73D872E876F87598B488BDE0117968D
:1041A00001900D928A95E1F7CE0107960E94771E45
:1041B00081113EC086E0FE013796DE011196019026
:1041C0000D928A95E1F7FF81E8856A857B85611507
:1041D000710531F0EF3F31F481E0FF3F19F403C086
:1041E00081E001C080E080FD23C020912F0230E0FB
:1041F000C9010196877099274091600250E08417A9
:10420000950779F1F983EA837D836C8396E0929F29
:10421000D001939FB00D1124A05DBD4FFE013196DA
:1042200001900D929A95E1F780932F020E94011E52
:1042300016E08091600290912F028917F9F0189F83
:10424000C0011124805D9D4F0E94771E8823B1F02C
:104250008091600290E001968770992780936002B8
:10426000E8CF0E943A2010922F0210926002E9E2F9
:10427000F2E086E0DF011D928A95E9F767960FB6B6
:10428000F894DEBF0FBECDBFDF91CF911F9108958F
:1042900020912003309121032817390771F0909362
:1042A000210380932003E091DD01F091DE0130973E
:1042B00021F00084F185E02D0994089520911E03DA
:1042C00030911F032817390771F090931F038093D3
:1042D0001E03E091DD01F091DE01309721F00680B0
:1042E000F781E02D09940895E091DD01F091DE0160
:1042F000309721F00190F081E02D099480E008953D
:104300000F931F93CF93DF938C01EB0180911001EA
:1043100082FF2CC08B7F80931001809117029091B7
:1043200018029B01281B390B80910E0190910F01FF
:104330002817390740F4809119020E94812B80913F
:1043400010018D7F0CC0809187028260809387026C
:10435000809119020E94812B8091100182608093CC
:104360001001809119020E941A2B0AC0802F0E940E
:104370001A2B8091190290911A020817190719F443
:1043800082E00E94521C0E94591CD0931802C093D4
:104390001702DF91CF911F910F9108950F931F93F3
:1043A000CF93DF93C42FD22FFC0182818823C9F0E1
:1043B00040931B020E94741B90931D0380931C0367
:1043C00080E28C0F883008F057C0C77081E001C0D0
:1043D000880FCA95EAF7DF91CF911F910F910C9446
:1043E000092B80911B02481330C080911C039091CF
:1043F0001D030E94591B883C910538F510E21D0FE2
:10440000CD17B9F080E28C0F883040F4C77081E09E
:1044100001C0880FCA95EAF70E94FE2A183028F5D5
:1044200081E09D2F977001C0880F9A95EAF70E944E
:10443000092B802F0E94252C1830F0F4D77081E0D2
:1044400001C0880FDA95EAF70AC080E28C0F883045
:1044500098F4C77081E001C0880FCA95EAF7DF9130
:10446000CF911F910F910C94FE2A802FDF91CF9155
:104470001F910F910C94252CDF91CF911F910F91DB
:104480000895CF93DF93C7E5D2E060E0CE010E94AC
:104490006E2D2196C11584E0D807B9F7DF91CF9131
:1044A0000895CF92DF92EF92FF920F931F93CF93D5
:1044B000DF93C0E0D0E08E0100591F4F6E018CE108
:1044C000C80ED11CFE01E65FFB4FE590F4906F2D06
:1044D000CE0187960E946E2D6E2DCE0188960E9489
:1044E0006E2D2296CC15DD0569F70C171D0731F7E7
:1044F000E80100331240F9F6DF91CF911F910F913F
:10450000FF90EF90DF90CF9008950F931F93CF937C
:10451000DF93C42FD0E0CC0FDD1F2CE1629FC00DD4
:10452000D11D112430E7839FC00DD11D1124CE0170
:1045300087960E945A2D082F10E0102F0027CE01D9
:1045400088960E945A2D9801282BC901DF91CF919E
:104550001F910F910895462F853038F4743028F458
:104560006E3018F4672F0C94852280E090E0089557
:1045700090910A0290FF04C09695981740F003C0EE
:10458000811105C090E0961710F40C940F1561E0AE
:104590000C94CB14882311F0FA0101C0FB0109949B
:1045A00060910A02669570E04BE050E081E191E095
:1045B0000E94632E892B19F481E0809308020E94E7
:1045C000741B9093E3018093E20108956F927F92B0
:1045D0008F929F92AF92BF92CF92DF92EF92FF9213
:1045E0000F931F93CF93DF9300D000D01F92CDB7CE
:1045F000DEB780910A02982F917080FF08C08090EA
:10460000DB019090DC018114910469F424C0E4E999
:10461000F2E027EC32E011821082128233962E17DC
:104620003F07C9F7ECCF9923B1F0A12CB12C662438
:104630006394712C20910902C3010A2C01C0880FD8
:104640000A94EAF7822309F444C0F401C590D49097
:10465000C114D10469F4539A8BB1877F9BB19860E0
:104660002FB7F894E4E9F2E040C035E0C30ED11C66
:1046700045E050E0B601CE0101960E94512D09811E
:104680000F3F39F110E08A819801280F311DC901CF
:104690002231310514F081E190E07C01EE0CFF1C29
:1046A0008E0D9F1D9C012C563D4F7901C801880F2E
:1046B000991F080F191F0C561D4F0E151F05A8F640
:1046C00098014D816C818B810E9458130D5F1F4FA3
:1046D000F4CF82E0880E911C9FEFA91AB90A28E056
:1046E000A216B10409F0A6CFB6CF32E0E73CF3073B
:1046F00089F0319148E09BB9000000C037FF8BB9C9
:10470000330F000000C000C000C08BB900C04A9544
:1047100091F7EBCF2FBF8FE594E00197F1F700C041
:1047200000000F900F900F900F900F90DF91CF919E
:104730001F910F91FF90EF90DF90CF90BF90AF90BF
:104740009F908F907F906F9008959F92AF92BF92AD
:10475000CF92DF92EF92FF920F931F93CF93DF934D
:10476000FC01A280948081E08483EAE0F3E0B490CD
:10477000E9E8F3E0E491C7ECD2E0F4E9EF2EF2E0EF
:10478000FF2ECC24CA94D12CEB190E2F10E022E07E
:104790002A1530F080910B02888380910C02898366
:1047A000911003C01B821A8255C08B818823F9F0B7
:1047B00081508B832FEF829FC00111246C8170E0A8
:1047C0000E941F2EFB01FF27E65FFC4F8491E82F1C
:1047D000EB192FEFE29FC0011124B8010E941F2E98
:1047E00080910D02689FB00111247A8333C00E942A
:1047F000412D20910D022695215830E0A901440F4A
:10480000551F322F2227240F351F232F33278217BE
:10481000930704F582E08A1588F40E94412DB601C1
:104820000E94332E88830E94412D20910C022695F0
:10483000622F70E00E94332E280F29831A82809104
:104840000D02843120F0893C18F088EC01C084E12D
:104850008C838B8397014A81698188810E945813D8
:10486000259623E0E20EF11C83E0CC31D80709F055
:104870008ECFDF91CF911F910F91FF90EF90DF903E
:10488000CF90BF90AF909F900C94E622EF92FF9252
:104890000F931F93CF93DF938C01C4E9D2E0E12CF7
:1048A000F12CF8018481F8E0EF16F1041CF4882360
:1048B00039F002C0811104C09E0140910D0202C076
:1048C0009E0140E060910C0280910B020E945813FF
:1048D0008FEFE81AF80A239691E1E916F10409F737
:1048E0000E94E622F801848190E001968170992768
:1048F0008483DF91CF911F910F91FF90EF900895E6
:104900008F929F92AF92BF92CF92DF92EF92FF92DF
:104910000F931F93CF93DF93EC014C81042F10E092
:104920009801D8010E94F62D9B01AC010E94C12D77
:104930006B017C01E0E2F0E0E01BF10BA5E5B0E0EB
:104940009B01AC010E94C12D4B015C019F01DF0165
:104950000E94542E9B01AC010E94CC2D9B01AC0106
:104960002C0D3D1D4E1D5F1DC501B4010E94D42DAF
:10497000822FF22E99E2921728F093E0299F90015E
:1049800011240DC025E530E0281B3109C901880F2D
:10499000991F280F391F37FF02C02F5F3F4F3595F2
:1049A0002795122F109594E9C92E92E0D92E00E098
:1049B00085E5E82EEF1801FD02C08E2D01C08F2D78
:1049C0009601412F60910C020E9458130F5F83E003
:1049D000C80ED11C013179F70E94E6228C81811129
:1049E00002C091E003C0803219F49FEF90931E0142
:1049F00090911E01890F8C83DF91CF911F910F91B0
:104A0000FF90EF90DF90CF90BF90AF909F908F90EE
:104A100008950F931F93CF93DF93C4E9D2E0FE0173
:104A2000118210821282339682E0E73CF807C1F7C8
:104A300000E010E080919202082E000C990B0817FC
:104A4000190794F080911D01082E000C990B801716
:104A5000910754F09E0140910D0260910C028091EB
:104A60000B020E94581303C0198218821A820F5F2A
:104A70001F4F239601311105E9F60E94E62280912D
:104A80001C0190919202980F9093920220911D0127
:104A9000280F20931D01121614F490311CF08195FB
:104AA00080931C01DF91CF911F910F910895BF92C8
:104AB000CF92DF92EF92FF920F931F93CF93DF93EA
:104AC000FC01828180FF03C0DD24DA9402C0DD2472
:104AD000D39404E912E0C0E0D0E021E1B22EF80165
:104AE00011821082128294E0E92EF12CC12C809167
:104AF00091028C0D82312CF06B2D0E94112E892F8A
:104B000002C087FD8F5E082E000C990BC817D907CD
:104B100091F480910D028E9DA0018F9D500D112466
:104B20005595479555954795980160910C02809150
:104B30000B020E945813CD0CF1E0EF1AF108B9F600
:104B400021960D5F1F4FC131D10549F60E94E62223
:104B50008091910291E0D91206C0811102C080E1DA
:104B600007C0815005C090E00196BE010E94332E1F
:104B700080939102DF91CF911F910F91FF90EF9061
:104B8000DF90CF90BF900895EF92FF921F93CF9345
:104B9000DF93EC0184E9E82E82E0F82E10E08C81AE
:104BA000970140910D0260910C02810F0E945813F1
:104BB000115F83E0E80EF11C1F3F89F70E94E62297
:104BC0009A818C8190FF02C08F5F01C081508C83DD
:104BD000DF91CF911F91FF90EF90089521E030E099
:104BE000A90102C0440F551F8A95E2F7CA0120911E
:104BF0000902662311F0822B02C0809582238093E4
:104C0000090280910802811106C080910A0260E0C9
:104C100086950C94CB1408950F931F9380913903BC
:104C200090913A03A0913B03B0913C038C019D010C
:104C30000670112722273327BC01CD01063011054C
:104C40002105310511F4686001C0677F1F910F9144
:104C50000C948A1D1F93CF93DF93CDB7DEB7AA972D
:104C60000FB6F894DEBF0FBECDBFE1E3F3E0809155
:104C7000F100819343E0E933F407C9F780913203EF
:104C8000833009F462C030F4813071F0823009F46D
:104C90009CC0B3C08A3009F488C08B3009F46DC061
:104CA000893009F0AAC020C080913103813A09F00F
:104CB000A4C08091E800877F8093E800809135034D
:104CC00090913603892B21F468E085E293E003C0DC
:104CD00060E080E090E070E00E94972C8091E80016
:104CE0008B778093E80089C080913103813209F08D
:104CF00084C08091350390913603009719F0029794
:104D000009F07BC08091E800877F8093E800809164
:104D1000E80082FD05C080912F038111F8CF6DC09E
:104D20002091F3008091F20090E0922B029729F4F9
:104D30008091F1008B7F813021F48091F10080938C
:104D400024038091E8008B7754C080913103813A2D
:104D500009F053C08091350390913603892B09F0F7
:104D60004CC08091E800877F8093E8008091E80044
:104D700080FFFCCF80911F0137C0809131038132C9
:104D8000E1F58091350390913603892BB1F580913F
:104D9000E800877F8093E8000E94432C80913303D2
:104DA00080931F010E943A2028C0809131038132F4
:104DB00021F58091E800877F8093E8000E94432CD2
:104DC000809134038093230318C080913103813A8A
:104DD000A1F48091E800877F8093E8008091E8004B
:104DE00080FFFCCF809123038093F1008091E80045
:104DF0008E778093E8000E94432C8091E80083FF27
:104E0000DDC18091310390913203492F50E04A3047
:104E1000510508F0D3C1FA01ED57FF4F0C94472E0E
:104E2000803821F0823809F0C9C108C080912D0373
:104E300090912E03992389F082600FC080913503F1
:104E40008F70873008F0BAC18093E9008091EB0041
:104E500085FB882780F91092E9009091E800977F00
:104E60009093E8008093F1001092F10070C1282F18
:104E70002D7F09F0A3C1882319F0823061F09EC113
:104E800080913303813009F099C1933009F080E0BB
:104E900080932E032EC08091330381112AC080910C
:104EA00035038F702FEF280F263008F087C18093CD
:104EB000E9002091EB0020FF1CC0933021F4809189
:104EC000EB00806214C09091EB0090619093EB0036
:104ED00021E030E0A90102C0440F551F8A95E2F796
:104EE0004093EA001092EA008091EB008860809382
:104EF000EB001092E9008091E800877F8093E80042
:104F00000E94432C5BC1811159C1109133031F775B
:104F10008091E3008078812B8093E3008091E8000A
:104F2000877F8093E8000E94432C8091E80080FFF7
:104F3000FCCF8091E30080688093E300111102C0F0
:104F400082E001C083E080932F0338C18058823013
:104F500008F034C120913303309134032C3D53E0E9
:104F6000350779F583E08A838AE289834FB7F8941D
:104F7000DE01139620E03EE051E2E32FF0E0509393
:104F80005700E49120FF03C0E295EF703F5FEF70A0
:104F90008E2F90E0EA3010F0C79601C0C0968D9336
:104FA0009D932F5F243149F74FBF8091E800877FA1
:104FB0008093E8006AE270E0CE0101960E94972C8F
:104FC000B4C08091350390913603432F5527433069
:104FD0005105A9F068F44130510509F4FEC0423092
:104FE000510509F0EBC08BE590E0E7E1F7E04BC03D
:104FF0004132510529F14232510589F1DFC0C90121
:10500000992781309105A1F058F0029709F0D6C098
:10501000E4E8F7E0E4918E2F90E0E4E8F7E030C0B8
:10502000E8EBF7E0E4918E2F90E0E8EBF7E028C0A2
:10503000E0EAF7E0E4918E2F90E0E0EAF7E020C0AC
:105040008330910508F0BAC0880F991FFC01EA5619
:10505000FE4F0190F081E02D89E090E014C0833094
:10506000910508F0ABC0FC01EE0FFF1FE057FE4FAB
:105070000190F081E02DDC01A357BE4F8C9190E0B0
:10508000009709F49BC02091E800277F2093E80057
:1050900020913703309138032817390708F4C901E4
:1050A00040E0009789F120912F03222309F43DC0AD
:1050B0002530D9F12091E80023FD37C02091E80088
:1050C00022FD2FC02091E80020FFEBCF4091F3009C
:1050D0002091F20030E0342B009759F02830310550
:1050E00040F444914093F100319601972F5F3F4F78
:1050F000F3CF41E02830310509F040E02091E8008D
:105100002E772093E800CDCF4111CDCF0AC08091FA
:105110002F03882351F0853041F08091E80083FD12
:1051200004C08091E80082FFF2CF8091E8008B7785
:105130008093E80043C0803809F040C08091E800C7
:10514000877F8093E800809130038093F100809105
:10515000E8008E77D3CE811131C0809133039091D6
:1051600034039927029754F58091E800877F809354
:10517000E80010913303109330030E94432C111167
:1051800006C08091E30087FD02C081E001C084E099
:1051900080932F0342E061EC81E00E94622C42E2A6
:1051A00061EC84E00E94622C42E261EC82E00E94A9
:1051B000622C42E260EC83E00E94622C8091E80065
:1051C00083FF10C08091E800877F8093E800809182
:1051D000EB0080628093EB0005C082E190E0E2E7A3
:1051E000F7E051CFAA960FB6F894DEBF0FBECDBF41
:1051F000DF91CF911F9108951F920F920FB60F92DA
:1052000011242F933F934F935F936F937F938F93CB
:105210009F93AF93BF93CF93DF93EF93FF93C0918F
:10522000E900CF708091EC00D82FD17080FDD0E8DC
:105230001092E9008091F000877F8093F0007894CD
:105240000E942A261092E9008091F00088608093E5
:10525000F000CD2BCF70C093E900FF91EF91DF916B
:10526000CF91BF91AF919F918F917F916F915F91FE
:105270004F913F912F910F900FBE0F901F90189557
:10528000E8EDF0E080818E7F80831092E200109242
:10529000DA001092E100A0EEB0E08C9181608C9376
:1052A00080818F77808319BCA7EDB0E08C918E7FD1
:1052B0008C9380818F7E8083109222030895CF92F9
:1052C000DF92EF92FF920F931F93CF93DF93C8ED7E
:1052D000D0E088818F7E8883E7EDF0E08081816077
:1052E000808384E082BF81E08093220388818E7F67
:1052F000888302EE10E0F80110821092DA0081EE4D
:10530000C82ED12CF601108288818F7788838881FE
:105310008068888388818F7D888319BC10922F03D1
:105320001092300310922E0310922D0390EEE92E6E
:10533000F12CF70180818B7F808388818160888355
:1053400042E060E080E00E94622CF60180818E7F66
:105350008083F80180818160808380818860808380
:10536000F70180818E7F8083888180618883DF91CF
:10537000CF911F910F91FF90EF90DF90CF90089504
:105380001F920F920FB60F9211242F933F934F93BA
:105390005F936F937F938F939F93AF93BF93EF939D
:1053A000FF938091E10082FF09C08091E20082FFBB
:1053B00005C08091E1008B7F8093E1008091DA004D
:1053C00080FF2AC08091D80080FF26C08091DA003B
:1053D0008E7F8093DA008091D90080FF18C080E131
:1053E00089BD82E189BD09B400FEFDCF81E08093D3
:1053F0002F038091220381110FC00E9440290E9437
:105400005F298091E20084608093E20005C019BCAE
:1054100010922F03109222038091E10080FF17C0A9
:105420008091E20080FF13C08091E2008E7F809324
:10543000E2008091E20080618093E2008091D800D8
:1054400080628093D80019BC85E080932F038091FF
:10545000E10084FF2EC08091E20084FF2AC080E139
:1054600089BD82E189BD09B400FEFDCF8091D800DD
:105470008F7D8093D8008091E1008F7E8093E10042
:105480008091E2008F7E8093E2008091E200816053
:105490008093E20080913003882311F084E007C0FC
:1054A0008091E30087FD02C081E001C083E080932A
:1054B0002F038091E10083FF27C08091E20083FFEA
:1054C00023C08091E100877F8093E10082E0809398
:1054D0002F03109230038091E1008E7F8093E100D2
:1054E0008091E2008E7F8093E2008091E2008061F3
:1054F0008093E20042E060E080E00E94622C8091B4
:10550000F00088608093F000FF91EF91BF91AF9120
:105510009F918F917F916F915F914F913F912F91CB
:105520000F900FBE0F901F9018952091E4003091BE
:10553000E50095E64091EC00842F817040FF23C088
:105540008091E80080FD1DC080912F03882399F091
:10555000853099F08091EB0085FD11C04091E40009
:105560005091E5002417350729F3915011F09A0165
:10557000E1CF84E0089582E0089583E0089581E01A
:10558000089580E008954091E80042FFDDCF08953E
:10559000EF92FF920F931F93CF93DF937C018B01C8
:1055A0000E94952A811119C0E70101151105A1F08A
:1055B0008091E80085FD0AC08091E8008E77809395
:1055C000E8000E94952A882381F307C0899180937F
:1055D000F10001501109E9CF80E0DF91CF911F91D7
:1055E0000F91FF90EF900895882339F090918702F2
:1055F000892B809387020C94591C0895882341F0CD
:105600008095909186028923809386020C94591C80
:105610000895882339F090918602892B8093860221
:105620000C94591C0895882321F00E94521C0C945C
:10563000591C0895882309F463C0823869F40E94D4
:10564000742181FF5DC069E380E292E00E94B61B95
:105650000E94591C69E30EC0833891F40E947421A2
:1056600080FF4EC063E580E292E00E94B61B0E947C
:10567000591C63E580E292E00E94A91B0C94591C1E
:10568000843869F40E94742182FF3AC067E480E2A2
:1056900092E00E94B61B0E94591C67E4EBCF9CEF7E
:1056A000980F913A10F4682FE5CF90E2980F983058
:1056B00088F4877021E030E0A90102C0440F551F33
:1056C0008A95E2F7CA01809590918602892380939A
:1056D0008602D4CF9BE5980F933020F480E090E0D1
:1056E0000C945E2198E5980F973120F480E090E0CB
:1056F0000C944821803F20F00E945D150C943315D6
:105700000895CF93882309F49EC0C82F8238B1F43E
:105710000E94742181FD97C069E380E292E00E94BB
:10572000B61B0E94591C2FEF81EE94E0215080405F
:105730009040E1F700C0000069E317C08338E1F44E
:105740000E94742180FD7FC063E580E292E00E94A8
:10575000B61B0E94591C2FEF81EE94E0215080402F
:105760009040E1F700C0000063E580E292E00E9413
:10577000A91BCF910C94591C8438B1F40E94742158
:1057800082FD61C067E480E292E00E94B61B0E9445
:10579000591C2FEF81EE94E0215080409040E1F7BA
:1057A00000C0000067E4E1CF8CEF8C0F813A80F4F9
:1057B000E2E2F2E088E292E02191C217E1F18E1775
:1057C0009F07D1F76C2F80E292E00E94B61BD1CFE9
:1057D00080E28C0F883068F4C77081E090E001C0EF
:1057E000880FCA95EAF790918602892B80938602EA
:1057F000C0CFEBE5EC0FE33040F4F0E0E456FE4FB1
:10580000808190E0CF910C945E21E8E5EC0FE731C8
:1058100050F4F0E0EE0FFF1FE156FE4F80819181C2
:10582000CF910C944821C03F70F08C2F0E94161627
:10583000CF910C9433156C2F80E292E00E94A91B4B
:105840000E94591CBFCFCF9108951F93CF93DF9330
:10585000182F893319F0C0E0D0E002C0C0E5D0E0D5
:10586000812F0E94812B209741F08FE99FE00197C3
:10587000F1F700C000002197F6CF812FDF91CF9183
:105880001F910C941A2B8091310387FF11C08091D6
:10589000E80082FD05C080912F038111F8CF11C06F
:1058A0008091E8008B770BC080912F03882349F00B
:1058B0008091E80080FFF8CF8091E8008E77809398
:1058C000E8000895982F973068F59093E9009817AD
:1058D00039F07091EC002091ED005091F00003C080
:1058E000242F762F50E021FD02C09F5FECCF309136
:1058F000EB003E7F3093EB003091ED003D7F309325
:10590000ED003091EB0031603093EB007093EC00D0
:105910002093ED005093F0002091EE0027FDE5CF9D
:1059200080E008958F708093E90081E008952091D0
:105930003703309138032617370748F06115710592
:1059400039F42091E8002E772093E80001C0B901D6
:10595000FC0120E06115710579F180912F03882306
:10596000F1F18530F1F18091E80083FD3CC0809138
:10597000E80082FD2EC08091E80080FFEBCF2091EF
:10598000F3008091F20090E0922B6115710551F0C7
:105990008830910538F421912093F100615071090C
:1059A0000196F3CF21E0089709F020E08091E8000C
:1059B0008E778093E800CECF2111CFCF0AC080919F
:1059C0002F03882361F0853061F08091E80083FD2A
:1059D0000AC08091E80082FFF2CF80E0089582E063
:1059E000089583E0089581E008958F929F92AF9289
:1059F000BF92CF92DF92EF92FF92CF93DF93EC01B1
:105A0000688179818A819B81611571058105910584
:105A100021F464E279ED8BE597E02DE133EF41E08D
:105A200050E00E94A22D49015A019B01AC01A7EA56
:105A3000B1E40E94C12D6B017C01ACEEB4EFA50175
:105A400094010E94CF2DDC01CB018C0D9D1DAE1D5C
:105A5000BF1DB7FF03C00197A109B0488883998390
:105A6000AA83BB839F77DF91CF91FF90EF90DF9068
:105A7000CF90BF90AF909F908F9008950E94F52C8B
:105A8000089580E091E00E94F52C0895A0E0B0E038
:105A90008093000190930101A0930201B093030150
:105AA0000895FB01DC0102C005900D924150504069
:105AB000D8F70895F999FECF92BD81BDF89A99273C
:105AC00080B50895A6E1B0E044E050E00C94942D38
:105AD000A8E1B0E042E050E00C94942D262FF99913
