:100000000C94DE030C9425040C9425040C94250414
:100010000C9425040C9425040C9425040C942504BC
:100020000C9425040C9425040C949E280C94DA2737
:100030000C94B31A0C9425040C9425040C942504F8
:100040000C9425040C9425040C9425040C9425048C
:100050000C9425040C94661A0C9425040C94250425
:100060000C9425040C9425040C9425040C9425046C
:100070000C9425040C9425040C9425040C9425045C
:100080000C9425040C9425040C9425040C9425044C
:100090000C9425040C9425040C9425040C9425043C
:1000A0000C9425040C9425040C94250475097809F6
:1000B000A109AE09B509D509D8091A0A3B0AE10A0E
:1000C000E10A460A480A4D0A730A960A990A9C0AE6
:1000D000C00ACE0FCE0F0810081061107D10131249
:1000E00013128810661177117711481C481C5B1C8D
:1000F0005B1C511C5B1C5B1C5B1C481C481C561C7D
:100100005B1C5B1C561CEE251526BC271526BC2740
:1001100061268426BC2779278927020155FFFFFF26
:1001200000000000010155FFFFFF0000000000017A
:1001300055FFFFFF000000002E0124011A010000FE
:100140001E0F0500047F3F1F643214643214783C94
:100150001E1E140A05000000000000000000000040
:10016000000000000000000000000000000000008F
:100170000000000000000000007E0F00D4FFFFFF21
:10018000C70000007800000000000000002A2B28B3
:10019000000000000000000000000000000000005F
:1001A00029000000002C1E3420212224342627257B
:1001B0002E362D3738271E1F2021222324252633B3
:1001C00033362E37381F0405060708090A0B0C0DB5
:1001D0000E0F101112131415161718191A1B1C1DC7
:1001E0002F3130232D350405060708090A0B0C0DA5
:1001F0000E0F101112131415161718191A1B1C1DA7
:100200002F3130354C0001010101010101010102D2
:1002100002020202020202020303030303030303B6
:100220000404040404040405050505050606060681
:1002300006070707070708080808090909090A0A3D
:100240000A0B0B0B0C0C0C0D0D0D0E0E0E0F0F0FE1
:10025000101011111112121313141415151616176C
:1002600017181819191A1A1B1B1C1D1D1E1E1F20DA
:1002700020212222232424252626272829292A2B27
:100280002C2D2D2E2F30313232333435363738394C
:100290003A3B3C3D3E3F4041424344454647484946
:1002A0004A4C4D4E4F50515354555658595A5B5D18
:1002B0005E5F616264656668696B6C6D6F707273B6
:1002C0007577787A7B7D7E8082838587888A8C8E1D
:1002D0008F91939596989A9C9EA0A2A3A5A7A9AB4F
:1002E000ADAFB1B3B5B7BABCBEC0C2C4C6C9CBCD41
:1002F000CFD1D4D6D8DBDDDFE2E4E7E9EBEEF0F3F3
:10030000F5F8FAFDFFFFAA7F55402223252628296C
:100310002A2C2D2F3032333536383A3B3D3E404281
:10032000434547494A4C4E5051535557595A5C5EC4
:100330006062646668696B6D6F71737577797B7DD8
:100340007F81838587898A8C8E90929496989A9CD7
:100350009E9FA1A3A5A7A8AAACAEAFB1B3B4B6B8EF
:10036000B9BBBCBEBFC1C2C3C5C6C7C9CACBCCCD51
:10037000CED0D1D2D2D3D4D5D6D7D7D8D9D9DADA2C
:10038000DBDBDBDCDCDCDCDCDDDDDDDDDCDCDCDCAC
:10039000DCDBDBDBDADAD9D9D8D7D7D6D5D4D3D2E0
:1003A000D2D1D0CECDCCCBCAC9C7C6C5C3C2C1BFBE
:1003B000BEBCBBB9B8B6B4B3B1AFAEACAAA8A7A522
:1003C000A3A19F9E9C9A98969492908E8C8A8987DE
:1003D0008583817F7D7B79777573716F6D6B6968BC
:1003E000666462605E5C5A5957555351504E4C4A90
:1003F0004947454342403E3D3B3A3836353332303B
:100400002F2D2C2A292826252322290014001A0002
:10041000080015001700FB00AA001C0018000C00C3
:10042000120013002D002B00040016000700090025
:100430000A00FC0002510B000D000E000F003300FB
:100440003400E1001D001B000600190005004C00EF
:10045000E30011001000360037003800E50000000E
:100460005601570150684F642C42E00028622A432D
:1004700051425244A9002E00280001000100010051
:100480000100010001000100010001000100010064
:100490000100010001000100010001000100010054
:1004A0000100010001000100010001000100010044
:1004B0000100010001000100010001000100010034
:1004C0000100010001000100010001000100010024
:1004D0000100010001000100010001000100010014
:1004E0000100010001000100010035001E001F0095
:1004F000200021002200010001002300240025002B
:10050000260027002F0001001E021F0220022102E8
:100510002202010001000000210022002300250228
:100520002E020100230224022502260227020100D6
:10053000010027001E001F002000380001000100FC
:100540000100010050094F090100010001000100F4
:100550000100010001003000310001003A003B00C1
:100560003C003D003E000100010000004E00520032
:100570004B000000500939003F004000410042009C
:100580004300010001000000500051004F00000036
:100590000000010000000000000000000000010059
:1005A000010000004A0051004D0000000000010061
:1005B0000100010001000100010001000100010033
:1005C0000100010001004F090000005CC25CCA5C30
:1005D000C95C1B5C1C5C0100010000000000000005
:1005E000000000000000DE5CC35CC85CC75C175CF8
:1005F000185C010000000000000000000000000086
:1006000000000000C45CC65CC55C195C0000000012
:1006100000000000000000000000000000000100D9
:1006200001000100010001000100010001000100C2
:100630000100010001000000000005010902A10104
:1006400085020901A10005091901290815002501E4
:100650009508750181020501093009311581257F51
:1006600095027508810609381581257F9501750861
:100670008106050C0A38021581257F9501750881D0
:1006800006C0C005010980A101850319012AB70030
:10069000150126B700950175108100C0050C0901F0
:1006A000A101850419012AA002150126A0029501C5
:1006B00075108100C00660FF0961A1010962150083
:1006C00026FF009520750881020963150026FF00AA
:1006D000952075089102C005010906A101050719B9
:1006E000E029E7150025019508750181029501753E
:1006F0000881010507190029FF150026FF0095064E
:1007000075088100050819012905950575019102F3
:10071000950175039101C009025B00030100A0FA75
:100720000904000001030101000921110100012257
:1007300040000705810308000A09040100020300C4
:100740000000092111010001222200070582032077
:100750000001070503032000010904020001030052
:100760000000092111010001227B000705840320FC
:10077000000A120110010000000801BB1100010075
:10078000010200011A034500720067006F00740047
:100790006F006E00690063005F00340039000000E4
:1007A0001603480061006E00610063006800690084
:1007B0002D006100700000000403090411241FBE15
:1007C000CFEFDAE0DEBFCDBF04B603FE27C08091D5
:1007D000310390913203A0913303B09134038730F9
:1007E000904BA740B04BD1F41092310310923203DA
:1007F000109233031092340314BE84B7877F84BFF2
:100800000FB6F894A895809160008861809360008D
:10081000109260000FBEE0E0F8E3099511E0A0E05F
:10082000B1E0E8EAFAE502C005900D92A63CB107F6
:10083000D9F723E0A6ECB1E001C01D92A133B207C5
:10084000E1F70E9427040C94522D0C940000CF93E2
:10085000DF93CDB7DEB7AC970FB6F894DEBF0FBE0F
:10086000CDBF84B7877F84BF0FB6F894A8958091D9
:100870006000886180936000109260000FBE90E07D
:1008800080E80FB6F89480936100909361000FBEEA
:1008900085B7806885BF85B7806885BF8BE999E19A
:1008A0009093C7018093C6010E941E280E943D2894
:1008B0008091E20084608093E20078948091230329
:1008C0008823A1F01091E9001F709091EC00892F0E
:1008D000817090FD80E8182B1092E9008091E8006B
:1008E00083FD0E9408251F701093E90082E084BDFB
:1008F00093E095BD9AEF97BD80936E00ADE1B1E0B6
:1009000021E231E0AD0101E010E0FA018191AF0197
:10091000E82FE295EF70F0E061A18F70680102C0EE
:10092000CC0CDD1C8A95E2F7C6019C2D9095962390
:1009300091A392A1892B82A32417350731F761E295
:1009400071E088E291E001E010E0FB014191BF011C
:10095000E42FE295EF70F0E0F1A04F70680102C063
:10096000CC0CDD1C4A95E2F7A6015C2D50955F2169
:1009700051A352A1452B42A38617970731F76FE287
:1009800071E001E010E0FC014191CF01E42FE2951C
:10099000EF70F0E0F1A04F70680102C0CC0CDD1CDC
:1009A0004A95E2F7A6015C2D50955F2151A352A113
:1009B000452B42A36817790731F761E070E08D910C
:1009C000E82FE295EF70F0E041A18F707B0102C04B
:1009D000EE0CFF1C8A95E2F7C7019E2D909594239B
:1009E00091A392A1892B82A32A173B0741F710926A
:1009F000CB011092CA0110920802109207021092C5
:100A0000CD011092CC0110920A02109209021092AC
:100A1000CF011092CE0110920C0210920B02109294
:100A2000D1011092D00110920E0210920D0280E0BE
:100A300090E00E944A2C8A3E9E4F11F00E94141BA7
:100A400082E090E00E943C2C8093F6010E94031B00
:100A50009093C9018093C8010E9444188FE39CE9D8
:100A60000197F1F700C000000E944418809107022E
:100A700080FF17C06FEF83E290E00E94502C6FEF71
:100A800084E290E00E94502C6FEF85E290E00E949B
:100A9000502C6FEF7FEF80E090E00E946E2C0E9460
:100AA000421A83E090E00E943C2C682F70E080E0C6
:100AB00090E00E94231D83E290E00E943C2C813252
:100AC00081F484E290E00E943C2C873051F485E26E
:100AD00090E00E943C2C91E0863009F090E0892F54
:100AE00001C080E080FFB6C58091D201811136C07F
:100AF00080E090E00E944A2C8A3E9E4F21F00E94A6
:100B0000141B0E94321388E090E00E94442C6093F2
:100B100002027093030280930402909305026E7F99
:100B200071F40E94321388E090E00E94442C60939C
:100B300002027093030280930402909305020E94C4
:100B4000EB12109200028091020280FF04C060E06C
:100B500086950E94B41481E08093D20169EE862EBE
:100B600061E0962E42E451E025E431E076EE672E16
:100B700071E0772E61E070E08614970409F44EC0AE
:100B8000F901A1919F018A2F82958F7090E0FC015D
:100B9000F1A0AF70EA2E8B0101C0000FAA95EAF711
:100BA000F02FF095FF22DC019196FC92919792969E
:100BB000AC91A02BFC01A2A3DA01FD90AD01EF2DB9
:100BC000E295EF70F0E0B1A0BF2DBF70FB2E6B017E
:100BD00001C0CC0CBA95EAF7DC2CD094DB20D1A272
:100BE000D2A0CD28C2A2DC0190968C9190E002C0E8
:100BF00095958795EA94E2F78170E0A1F0E002C054
:100C0000F595E795FA94E2F7E0FF02C092E001C0A3
:100C100090E0892BF30181933F01AECF88E391E00F
:100C20009093D4018093D30160E083E20E94B414D6
:100C300084E091E09093D6018093D50180912303C5
:100C4000853009F07EC0FF24F39400E112E1809129
:100C50002303853009F05EC080912303843009F4BA
:100C600043C080E00E94E917109200028091D901F0
:100C7000811116C0F092D90180910202982F9170D3
:100C80009093D8018E7F80930202FFEF20E732E03D
:100C9000F15020403040E1F700C000000E94C42124
:100CA0001092D70188E190E0A0E40FB6F894A895DF
:100CB000809360000FBEA093600083B7817F846043
:100CC00083BF83B7816083BF7894889583B78E7F15
:100CD00083BF0FB6F894A8958091600088618093D7
:100CE0006000109260000FBE80912203882309F4F7
:100CF000AECF0E944418E7E0F2E081919191892BF8
:100D000009F089C45FE0C52E52E0D52ECE16DF066D
:100D1000A1F79DCF0E94661F0E94A0200E94E917A4
:100D20001092D9018091D801882349F08091020264
:100D300081608093020260E086950E94B4140E9454
:100D4000AE210E94441881110E949B1AA7E0B2E0D4
:100D5000E7EFF1E000E010E0702F2D913D918191DF
:100D6000919182279327009779F160E0EE24E39434
:100D7000F12CAC014E215F21452B09F169A37AA327
:100D80002E213F2181E0232B09F480E08BA30E94D8
:100D9000A71A8160782F9DA38CA349A15AA16BA1AA
:100DA0008DA10E94D61F000F111FF801E950FE4FC0
:100DB00080819181E826F926F182E0821AC06F5F76
:100DC000EE0CFF1C6E30A9F60F5F1F4F04301105AB
:100DD00019F68FEF8EA38FA318A60E94A71A816021
:100DE000782F9AA789A74EA15FA168A58AA50E941E
:100DF000D61F80910002882309F4A5C08091FF01CD
:100E0000E0910202E695E81BE093DC01823059F4A0
:100E1000F0E0EF5AFE4FE4910E2F10E032ECE32E9B
:100E20003FE1F32E6BC0863059F4F0E0E25BFE4FF9
:100E3000E4910E2F10E022EBE22E2FE1F22E5EC0A5
:100E4000893061F4E695F0E0E55BFE4FE4910E2F0A
:100E500010E092EAE92E94E2F92E50C08F3061F44E
:100E6000E695F0E0E85BFE4FE4910E2F10E085E39D
:100E7000E82E84E2F82E42C0853159F4F0E0EB5BB5
:100E8000FE4FE4910E2F10E0B7EEEB2EB3E2FB2EF7
:100E900035C08831F9F0833249F4E3E4F1E005919B
:100EA0001491A2E7EA2EAFE1FA2E28C08432C9F0ED
:100EB0008532F1F48E2F63E00E94E72CE92FF0E0F9
:100EC000E05CFE4FE4910E2F10E0F3E8EF2EF2E22B
:100ED000FF2E14C008E210E0EEE5EE2EE3E2FE2E57
:100EE0000DC004EF11E074E2E72E73E2F72E06C0A6
:100EF00000ED17E061E7E62E6FE1F62E8091DD014F
:100F0000882361F01092DD010E94A71A9093DB0103
:100F10008093DA011092DF011092DE010E94A71A7D
:100F2000E091DA01F091DB018E1B9F0B8F3F9F4711
:100F300050F40E0F1F1F1093DB010093DA018AEDAE
:100F400091E0F701099593EEE92E91E0F92E00EE7C
:100F500011E02FE3222E21E0322E36EE432E31E037
:100F6000532E42E4642E41E0742E55E4852E51E068
:100F7000952E5CA64BA6B12CA12CABA5BCA58D9142
:100F8000BCA7ABA7E82FEE0FEE0FD4012D914D01BA
:100F9000A22FA295AF70B0E090968C9190E02F7048
:100FA00002C0959587952A95E2F79C012170332719
:100FB000D3018D913D01A82FA295AF70B0E090961E
:100FC0004C9150E08F7002C0559547958A95E2F795
:100FD000CA018170992740FF02C082E090E0822B15
:100FE000932B8E2BF20181932F01D101CD901D0106
:100FF0008F70E82FF0E0E15DFE4F9081F701808176
:10100000890F8083D12C082E000C990B8C159D051F
:1010100054F0D8018C918F5F8C9360E08A2D0E94F0
:10102000001821E001C020E0F7018081082E000CAB
:10103000990B442755274C195D09481759074CF05F
:10104000D8018C9181508C9361E08A2D0E94001808
:1010500021E0F7018081082E000C990BB6010E9457
:10106000152DD7018D937D01B22AA3940F5F1F4FD9
:10107000B3E0AB1282CFB1100E949B1A86E0EFEE74
:10108000F1E08E010F5F1F4FD80101900D928A95FC
:10109000E1F7C090F101D090F201E090F301F090FF
:1010A000F4011092F1011092F2011092F3011092EA
:1010B000F401C11003C0DD2009F451C08091ED019D
:1010C0009091EE010E948C1A9C019091EC01992361
:1010D00009F4D9C22333310508F441C09F3F19F008
:1010E0009F5F9093EC01CC2061F00E94DF151C14EF
:1010F00014F491E001C09FEF899F802D112480930B
:10110000F101DD2061F00E94DF151D1414F491E05F
:1011100001C09FEF899F802D11248093F2013091AF
:10112000F1013323E1F02091F2012223C1F045EBDC
:101130003403C0011124992319F09093F10103C0E5
:1011400081E08093F10135EB2303C0011124992341
:1011500019F09093F20103C081E08093F201E11055
:1011600003C0FF2009F451C08091EA019091EB0186
:101170000E948C1A9C019091E901992309F488C27C
:101180002536310508F441C09F3F19F09F5F9093C9
:10119000E901EE2061F00E94BD151E1414F491E0E7
:1011A00001C09FEF899F802D11248093F301FF20C0
:1011B00061F00E94BD151F1414F491E001C09FEF6F
:1011C000899F802D11248093F4013091F301332302
:1011D000E1F02091F4012223C1F045EB3403C0017A
:1011E0001124992319F09093F30103C081E08093B7
:1011F000F30135EB2303C0011124992319F09093D7
:10120000F40103C081E08093F4018091F101811128
:101210000BC08091F201811107C08091F30181110F
:1012200003C08091F40181110E941C15CB82DC82E5
:10123000ED82FE8286E0F801AFEEB1E001900D9202
:101240008A95E1F70E94A0209091F501891731F06D
:101250000E94A0208093F5010E94E917809123034A
:10126000843009F0EBCC83E08093E9008091E800C2
:1012700082FFE4CC8091E80085FF21C00E947329A1
:1012800081111BC080E2C82ED12C780109C0809149
:10129000F100D7018D937D01B1E0CB1AD10869F03F
:1012A0008091E80085FDF3CF8091E8008B778093F3
:1012B000E8000E947329882399F391E001C090E02F
:1012C0008091E8008B778093E800992309F4B6CCED
:1012D000E9818E2F90E0FC013197E331F10508F0B0
:1012E00070C1EA5AFF4F0C94292D1A8289E0D3C0AD
:1012F0008A81823009F4A5C1833051F0813009F030
:1013000060C10E949B1A9B838C837D836E835BC12B
:1013100080910702909108029B838C83809109023F
:1013200090910A029D838E8380910B0290910C0212
:101330009F83888780910D0290910E0299878A87FA
:1013400042C18A81823009F03CC16B817C818D81F0
:101350009E810E942F2D86E290E024C04C816B81FB
:101360008A810E9463219D8373C1ED80FE80FE24EB
:10137000EF24FE248C81CB809A81ECE1CE9E60012B
:101380001124F0E79F9FC00CD11C1124C80ED11C62
:10139000C80ED11C6F2DC60187960E94502C6E2D51
:1013A000C60188960E94502C0EC10E942F210BC1AD
:1013B0008A818138B1F050F4803809F004C120E00E
:1013C0004B81609104028091030231C0823859F14F
:1013D000833809F0F8C020E0409105026C818B81D0
:1013E00026C060E08B810E94B4149B818091020230
:1013F000911111C08E7F80930202109200022FEF94
:1014000030E742E0215030404040E1F700C00000AA
:101410000E94C421D8C081608093020260E086955A
:101420000E94B414D0C08B8180930602CCC00E946D
:10143000D713C9C08A81813899F030F4803809F017
:10144000C2C08091050227C0823891F0833809F02C
:10145000BAC0809103028B83809104028C83B3C055
:101460008091020280FF02C0869515C080E013C003
:101470008091060210C06091020270910302809177
:101480000402909105020E94FE129DC080E152C0AC
:1014900081E08A8389EA8B8396C0EA80FB80FE2400
:1014A000EF24FE24AC80B12C6801C701895A9D4FFE
:1014B0009601201B310B2A153B0508F084C0A9EAD0
:1014C000EA16A1E0FA0628F40E943C2CF601848377
:1014D00003C0D60114961C92BFEFEB1AFB0AEFEF84
:1014E000CE1ADE0AE2CFEA80FB80FE24EF24FE243F
:1014F000AC80B12C6801C701895A9D4F9601201B11
:10150000310B2A153B0508F05EC0F9EAEF16F1E051
:10151000FF0628F4D60114966C910E94502CBFEF60
:10152000EB1AFB0AEFEFCE1ADE0AE5CF0E941F216D
:101530004AC085E08A8347C0EA80FB80FE24EF240E
:10154000FE24AC80B12C6801C70187969601201B50
:10155000310B2A153B05B8F5F0E3EF16F2E0FF0674
:1015600030F40E943C2CD60114968C9302C0F601F4
:101570001482FFEFEF1AFF0A2FEFC21AD20AE4CF4C
:10158000EA80FB80FE24EF24FE24AC80B12C6801AD
:10159000C70187969601201B310B2A153B0598F44D
:1015A00030E3E31632E0F30628F4D60114966C918A
:1015B0000E94502CBFEFEB1AFB0AEFEFCE1ADE0AA7
:1015C000E7CF8FEF898380912303843009F036CBF6
:1015D0008091E9008F702091EC00922F917020FD96
:1015E00090E8F92EF82A82E08093E9008091E800E3
:1015F00080FF0CC040E050E060E270E0C8010E9453
:10160000A6298091E8008E778093E8008F2D8F7057
:101610008093E90013CB09BD19BD09B400FEFDCFCD
:101620008091D8008F7D8093D8008091E000826007
:101630008093E0008091E00081FDFCCF0E94661F56
:1016400006CB86E290E00E943C2C1B821C821D820D
:101650008E83B9CF60E086E290E00E94502C0E9419
:101660002F210E941F2161E283E290E00E94502C12
:1016700067E084E290E00E94502C66E085E290E012
:101680000E94502C31CA2D32314008F029CD67CD4F
:101690002D32314008F07ACDB8CD3F924F925F9213
:1016A0006F927F928F929F92AF92BF92CF92DF9272
:1016B000EF92FF920F931F93CF93DF93CDB7DEB7D7
:1016C00029970FB6F894DEBF0FBECDBFFC01808115
:1016D000918123813481232B31F09F3F31F491E0BC
:1016E0008F3F19F403C091E001C090E090FDDAC68D
:1016F0007F0185E0DE01119601900D928A95E1F758
:10170000F701228189819A81222349F00E94E91BF5
:10171000182F682F89819A810E948B1C03C00E9418
:101720005F1C182F69817A81812F0E9489218C0189
:10173000F7018281882309F4F2C0980122513F45C4
:101740002031310508F019C18FEF93E00E943C2C45
:101750008111EFC0025137E5832E32E0932E002332
:1017600079F08114F4E09F0609F4E3C0C4010E94FB
:101770003C2C811101C001501FEF811A910AEFCF5B
:101780001E821F8218861986442443942AE0322E32
:1017900084010F5F1F4FC4010E943C2C8E831F8267
:1017A000882309F4C6C09FEF980F933060F48F83AD
:1017B0004E8222E0820E911CC8010E943C2C888738
:1017C000811102C0B6C048018E010A5F1F4FF801A7
:1017D00020812223E9F2213009F04CC0818181303F
:1017E00049F46801F2E0CF0ED11CF80182810E9419
:1017F000072B0AC0823051F46801F2E0CF0ED11CF1
:10180000F80182810E94632A860186C0833049F4F0
:101810006801F2E0CF0ED11CF80182810E94FC2900
:10182000F3CF843019F00F5F1F4F76C0F80122818B
:101830000E5F1F4F80E090E030E0205331092A30E6
:10184000310568F4389EA001399E500D1124C9015C
:10185000840F951F0F5F1F4FF8012081EDCF009778
:1018600009F45AC0EFE9FFE03197F1F700C000003A
:101870000197F5CFE22FF0E0EB57FE4F5490822F07
:1018800086958695869590E0FC01EB58FE4F649016
:101890002770712C022E02C0759467940A94E2F7A7
:1018A000F1E06F227724FC01EB59FE4FA490B12C9C
:1018B000022E02C0B594A7940A94E2F731E0A32265
:1018C000BB24FC01EB5AFE4FC490D12C02C0D5942E
:1018D000C7942A95E2F781E0C822DD2461147104DF
:1018E00019F081EE0E94632AA114B10419F086EE6A
:1018F0000E94632A852D0E94072BAB2819F086EEE3
:101900000E94FC29672819F081EE0E94FC29CD284D
:1019100019F08CE20E94072B0F5F1F4F58CF003148
:101920003FE5130709F0B5C581E00E94C01C0E9485
:10193000EA2480917802877009F4B4C5F7018281A6
:10194000882309F4AFC582E029960FB6F894DEBF6C
:101950000FBECDBFDF91CF911F910F91FF90EF9000
:10196000DF90CF90BF90AF909F908F907F906F90BF
:101970005F904F903F900C94E51C0031FFE51F07EE
:1019800011F481E005C001312FE5120721F482E056
:101990000E94021DCCCF033FFCE51F0749F406E27D
:1019A00021EE40EE63EF7CE5C7010E94AC20C1CF81
:1019B000043F2CE5120708F049C1083D3CE5130738
:1019C00031F407E225EE45EE68ED7CE5EDCF093D0B
:1019D0009CE5190731F408E221E045EE69ED7CE56C
:1019E000E3CF073DECE51E0731F406E221EE41EEC0
:1019F00067ED7CE5D9CF882309F45DC110920F0211
:101A000002309CE5190708F440C10631ECE51E07D9
:101A100030F0C8018A5F9C45099708F036C10E94E2
:101A2000031B9093C9018093C8010031FCE51F0797
:101A300009F4C3C008F041C008303CE5130709F4BD
:101A40009AC0F0F404309CE5190709F487C068F4E3
:101A50000230FCE51F0709F477C003301C4509F08C
:101A6000E5C08091C801826076C006303CE513076E
:101A700009F46EC008F07BC08091C80188606BC01B
:101A80000C309CE5190709F485C068F40A30FCE5C0
:101A90001F0709F474C008F079C00E94661F809186
:101AA000C801806858C00E303CE5130709F476C0C1
:101AB00008F07FC08091C8018BC00B3F9CE51907DF
:101AC00009F44FC018F50331FCE51F0709F47DC088
:101AD00078F401313CE5130709F473C002311C4569
:101AE00009F0A4C00E94661F8091C8018F7733C09F
:101AF00005319CE5190709F472C008F486C00A3F55
:101B00001C4509F093C08091C9013EC00F3F2CE5F0
:101B1000120709F45FC058F40D3F8CE5180709F46B
:101B200044C008F43FC08091C90182602DC00130DB
:101B3000EDE51E0709F475C008F45DC002301D45CF
:101B400009F074C060E06EC08091C801816003C07C
:101B50008091C80180618093C80168C08091C801EC
:101B600011C08091C90182608093C9015FC08091DA
:101B7000C8018062F0CF8091C8018064ECCF809171
:101B8000C80188608460E7CF8160EECF8091C80192
:101B90008E7FE1CF8091C8018D7FDDCF8091C8011C
:101BA000877FD9CF8091C90118C08091C9018D7FED
:101BB000DBCF8091C8018F7ECECF8091C8018F7D11
:101BC000CACF8091C8018F7BC6CF8091C801877F23
:101BD0008B7FC1CF8091C9018D7F8E7FC5CF8091D2
:101BE000C80182FB222720F991E0922790FB82F91D
:101BF00090FB83F9B0CF8091C901982F9095917097
:101C00008E7F892B90FB81F9AFCF0E94661F809158
:101C1000C80187FB222720F991E0922790FB87F9E2
:101C20009ACF61E08EE090E00E94502C6091C80154
:101C30001091C90184E090E00E94502C612F82E253
:101C400090E00E94502C0E94661F73CE053FFCE579
:101C50001F0731F406E221EE42EE65EF7CE5A4CEEB
:101C6000053F2CE5120730F407E225EE44EE64EF61
:101C70007CE59ACE063F3CE5130709F0BCCE07E2AF
:101C800025EE46EE66EF7CE58FCE80917B02063135
:101C90009CE5190709F58A7A91E009F490E09093A0
:101CA0001002882311F065E301C069E284E192E04B
:101CB0000E94E91A0EC006311C4509F029C1809125
:101CC0001002882309F4ECC365E384E192E00E94EA
:101CD000DC1A0E94851B2DCE82720C3C3CE513075A
:101CE00009F4C4C008F045C0063CECE51E0709F441
:101CF000A9C0D8F4033C2CE5120709F499C030F4CC
:101D0000023C8CE5180709F46EC0D1C0043C9CE588
:101D1000190709F492C0053CECE51E0709F0C7C09D
:101D200042EA54E16BEA74E1A5C0093CFCE51F07F7
:101D300009F492C078F4073C3CE5130709F487C026
:101D4000083C9CE5190709F0B2C046E954E16AE88D
:101D500074E190C00A3CECE51E0709F482C00B3C1C
:101D6000FCE51F0709F0A3C040E153E161E273E124
:101D700081C0013D2CE5120709F488C0A0F40E3C97
:101D80008CE5180709F47CC008F477C00F3CECE53B
:101D90001E0709F478C0003DFCE51F0709F087C065
:101DA0006EE089E081C0043D2CE5120709F474C09F
:101DB00068F4023D8CE5180709F46BC0033D9CE50F
:101DC000190709F074C061E088E16BC0053DECE5DE
:101DD0001E0709F464C00D35FDE51F0709F067C053
:101DE0006AE285E261C08091020280FF1BC08E7FA3
:101DF00080930202609102027091030280910402BA
:101E0000909105020E94FE12109200020FEF10E75F
:101E100022E0015010402040E1F700C000000E9485
:101E2000C42187CD81608093020261E0869539C02C
:101E30004FEE54E168EF74E11DC048EF54E16FEEDE
:101E400074E118C04BEA54E162EA74E113C04AE855
:101E500054E166E974E10EC042E754E16EE774E1D3
:101E600009C04EE754E162E774E104C041E253E186
:101E700060E173E10E94A8215CCD61E081E011C0C6
:101E800065E082E011C068E086E00EC064E18FE0AA
:101E90000BC067E185E108C062E289E105C061E04D
:101EA00083E20E94B41445CD0E94962142CD0A35AA
:101EB0003DE5130741F150F401159CE51907A9F020
:101EC0000E3D1C4529F50E94141B33CD0B35FDE555
:101ED0001F07D9F00C351D45D9F48091C90182FB4B
:101EE000882780F991E0892711C00E94661F3FEF83
:101EF00084E39CE0315080409040E1F700C0000056
:101F00000E94421A16CD81E001C080E00E94CF1BE2
:101F1000F701828100811181882349F0C8010E9464
:101F2000E91BD82E682FC8010E948B1C04C0C80171
:101F30000E945F1CD82EB8018D2D0E945A168C016C
:101F4000982EF701D280A580A2949FE0A9228091CB
:101F50007802877099F0DD2089F0812F807F8034AE
:101F600021F080E2800F883048F082E00E94E51C7A
:101F7000809178028770CC24C3948111C12CB12E3A
:101F8000B2948FE0B8228B2D90E08C30910508F050
:101F90004AC2FC01E759FF4F0C94292D812F807F05
:101FA0001F70882311F01295107FDD20B9F01123E6
:101FB00009F424C280E2800F883010F0911006C02E
:101FC00080917B02182B10937B0205C080917A02CE
:101FD000182B10937A020E94851B10C2802F0E943A
:101FE000FC29112309F41FC2005E1095083010F07F
:101FF000911006C080917B02182310937B0205C0CC
:1020000080917A02182310937A020E94851B0BC2DA
:10201000812F807F1F70803211F01295107F9920E0
:1020200021F0F1E09F1611F130C0DD20B1F0AA20BF
:1020300081F001E0A0120DC08091C90182FDF3C1C1
:1020400080917C02182B181709F4EDC110937C02C3
:10205000EAC180917C02812B10C0AA2021F021E0EE
:10206000A21609F4E0C10E947F1B27C0DD2041F0C9
:1020700035E03A1508F4D7C1812F0E94F229D3C167
:1020800084E08A1508F4CFC118C0DD2049F0AA20E9
:1020900099F3F701858180FFB1C18F708583ECCF03
:1020A000AA2059F0093309F0BBC1FFEF17EE23E076
:1020B000F15010402040E1F7B1C1812F0E94E72983
:1020C000B2C1812F86958695837019F0813059F0C1
:1020D000AAC1DD2019F0C801937002C080E090E031
:1020E0000E948A20A8C1DD2019F0C801937002C0A7
:1020F00080E090E00E9474209EC1802FDD2019F0C6
:102100000E94FF1502C00E9446150E941C1593C133
:10211000812F837009F069C0D11089C1902F9295E9
:1021200096959770990F990F802F8F70882E912C0C
:10213000A12CB12C092E04C0880C991CAA1CBB1C14
:102140000A94D2F704FF12C04FE050E060E070E064
:1021500004C0440F551F661F771F9A95D2F7DB0105
:10216000CA0180959095A095B09503C080E090E05D
:10217000DC0116951695412F4370423019F1C8F4D1
:1021800000917D0210917E0220917F0230918002A9
:10219000413059F088299929AA29BB29BC01CD01D0
:1021A00060237123822393230AC0802A912AA22AC2
:1021B000B32ABC01CD01682979298A299B290E946B
:1021C000231D35C188299929AA29BB2900917D029F
:1021D00010917E0220917F0230918002BC01CD01DE
:1021E0006027712782279327EACFDD2019F0812FFE
:1021F000817001C08695882309F419C1902F9295AA
:1022000096959770990F990F802F8F70882E912C2B
:10221000A12CB12C092E04C0880C991CAA1CBB1C33
:102220000A94D2F704FF12C04FE050E060E070E083
:1022300004C0440F551F661F771F9A95D2F7DB0124
:10224000CA0180959095A095B09503C080E090E07C
:10225000DC0116951695412F43704230D9F068F590
:1022600000912D0310912E0320912F033091300304
:10227000413059F088299929AA29BB29BC01CD01EF
:1022800060237123822393231EC0802A912AA22ACD
:10229000B32A13C088299929AA29BB2900912D03A3
:1022A00010912E0320912F0330913003BC01CD01FA
:1022B000602771278227932706C0BC01CD016829BA
:1022C00079298A299B290E94B61CB1C01F70DD2084
:1022D00039F0812F0E94021D802F0E94F229A7C091
:1022E000802F0E94E729812F0E94C01CA0C0802F50
:1022F00032EF931609F440C0391538F090EF991673
:1023000061F0E1EF9E1699F174C0F3EF9F16D9F1D9
:1023100024EF921609F44EC06CC0DD2019F134E0B0
:102320003A1508F480C01F7181E090E0A0E0B0E0B1
:10233000AC01BD0104C0440F551F661F771F1A95DD
:10234000D2F780912D0390912E03A0912F03B0918D
:1023500030038A019B01082719272A273B27C90137
:10236000B80125C025E02A1508F45DC0DCCFDD20CA
:1023700029F0812F8F7130C0DD20D9F3812F8F712B
:102380000E94C01C50C0DD2079F01F7181E090E0F8
:10239000A0E0B0E0BC01CD0104C0660F771F881F2C
:1023A000991F1A95D2F703C060E070E0CB010E943C
:1023B000B61C39C0DD2099F01F71812F0E94021DCB
:1023C0008091C90182FD07C038E0139FC00111242C
:1023D000836080937802812F0E94021D24C081E0D7
:1023E0000E94E51C81E08A15F0F482E00E94E51C61
:1023F0001AC0DD2039F0AA2009F4BBCF802F0E943B
:10240000632A11C0AA2009F4B9CF893349F49FEF98
:10241000E7EEF3E09150E040F040E1F700C000004B
:10242000802F0E94FC2988EF8B0D843020F40E94BD
:10243000A0200E94E917CC20A9F18091780280FDAC
:1024400031C0F70112828595859585950E94021D00
:10245000C7010E944D0B80917802859585958595E1
:1024600029960FB6F894DEBF0FBECDBFDF91CF9196
:102470001F910F91FF90EF90DF90CF90BF90AF90A2
:102480009F908F907F906F905F904F903F900C94B3
:10249000C01C01319FE5190709F07DCA82E045CAD9
:1024A00069E213CC29960FB6F894DEBF0FBECDBFFC
:1024B000DF91CF911F910F91FF90EF90DF90CF9020
:1024C000BF90AF909F908F907F906F905F904F9054
:1024D0003F9008959091C80192FF0DC0282F287158
:1024E000283019F4877F846006C0282F2471243097
:1024F00011F48B7F886093FF0DC0282F287128313D
:1025000019F4877E846106C0282F2471243111F4C8
:102510008B7E88612091C90120FF0DC0382F387152
:10252000383019F4877F816006C0382F317131301F
:1025300011F48E7F886021FF0DC0282F287128316B
:1025400019F4877E816106C0282F2171213111F491
:102550008E7E886194FD877E08959C013A952115B1
:102560003F4138F5DC01AA27B270AC014427547012
:102570009C012227387094FF0FC090FF02C080E1B9
:1025800001C080E0AB2B09F08062452B09F080642C
:10259000232B69F080680BC0892F8170AB2B09F069
:1025A0008260452B09F08460232B09F08860FB01D1
:1025B000099408959091020290FF0CC0E8E8F2E0BF
:1025C000818360834283339692E0EB3BF907C1F746
:1025D0000C94C421089580910202282F269530E0A2
:1025E0002115310519F48170826005C02B32310547
:1025F00024F081708465809302020895CF92DF9267
:10260000EF92FF926B017C010E94EB12B701A601D1
:1026100088E090E0FF90EF90DF90CF900C94622CD8
:1026200080910602882319F0815080930602609100
:1026300002027091030280910402909105020C94B1
:10264000FE1280910602833018F48F5F8093060299
:102650006091020270910302809104029091050240
:102660000C94FE12E2E0F2E083E0808311828FEFAF
:1026700082838383148260817181828193810C942F
:10268000FE12AF92BF92CF92DF92EF92FF920F9322
:102690001F93CF93DF93E82EF62EE901E42FF0E0AD
:1026A000611106C0EB5FFD4FE4914E2F2E2F71C0DC
:1026B000062F10E0EB5FFD4F4491F42FC42ED12C78
:1026C00026E0829FC00111242FEF30E0B9010E9463
:1026D000012D5BEA5603C001579F900D11248E0D0A
:1026E000911D8E0D911D582F550F580FD901A01B0C
:1026F000B10BAC9DC001AD9D900DBC9D900D112402
:10270000E92FF59ED0011124AB2FBB277901EA1ADE
:10271000FB0AEC9CD001ED9CB00DFC9CB00D11248B
:102720005901A51AB108A09E7001A19EF00CB09E9F
:10273000F00C1124EF2CFF242E193F092C9D800151
:102740002D9D100D3C9D100D1124212F623071051F
:1027500091F048F461157105E1F061307105B9F44B
:10276000242F4B2F16C06430710569F040F066309D
:10277000710579F00CC0242F492FE12F0AC0492F91
:10278000EF2F2B2F06C0292FE42F412F02C0292F16
:10279000EB2F49832883EA83DF91CF911F910F911B
:1027A000FF90EF90DF90CF90BF90AF9008955F9231
:1027B0006F927F928F929F92AF92BF92CF92DF9251
:1027C000EF92FF920F931F93CF93DF9300D01F924E
:1027D000CDB7DEB7182F762E042F622E909102020D
:1027E00090FF6DC0E92FE695AE2FB0E0A65ABE4F20
:1027F0008C918093FF019E7F923061F49E012F5F48
:102800003F4F812F0E9441134B8169818A810E9431
:10281000DA1243C0823019F4009105023EC08630BE
:1028200019F41091030239C08930D9F38931A9F51F
:10283000E9518E2F8170582EE695F0E0EB5FFC4F4A
:10284000A590B49088E8C82E82E0D82EE12CF12C17
:10285000BB2491E1892E912CAE9CC001AF9C900DC0
:10286000BE9C900D1124B4010E94012D812F5110A6
:1028700002C0860F01C0861B9601402F672D0E9463
:1028800041138FEFE81AF80A83E0C80ED11C81E1EA
:10289000E816F10409F70E94C42110930302709214
:1028A000040200930502662051F0609102027091CB
:1028B000030280910402909105020E94FE120F9083
:1028C0000F900F90DF91CF911F910F91FF90EF909C
:1028D000DF90CF90BF90AF909F908F907F906F9040
:1028E0005F900895E2E0F2E0438128E0421B08F4A3
:1028F00040E021E0628181810C94D713E2E0F2E0B4
:10290000438128E0420F08F44FEF21E0628181818A
:102910000C94D713E2E0F2E0628128E0621B08F435
:1029200060E021E0438181810C94D713E2E0F2E082
:10293000628128E0620F08F46FEF21E0438181811A
:102940000C94D713E2E0F2E0818121E043816281BF
:1029500088500C94D713E2E0F2E0818121E04381BA
:102960006281885F0C94D7139091020290FF36C069
:102970009170811102C0926006C08B3210F0946594
:1029800002C0880F982B90930202662351F0609149
:1029900002027091030280910402909105020E944C
:1029A000FE1260910202669570E04BE050E08EE00E
:1029B00091E00E94452D892B19F01092000202C06F
:1029C0000E94AE2181E08093DD0120E0409105026C
:1029D00060910402809103020C94D71308958091B2
:1029E00002028695815009F48AE261E00C94B414E5
:1029F0008091020286958F5F8B3208F081E061E062
:102A00000C94B414CF93DF9300D01F92CDB7DEB7F0
:102A10009091020290FF0AC09E012F5F3F4F0E94DB
:102A200041134B8169818A810E94DA120F900F90C5
:102A30000F90DF91CF9108950E94A71A2091F10184
:102A4000211104C02091F201222321F09093EE0184
:102A50008093ED012091F301211104C02091F40134
:102A6000222321F09093EB018093EA01E091D501BC
:102A7000F091D601309749F082E08093EF01048015
:102A8000F581E02D8FEE91E009940895803F39F4AF
:102A90009091F20197FF35C01092F20159C0813F29
:102AA00029F49091F2011916BCF32BC09091F10119
:102AB000823F29F497FF25C01092F10149C0833F5E
:102AC00019F41916CCF31DC09091F301893F29F434
:102AD0001916BCF41092F3013BC08A3F19F497FF1A
:102AE00010C0F8CF8B3F39F49091F40197FF09C0E3
:102AF0001092F4012DC08C3F21F49091F40119162D
:102B0000BCF39CE0980F953080F421E030E0A901FF
:102B100002C0440F551F9A95E2F7CA018095909123
:102B2000F00189238093F00113C08D3F21F480913F
:102B30001C028E7F0BC08E3F21F480911C028D7F82
:102B400005C08F3F29F480911C028B7F80931C026B
:102B50008091F101811106C08091F201811102C0C2
:102B60001092EC018091F301811106C08091F40173
:102B7000811102C01092E901089580911C0280FD2C
:102B800016C081FD16C082FD18C08091E90188231E
:102B900091F0883290F428E0829FC001112468E20D
:102BA00070E00E94152D862F672B29F007C082E068
:102BB000089584E0089581E0089588E00895809163
:102BC0001C0280FD14C081FD14C082FD16C08091DE
:102BD000EC01882381F0843180F422E3829FC001DC
:102BE000112464E170E00E94152D862F08958CE079
:102BF000089589E1089585E0089582E30895803F6E
:102C000021F40E94DF15819504C0813F29F40E94C0
:102C1000DF158093F2010895823F21F40E94DF15B1
:102C2000819504C0833F29F40E94DF158093F10150
:102C30000895893F19F40E94BD1505C08A3F31F4FB
:102C40000E94BD1581958093F30108958B3F21F477
:102C50000E94BD15819504C08C3F29F40E94BD15CA
:102C60008093F40108959CE0980F953078F421E06A
:102C700030E0A90102C0440F551F9A95E2F7CA013E
:102C80009091F001892B8093F00108958D3F21F4FC
:102C900080911C0281600BC08E3F21F480911C0248
:102CA000826005C08F3F29F480911C02846080936C
:102CB0001C020895CF93DF930E948921EC01823892
:102CC000910559F1A0F48133910509F473C040F4E2
:102CD0008932910509F467C08A9709F472C084C0EB
:102CE0008533910509F458C0C997B9F07DC0833E7A
:102CF000910571F138F4803E9105B1F0823E910565
:102D000011F172C0863E9105B9F1873E9105C9F176
:102D1000843E910509F068C024C08091C80180FDFF
:102D20005DC081FD5BC060C08091C80180FD50C066
:102D30008091C90180FF49C18091C80184FD43C1D0
:102D4000C3EED0E042C18091C80182FF3EC1F4CF02
:102D50008091C80182FD3FC08091C90180FD3EC0C5
:102D6000EBCF8091C90181FF30C18091C80184FD02
:102D70002AC1C7EED0E029C18091C80183FF25C1D7
:102D8000F4CF8091C80183FD2CC08091C90181FFDF
:102D9000ECCFC4EED0E019C18091C80185FF15C108
:102DA000C9E2D0E012C18091C80185FF0EC1C5E320
:102DB000D0E00BC18091C80186FF07C1CAE2D0E014
:102DC00004C18091C80186FF00C1C1E3D0E0FDC00D
:102DD000C9E3D0E0FAC0C2EED0E0F7C0C0EED0E068
:102DE000F4C0C6EED0E0F1C0C11581E5D80708F007
:102DF00066C0C11520E5D207E0F0CE0174E09695DB
:102E000087957A95E1F783709C2F937021E030E0ED
:102E100002C0220F331F9A95E2F73C68382BCF701F
:102E2000C695C69540E2C49FE0011124C22BD32B66
:102E3000CCC0C83ED10560F5C03ED10508F0C5C084
:102E4000C83AD105B0F4C53AD10540F0C55AD0E032
:102E5000CC56DE4FC881D0E0D064B7C0C130D105B8
:102E600009F4B3C008F4AFC0C430D10508F4ABC056
:102E7000ACC0CF3BD10508F0A6C0C85AD0E0CC0FFB
:102E8000DD1FC956DE4F0990D881C02DD4649DC086
:102E9000C11540E2D40758F4C11581E0D80708F005
:102EA00094C0C03FD10508F48EC0D0658EC0C11556
:102EB00020E4D20708F487C0DF70D06A86C0C1154D
:102EC00045E5D40708F042C0C11584E5D80728F0CD
:102ED000DC2FCC27C46FD06A78C0C11523E5D20798
:102EE000B0F0CE018370992721E030E002C0220FBC
:102EF000331F8A95E2F78C2F8695869540E2849F52
:102F0000C0011124E901C82BD92BDA685EC0C115B4
:102F100042E5D40728F4DC2FCC27C16FD06A55C016
:102F2000CE018370992721E030E002C0220F331FC9
:102F30008A95E2F78C2F8695869540E2849FC001A2
:102F40001124E901C82BD92BDC683FC0C11589E5E4
:102F5000D807B8F4C11528E5D20728F0DC2FCC2714
:102F6000C06FD06A32C0C11546E5D40760F58C2F1A
:102F70000E946A128F71C82FD0E0DC2FCC27D0625C
:102F800024C0C1158AE5D80780F48C2F8F700E9469
:102F90006A1294E0D695C7959A95E1F7CF70D0E084
:102FA000DC2FCC27D069C82B10C0CE0190568115DC
:102FB000904248F48D2F8F710E946A12DD27D062F3
:102FC0008F71D82B02C0C0E0D0E0CE01DF91CF914D
:102FD00008950E94A020682F617080E00E94CC2498
:102FE0000E94A02081FB662760F981E00E94CC242A
:102FF0000E94A02082FB662760F982E00C94CC241A
:103000000F931F93CF93DF9390E0FC01EE0FFF1F10
:10301000E80FF91FE60FF11DEE0FFF1FE85BFE4FF3
:10302000C081D1818D2F9C2F0E94E91B6D2F7C2F99
:103030000E948921EC018C01005E11090830110504
:1030400010F0892B19F462EF79E202C06DED79E29C
:10305000CE010E94AD128C2F0E94632A8C2F0E94F9
:10306000FC290830110510F0209719F467EE79E279
:1030700002C062ED79E2CE010E94AD1280E0DF91E4
:10308000CF911F910F9108952F923F924F925F928F
:103090006F927F928F929F92AF92BF92CF92DF9268
:1030A000EF92FF920F931F93CF93DF9300D000D046
:1030B000CDB7DEB732EDA32E31E0B32EAAECB1E0EE
:1030C0006DE171E0198241E050E04D016D907C901E
:1030D0001197FB018191BF01E82FE295EF702E2E31
:1030E000312CF10191A18F706A0101C0CC0C8A953D
:1030F000EAF7892F8C2981A382A15C2C5094852129
:1031000082A3F0EAFA95F1F701E211E080E090E0A5
:10311000F801F1908F012F2D22952F7030E0F901E9
:1031200020A130E0FF2DFF7002C035952795FA955C
:10313000E2F7ED90FC90119720FF0CC09A01082E49
:1031400002C0220F331F0A94E2F7209530952E21FA
:103150003F2109C09A01082E02C0220F331F0A9492
:10316000E2F72E293F2911963C932E930196873042
:10317000910571F6F10121A1522251A222A1C22A88
:10318000C2A2129621E0F4010081118106151705F3
:1031900009F420E0F981F22BF983AA16BB0609F0A5
:1031A00094CF68E271E001E010E0DB012D91BD01F8
:1031B000E22FE295EF70F0E031A12F70480101C0DD
:1031C000880C2A95EAF7232F282921A322A1382C3D
:1031D0003094232122A3B0EABA95F1F77801082EA2
:1031E00002C0EE0CFF1C0A94E2F7270140945094B1
:1031F0002AEC31E03C832B832DE1C22E21E0D22E3C
:10320000212C6B807C80D3012D913C91D6014D9176
:103210006D014A8342954F7050E0DA0190964C91CF
:1032200050E0BA81BF7002C055954795BA95E2F754
:1032300040FD05C0A9014E295F29D30105C0A901A0
:1032400044215521AB81BC814D935C934B815C81C2
:103250004E5F5F4F5C834B83D3014D915C9124178C
:10326000350711F0222423942B813C81A216B3064A
:1032700041F621A1322231A222A1822A82A23981E1
:103280003229398301968E30910509F08ECF332390
:1032900049F081E0809313020E94A71A90931202D2
:1032A0008093110280911302882351F180911102C1
:1032B000909112020E948C1A069710F18091CA0117
:1032C0009091CB0190930802809307028091CC01EA
:1032D0009091CD0190930A02809309028091CE01D2
:1032E0009091CF0190930C0280930B028091D001BA
:1032F0009091D10190930E0280930D0210921302CF
:1033000089810F900F900F900F90DF91CF911F91B7
:103310000F91FF90EF90DF90CF90BF90AF909F9074
:103320008F907F906F905F904F903F902F90089577
:1033300080911803089580E008952091540290919F
:10334000230256E02917A9F030E0529FF001539F65
:10335000F00D1124EC5DFD4F7181761306C0708174
:10336000781303C07281741306C02F5F3F4F27701C
:10337000E9CF80E0089581E00895CF93DF9300D0F6
:103380001F92CDB7DEB790912303943011F5898356
:103390007B836A839093E9008FEF9091E8008150DE
:1033A00095FD06C095ED9A95F1F700008111F5CFD6
:1033B0008091E80085FF0DC040E050E063E070E0E0
:1033C000CE0101960E94A6298091E8008E77809315
:1033D000E8000F900F900F90DF91CF910895BC01FE
:1033E00084E00C94BD19BC0183E00C94BD1924E069
:1033F0002093E9002FEF3091E800215035FD06C001
:1034000035ED3A95F1F700002111F5CF2091E80054
:1034100025FF0BC040E050E066E070E00E94A62966
:103420008091E8008E778093E8000895CF93DF9332
:1034300021E02093E9002FEF3091E800215035FD85
:1034400006C035ED3A95F1F700002111F5CF209136
:10345000E80025FF14C0EC0140E050E068E070E0B7
:103460000E94A6298091E8008E778093E80088E08A
:10347000FE01A9E1B3E001900D928A95E1F7DF9199
:10348000CF91089581E08093E00080E28093D8009E
:103490001092C9008FE19EE40197F1F700C000008F
:1034A00087E090EBDC018093310390933203A0938B
:1034B0003303B09334039CE088E10FB6F894A895E9
:1034C000809360000FBE90936000FFCF78941F92AE
:1034D0000F920FB60F9211248F939F93AF93BF93C8
:1034E0008091810290918202A0918302B091840226
:1034F0000196A11DB11D8093810290938202A09339
:103500008302B0938402BF91AF919F918F910F90EE
:103510000FBE0F901F9018959C014FB7F8948091A3
:10352000810290918202A0918302B09184024FBFE8
:10353000821B930B08952FB7F894609181027091CC
:10354000820280918302909184022FBF08952FB749
:10355000F8948091810290918202A0918302B091AF
:1035600084022FBF08951F920F920FB60F9211245D
:103570008F939F93AF93BF938091D701811113C015
:103580008091810290918202A0918302B091840285
:103590004196A11DB11D8093810290938202A09358
:1035A0008302B0938402BF91AF919F918F910F904E
:1035B0000FBE0F901F9018959C012A5F3F4FFC0192
:1035C0004281461301C01282019682179307B9F710
:1035D00008959C01FC0132969FEF80E041914617CF
:1035E00089F09F3F19F4411101C0982F8F5F8630F9
:1035F000A9F79F3F39F0F901E90FF11D97FDFA9501
:10360000628308950895CF9384E090E00E943C2C5B
:10361000C82F82E290E00E943C2C2C2F30E0A901C0
:10362000582BCA01CF9108956AEE7EEF80E090E0BA
:103630000E946E2C60E082E090E00E94502C60E0DE
:1036400083E090E00E94502C10927D0210927E0246
:1036500010927F021092800260E084E090E00E946D
:10366000502C60E082E290E00E94502C60E085E007
:1036700090E00E94502C60E086E090E00E94502C88
:103680006FEF87E090E00E94502C40E050E0BA01DC
:1036900088E090E00E94622C60E08DE090E00E9463
:1036A000502C40E050E0BA0188E190E00E94622C8A
:1036B00060E087E190E00E94502C40E050E0BA01C9
:1036C0008CE190E00E94622C60E070E080E290E08B
:1036D0000E946E2C40E050E0BA0188E190E00E9428
:1036E000622C40E050E0BA018FE090E00E94622C32
:1036F00040E050E0BA0183E190E00C94622C8091AC
:103700007C02811110927C02089590917B0280913D
:103710007A02892B20917902982F922B9093140290
:1037200080917C02882389F0892B80931402E6E142
:10373000F2E097E080E0915029F021912223D9F323
:103740008F5FF9CF81110E947F1BE091D501F0912D
:10375000D601309731F00280F381E02D84E192E0D0
:103760000994089580E090E00E948A2080E090E033
:103770000E94742010927A02109279020E94851B96
:10378000EFEEF1E086E0DF011D928A95E9F71092F5
:10379000EC011092E90110921C020C941C15CF93BD
:1037A000C091C901C2FB992790F9981781F080FB5D
:1037B000C2F9C093C9016091C80184E090E00E9401
:1037C000502C6C2F82E290E0CF910C94502CCF9132
:1037D0000895BF92CF92DF92EF92FF920F931F93C3
:1037E000CF93DF938C01C0902D03D0902E03E090F7
:1037F0002F03F090300380917D0290917E02A09182
:103800007F02B0918002C82AD92AEA2AFB2ACFE196
:10381000D0E0D701C6010C2E04C0B695A7959795A8
:1038200087950A94D2F780FD04C0219790F7B12CB8
:1038300007C0BC2EB8018C2F0E945A160197A9F31D
:103840008B2DDF91CF911F910F91FF90EF90DF9023
:10385000CF90BF900895CF93DF93EC010E94E91BB6
:10386000BE010E945A16DF91CF9108950E942B1C31
:10387000292F2F70E92FE295EF704E2F50E0FA01BB
:103880003297EE30F105B8F4EB58FF4F0C94292D28
:10389000803F99F018F4883E70F40FC0843F59F4CB
:1038A0000CC0883E50F0813F31F407C0822F8695CE
:1038B00086958695089580E0089581E008952EE02C
:1038C000929F800D1124682F669566956695982FB6
:1038D000977085E0689FB001112440E050E080E0DF
:1038E000FB01E40FF51FEB5AFD4F208130E0092E5C
:1038F00002C0369527950A94E2F721703327042EEB
:1039000001C0220F0A94EAF7822B4F5F5F4F4530C8
:10391000510531F708952EE0929F800D1124E82F74
:10392000E695E695E695877051E001C0550F8A95BA
:10393000EAF785E0E89FF0011124EB5AFD4F20E003
:1039400030E070E04081CB01022E02C09695879551
:103950000A94E2F7817081958427852384278193D7
:103960002F5F3F4F2530310569F7089560932D0390
:1039700070932E0380932F03909330030C94B21B0B
:103980000F931F9341E050E060E070E004C0440FEB
:10399000551F661F771F8A95D2F740955095609501
:1039A000709580912D0390912E03A0912F03B091DB
:1039B00030038A019B01082319232A233B23C901D1
:1039C000B8011F910F910C94B61C2091780280953C
:1039D000822380937802982F977041F430E0482F2B
:1039E000082E000C550B2417350721F49091C901BE
:1039F00092FF07C08595859585950E94C01C109201
:103A0000780208950F931F9341E050E060E070E06A
:103A100004C0440F551F661F771F8A95D2F7809107
:103A20002D0390912E03A0912F03B09130038A01B2
:103A30009B01082B192B2A2B3B2BC901B8011F9185
:103A40000F910C94B61C60937D0270937E0280935C
:103A50007F02909380020C94B21B8091540290914B
:103A60002302891719F08F5F8770FBCF08950F939A
:103A70001F93CF93DF938091220282958F7009F07C
:103A80005DC080911F02882309F458C080915402C0
:103A90001091230260911D0270911E02C0912002BC
:103AA000D091210291E06F3F09F090E0292F06E0CC
:103AB000811709F443C0209721F07F3F21F030E0C7
:103AC00003C031E001C0322F90E030FD34C0089FC8
:103AD000F001099FF00D1124DF01AC5DBD4F11967F
:103AE0003C911197371327C03C91361324C012968E
:103AF0003C91129731111FC013964D915C91149710
:103B00004C1B5D0B483C5105B0F4809122028F7034
:103B1000806180932202E75DFD4F80818F7080611C
:103B200080838DE192E00E944D0BDF91CF911F9138
:103B30000F910C942D1D01968770BACFDF91CF9114
:103B40001F910F9108958F929F92AF92BF92CF9243
:103B5000DF92EF92FF920F931F93CF93DF93CDB736
:103B6000DEB761970FB6F894DEBF0FBECDBF8C01F4
:103B700085E0F801DE011D9601900D928A95E1F72E
:103B8000D801DC901196EC9011971296CC90909100
:103B90001D0220911E0240912002509121024115E8
:103BA000510531F02F3F31F481E09F3F19F403C0FC
:103BB00081E001C080E080FD58C1F801A380B4809D
:103BC0008DE1882E82E0982EF0901F02B501641BD3
:103BD000750BFF2009F403C180912202382F307F3A
:103BE000683C710508F0CDC0311188C02E1112C09B
:103BF0009D1110C0FC2CC1100DC08F70806180938E
:103C00002202C4010E944D0B80912202D801159618
:103C10008C9348C1A114B10439F0BFEFEB1206C078
:103C200081E0DB1203C003C081E001C080E080FDC1
:103C300003C081E08C2502C080E090E080FF10C0CE
:103C40004C2D6E2D8D2D0E949D19882349F08DE1FC
:103C500092E00E944D0BEDE1F2E086E0DF0199C0B9
:103C6000AB2839F0BFEFEB1206C081E0DB1203C0D6
:103C700003C081E001C080E080FD03C081E08C25AD
:103C800002C080E090E0E82FE170BE2E80FF2CC0E3
:103C90004C2D6E2D8D2D0E949D19F82E811124C062
:103CA000DD86EE868D859E850E942B1C292F229510
:103CB0002F70223018F0243090F405C09F7059F016
:103CC000811109C0EFC09F7031F0D80115969C9109
:103CD000907F09F4E7C0805E883008F4E3C0C80133
:103CE0000E944D0BFB2CDEC0FC2CCC2009F4DAC06A
:103CF000809122028160809322024EC02E1106C064
:103D00009D1104C0C11002C0F8018BC0DD86EE8693
:103D10008D859E850E94361C882369F1CC2059F13F
:103D200020912202822F82958F7090E0029774F08A
:103D300080911D0290911E0298878F831986BB8601
:103D4000AA862C87CE0107960E944D0B86E0F801CB
:103D5000ADE1B2E001900D928A95E1F70E94371D26
:103D60000DC02E15D9F0DD86EE868D859E850E94CC
:103D7000361C81111DC0C8010E944D0BFF24F39415
:103D800091C03111EECF8DE192E00E944D0B86E0A3
:103D9000D4011D928A95E9F7F12C84C09D11E3CFDF
:103DA000C110E1CFF8018583C8010E944D0B57C0B7
:103DB000CC2009F320912202822F82958F7090E00F
:103DC000029724F280911D0290911E029A838983AA
:103DD0001B82BD82AC822E83CE010196B5CF683C9A
:103DE0007105E8F5FC2CCC2031F22E1127C09D1175
:103DF00025C02091220220FD18C0822F82958F704D
:103E0000482F50E04115510581F0F80125834F30CE
:103E1000510541F08F5F982F9295907F822F8F7080
:103E2000892B8583C8010E944D0B86E0F801ADE126
:103E3000B2E001900D928A95E1F734C0DD86EE86FE
:103E40008D859E850E94361C811180CF8091220233
:103E5000816080932202C8010E944D0B23C086E03E
:103E6000D4011D928A95E9F71DC0CC2009F483CFB7
:103E7000DD86EE868D859E850E94361CF82E882371
:103E800009F479CF86E0F801ADE1B2E001900D923E
:103E90008A95E1F780911D0290911E020E942B1CD1
:103EA0000E94371D8F2D61960FB6F894DEBF0FBEAE
:103EB000CDBFDF91CF911F910F91FF90EF90DF90D9
:103EC000CF90BF90AF909F908F90089510927B02FB
:103ED00086E0E6E1F2E0DF011D928A95E9F70C94B5
:103EE000B21B08950F931F93CF93DF9300D01F92BF
:103EF000CDB7DEB78C018091870281110AC09E0187
:103F00002F5F3F4F4FEF6FEF0E9441138A818093E5
:103F10008702F8018481813051F028F0823061F409
:103F2000409187020AC08091870240E007C06091FB
:103F3000870240E080E003C040E080E060E00E9453
:103F4000DA12F801848190E0019663E070E00E944B
:103F5000152D84830F900F900F90DF91CF911F91BB
:103F60000F910895CF93DF93EC01E2E0F2E04381FB
:103F700062818C810E9402158C818F5F8C83DF911E
:103F8000CF910895CF93DF93EC01EC81F0E0E65FF1
:103F9000FC4F4491E2E0F2E0628181810E940215CF
:103FA0008C818F5F8C83DF91CF9108951F93CF9386
:103FB000DF93CDB7DEB767970FB6F894DEBF0FBEBD
:103FC000CDBF342F4B8B252F5C8B6D8B7E8B8F8BD6
:103FD0004E895F89611110927A0286E0FE013D965A
:103FE000DF01982F1D929A95E9F73D872E876F87FD
:103FF000598B488BDE01179601900D928A95E1F757
:10400000CE0107960E94A31D81113EC086E0FE01ED
:104010003796DE01119601900D928A95E1F7FF81A6
:10402000E8856A857B856115710531F0EF3F31F4D4
:1040300081E0FF3F19F403C081E001C080E080FD12
:1040400023C02091230230E0C9010196877099278F
:104050004091540250E08417950779F1F983EA837F
:104060007D836C8396E0929FD001939FB00D1124C5
:10407000AC5DBD4FFE01319601900D929A95E1F72E
:10408000809323020E942D1D16E08091540290918E
:1040900023028917F9F0189FC00111248C5D9D4FF0
:1040A0000E94A31D8823B1F08091540290E00196F4
:1040B0008770992780935402E8CF0E94661F109260
:1040C000230210925402EDE1F2E086E0DF011D923E
:1040D0008A95E9F767960FB6F894DEBF0FBECDBF9D
:1040E000DF91CF911F910895209114033091150312
:1040F0002817390771F09093150380931403E0910A
:10410000D501F091D601309721F00084F185E02DA2
:104110000994089520911203309113032817390749
:1041200071F09093130380931203E091D501F09105
:10413000D601309721F00680F781E02D099408958B
:10414000E091D501F091D601309721F00190F081F6
:10415000E02D099480E008950F931F93CF93DF9390
:10416000C42FD22FFC0182818823C9F040930F0213
:104170000E94A71A909311038093100380E28C0F82
:10418000883008F057C0C77081E001C0880FCA9519
:10419000EAF7DF91CF911F910F910C94F229809152
:1041A0000F02481330C080911003909111030E94B8
:1041B0008C1A883C910538F510E21D0FCD17B9F027
:1041C00080E28C0F883040F4C77081E001C0880F16
:1041D000CA95EAF70E94E729183028F581E09D2F5B
:1041E000977001C0880F9A95EAF70E94F229802FF4
:1041F0000E94072B1830F0F4D77081E001C0880FBF
:10420000DA95EAF70AC080E28C0F883098F4C7701C
:1042100081E001C0880FCA95EAF7DF91CF911F9125
:104220000F910C94E729802FDF91CF911F910F916F
:104230000C94072BDF91CF911F910F910895CF938D
:10424000DF93C7E5D2E060E0CE010E94502C2196BA
:10425000C11584E0D807B9F7DF91CF910895CF92C7
:10426000DF92EF92FF920F931F93CF93DF93C0E003
:10427000D0E08E0100591F4F6E018CE1C80ED11C99
:10428000FE01E65FFB4FE590F4906F2DCE0187961F
:104290000E94502C6E2DCE0188960E94502C2296A2
:1042A000CC15DD0569F70C171D0731F7E801003360
:1042B0001240F9F6DF91CF911F910F91FF90EF908F
:1042C000DF90CF9008950F931F93CF93DF93C42F68
:1042D000D0E0CC0FDD1F2CE1629FC00DD11D112459
:1042E00030E7839FC00DD11D1124CE0187960E9417
:1042F0003C2C082F10E0102F0027CE0188960E943A
:104300003C2C9801282BC901DF91CF911F910F916F
:104310000895462F853038F4743028F46E3018F440
:10432000672F0C94632180E090E008959091020241
:1043300090FF04C09695981740F003C0811105C006
:1043400090E0961710F40C94F81461E00C94B414F7
:10435000882311F0FA0101C0FB0109946091020267
:10436000669570E04BE050E08EE091E00E94452DB4
:10437000892B19F481E0809300020E94A71A909380
:10438000DB018093DA0108956F927F928F929F9262
:10439000AF92BF92CF92DF92EF92FF920F931F9353
:1043A000CF93DF9300D000D01F92CDB7DEB78091BE
:1043B0000202982F917080FF08C08090D3019090E6
:1043C000D4018114910469F424C0E8E8F2E02BEBF5
:1043D00032E011821082128233962E173F07C9F7FE
:1043E000ECCF9923B1F0A12CB12C66246394712CED
:1043F00020910102C3010A2C01C0880F0A94EAF738
:10440000822309F444C0F401C590D490C114D104AE
:1044100069F4539A8BB1877F9BB198602FB7F8945A
:10442000E8E8F2E040C035E0C30ED11C45E050E0C2
:10443000B601CE0101960E94332C09810F3F39F15C
:1044400010E08A819801280F311DC9012231310500
:1044500014F081E190E07C01EE0CFF1C8E0D9F1D9D
:104460009C0128573D4F7901C801880F991F080FFB
:10447000191F08571D4F0E151F05A8F698014D81ED
:104480006C818B810E9441130D5F1F4FF4CF82E03E
:10449000880E911C9FEFA91AB90A28E0A216B10450
:1044A00009F0A6CFB6CF32E0EB3BF30789F03191AC
:1044B00048E09BB9000000C037FF8BB9330F000004
:1044C00000C000C000C08BB900C04A9591F7EBCF87
:1044D0002FBF8FE594E00197F1F700C000000F9027
:1044E0000F900F900F900F90DF91CF911F910F9130
:1044F000FF90EF90DF90CF90BF90AF909F908F9004
:104500007F906F9008959F92AF92BF92CF92DF926B
:10451000EF92FF920F931F93CF93DF93FC01A28042
:10452000948081E08483EAE0F3E0B490E9E8F3E08A
:10453000E491CBEBD2E0F8E8EF2EF2E0FF2ECC24B2
:10454000CA94D12CEB190E2F10E022E02A1530F07E
:10455000809103028883809104028983911003C0B3
:104560001B821A8255C08B818823F9F081508B837E
:104570002FEF829FC00111246C8170E00E94012DF9
:10458000FB01FF27E65FFC4F8491E82FEB192FEF2B
:10459000E29FC0011124B8010E94012D8091050203
:1045A000689FB00111247A8333C00E94232C20918C
:1045B00005022695215830E0A901440F551F322FDE
:1045C0002227240F351F232F33278217930704F543
:1045D00082E08A1588F40E94232CB6010E94152DD2
:1045E00088830E94232C209104022695622F70E07C
:1045F0000E94152D280F29831A828091050284318B
:1046000020F0893C18F088EC01C084E18C838B8316
:1046100097014A81698188810E944113259623E090
:10462000E20EF11C83E0C031D80709F08ECFDF9194
:10463000CF911F910F91FF90EF90DF90CF90BF909F
:10464000AF909F900C94C421EF92FF920F931F9311
:10465000CF93DF938C01C8E8D2E0E12CF12CF80174
:104660008481F8E0EF16F1041CF4882339F002C0CD
:10467000811104C09E014091050202C09E0140E0EC
:1046800060910402809103020E9441138FEFE81AA7
:10469000F80A239691E1E916F10409F70E94C42172
:1046A000F801848190E00196817099278483DF91DD
:1046B000CF911F910F91FF90EF9008958F929F924D
:1046C000AF92BF92CF92DF92EF92FF920F931F9320
:1046D000CF93DF93EC014C81042F10E09801D801B7
:1046E0000E94D82C9B01AC010E94A32C6B017C0181
:1046F000E0E2F0E0E01BF10BA5E5B0E09B01AC01CE
:104700000E94A32C4B015C019F01DF010E94362D0A
:104710009B01AC010E94AE2C9B01AC012C0D3D1DF8
:104720004E1D5F1DC501B4010E94B62C822FF22ED2
:1047300099E2921728F093E0299F900111240DC06F
:1047400025E530E0281B3109C901880F991F280F82
:10475000391F37FF02C02F5F3F4F35952795122F26
:10476000109598E8C92E92E0D92E00E085E5E82E54
:10477000EF1801FD02C08E2D01C08F2D9601412F33
:10478000609104020E9441130F5F83E0C80ED11CA8
:10479000013179F70E94C4218C81811102C091E01E
:1047A00003C0803219F49FEF90931B0190911B017D
:1047B000890F8C83DF91CF911F910F91FF90EF9024
:1047C000DF90CF90BF90AF909F908F9008950F9300
:1047D0001F93CF93DF93C8E8D2E0FE0111821082CD
:1047E0001282339682E0EB3BF807C1F700E010E05D
:1047F00080918602082E000C990B0817190794F077
:1048000080911A01082E000C990B8017910754F023
:104810009E014091050260910402809103020E9472
:10482000411303C0198218821A820F5F1F4F23960B
:1048300001311105E9F60E94C4218091190190917E
:104840008602980F9093860220911A01280F2093D8
:104850001A01121614F490311CF0819580931901FD
:10486000DF91CF911F910F910895BF92CF92DF9268
:10487000EF92FF920F931F93CF93DF93FC018281FE
:1048800080FF03C0DD24DA9402C0DD24D39408E85D
:1048900012E0C0E0D0E021E1B22EF80111821082D6
:1048A000128294E0E92EF12CC12C809185028C0DAE
:1048B00082312CF06B2D0E94F32C892F02C087FDD2
:1048C0008F5E082E000C990BC817D90791F48091C0
:1048D00005028E9DA0018F9D500D11245595479581
:1048E00055954795980160910402809103020E94BA
:1048F0004113CD0CF1E0EF1AF108B9F621960D5FE6
:104900001F4FC131D10549F60E94C4218091850213
:1049100091E0D91206C0811102C080E107C0815028
:1049200005C090E00196BE010E94152D809385027E
:10493000DF91CF911F910F91FF90EF90DF90CF907B
:10494000BF900895EF92FF921F93CF93DF93EC01F6
:1049500088E8E82E82E0F82E10E08C8197014091E3
:10496000050260910402810F0E944113115F83E0F0
:10497000E80EF11C1F3F89F70E94C4219A818C81A7
:1049800090FF02C08F5F01C081508C83DF91CF9177
:104990001F91FF90EF90089521E030E0A90102C03F
:1049A000440F551F8A95E2F7CA0120910102662340
:1049B00011F0822B02C080958223809301028091A6
:1049C0000002811106C08091020260E086950C947D
:1049D000B41408950F931F9380912D0390912E038B
:1049E000A0912F03B09130038C019D010670112717
:1049F00022273327BC01CD010630110521053105E1
:104A000011F4686001C0677F1F910F910C94B61C70
:104A10001F93CF93DF93CDB7DEB7AA970FB6F89465
:104A2000DEBF0FBECDBFE5E2F3E08091F1008193E0
:104A300043E0ED32F407C9F780912603833009F48F
:104A400062C030F4813071F0823009F49CC0B3C090
:104A50008A3009F488C08B3009F46DC0893009F0C0
:104A6000AAC020C080912503813A09F0A4C080919A
:104A7000E800877F8093E8008091290390912A03C2
:104A8000892B21F468E089E193E003C060E080E0D5
:104A900090E070E00E94792B8091E8008B77809302
:104AA000E80089C080912503813209F084C080919B
:104AB000290390912A03009719F0029709F07BC00F
:104AC0008091E800877F8093E8008091E80082FD74
:104AD00005C0809123038111F8CF6DC02091F300B0
:104AE0008091F20090E0922B029729F48091F100DE
:104AF0008B7F813021F48091F100809318038091A5
:104B0000E8008B7754C080912503813A09F053C0A7
:104B10008091290390912A03892B09F04CC0809140
:104B2000E800877F8093E8008091E80080FFFCCF59
:104B300080911C0137C0809125038132E1F580917D
:104B4000290390912A03892BB1F58091E800877F92
:104B50008093E8000E94252B8091270380931C01FD
:104B60000E94661F28C080912503813221F5809123
:104B7000E800877F8093E8000E94252B809128031E
:104B80008093170318C080912503813AA1F4809186
:104B9000E800877F8093E8008091E80080FFFCCFE9
:104BA000809117038093F1008091E8008E778093C5
:104BB000E8000E94252B8091E80083FFDDC18091F1
:104BC000250390912603492F50E04A30510508F003
:104BD000D3C1FA01ED57FF4F0C94292D803821F0F5
:104BE000823809F0C9C108C0809121039091220345
:104BF000992389F082600FC0809129038F708730DC
:104C000008F0BAC18093E9008091EB0085FB88270A
:104C100080F91092E9009091E800977F9093E80066
:104C20008093F1001092F10070C1282F2D7F09F0C0
:104C3000A3C1882319F0823061F09EC180912703BF
:104C4000813009F099C1933009F080E0809322030C
:104C50002EC08091270381112AC0809129038F7073
:104C60002FEF280F263008F087C18093E9002091AC
:104C7000EB0020FF1CC0933021F48091EB00806298
:104C800014C09091EB0090619093EB0021E030E034
:104C9000A90102C0440F551F8A95E2F74093EA002C
:104CA0001092EA008091EB0088608093EB001092F4
:104CB000E9008091E800877F8093E8000E94252B1F
:104CC0005BC1811159C1109127031F778091E300C7
:104CD0008078812B8093E3008091E800877F809328
:104CE000E8000E94252B8091E80080FFFCCF809196
:104CF000E30080688093E300111102C082E001C0EC
:104D000083E08093230338C18058823008F034C197
:104D100020912703309128032C3D53E0350779F586
:104D200083E08A838AE289834FB7F894DE01139681
:104D300020E03EE051E2E32FF0E050935700E49191
:104D400020FF03C0E295EF703F5FEF708E2F90E081
:104D5000EA3010F0C79601C0C0968D939D932F5FE7
:104D6000243149F74FBF8091E800877F8093E800A6
:104D70006AE270E0CE0101960E94792BB4C0809166
:104D8000290390912A03432F552743305105A9F059
:104D900068F44130510509F4FEC04230510509F074
:104DA000EBC08BE590E0E7E1F7E04BC04132510505
:104DB00029F14232510589F1DFC0C90199278130BB
:104DC0009105A1F058F0029709F0D6C0E4E8F7E0A9
:104DD000E4918E2F90E0E4E8F7E030C0E8EBF7E0F4
:104DE000E4918E2F90E0E8EBF7E028C0E0EAF7E0EE
:104DF000E4918E2F90E0E0EAF7E020C08330910547
:104E000008F0BAC0880F991FFC01E257FE4F0190CD
:104E1000F081E02D89E090E014C08330910508F026
:104E2000ABC0FC01EE0FFF1FE857FE4F0190F08171
:104E3000E02DDC01AB57BE4F8C9190E0009709F458
:104E40009BC02091E800277F2093E80020912B034E
:104E500030912C032817390708F4C90140E0009766
:104E600089F120912303222309F43DC02530D9F193
:104E70002091E80023FD37C02091E80022FD2FC0DB
:104E80002091E80020FFEBCF4091F3002091F20049
:104E900030E0342B009759F02830310540F444912C
:104EA0004093F100319601972F5F3F4FF3CF41E0E0
:104EB0002830310509F040E02091E8002E7720935A
:104EC000E800CDCF4111CDCF0AC0809123038823C4
:104ED00051F0853041F08091E80083FD04C080915D
:104EE000E80082FFF2CF8091E8008B778093E800A2
:104EF00043C0803809F040C08091E800877F8093EC
:104F0000E800809124038093F1008091E8008E777F
:104F1000D3CE811131C08091270390912803992726
:104F2000029754F58091E800877F8093E800109104
:104F30002703109324030E94252B111106C0809192
:104F4000E30087FD02C081E001C084E08093230379
:104F500042E061EC81E00E94442B42E261EC84E09B
:104F60000E94442B42E261EC82E00E94442B42E228
:104F700060EC83E00E94442B8091E80083FF10C026
:104F80008091E800877F8093E8008091EB00806249
:104F90008093EB0005C082E190E0E2E7F7E051CFBB
:104FA000AA960FB6F894DEBF0FBECDBFDF91CF91AA
:104FB0001F9108951F920F920FB60F9211242F93F5
:104FC0003F934F935F936F937F938F939F93AF9391
:104FD000BF93CF93DF93EF93FF93C091E900CF701E
:104FE0008091EC00D82FD17080FDD0E81092E900BC
:104FF0008091F000877F8093F00078940E940825CC
:105000001092E9008091F00088608093F000CD2B31
:10501000CF70C093E900FF91EF91DF91CF91BF91E5
:10502000AF919F918F917F916F915F914F913F9140
:105030002F910F900FBE0F901F901895E8EDF0E0A4
:1050400080818E7F80831092E2001092DA001092AD
:10505000E100A0EEB0E08C9181608C9380818F772D
:10506000808319BCA7EDB0E08C918E7F8C938081FA
:105070008F7E8083109216030895CF92DF92EF9275
:10508000FF920F931F93CF93DF93C8EDD0E08881F9
:105090008F7E8883E7EDF0E080818160808384E00B
:1050A00082BF81E08093160388818E7F888302EE21
:1050B00010E0F80110821092DA0081EEC82ED12C97
:1050C000F601108288818F77888388818068888341
:1050D00088818F7D888319BC10922303109224034A
:1050E000109222031092210390EEE92EF12CF70189
:1050F00080818B7F808388818160888342E060E04B
:1051000080E00E94442BF60180818E7F8083F8012D
:10511000808181608083808188608083F7018081C5
:105120008E7F8083888180618883DF91CF911F91FA
:105130000F91FF90EF90DF90CF9008951F920F9204
:105140000FB60F9211242F933F934F935F936F935A
:105150007F938F939F93AF93BF93EF93FF93809130
:10516000E10082FF09C08091E20082FF05C08091CA
:10517000E1008B7F8093E1008091DA0080FF2AC0FC
:105180008091D80080FF26C08091DA008E7F8093C6
:10519000DA008091D90080FF18C080E189BD82E1EA
:1051A00089BD09B400FEFDCF81E080932303809187
:1051B000160381110FC00E941E280E943D28809175
:1051C000E20084608093E20005C019BC10922303C2
:1051D000109216038091E10080FF17C08091E200D9
:1051E00080FF13C08091E2008E7F8093E200809167
:1051F000E20080618093E2008091D8008062809319
:10520000D80019BC85E0809323038091E10084FFDE
:105210002EC08091E20084FF2AC080E189BD82E136
:1052200089BD09B400FEFDCF8091D8008F7D8093A9
:10523000D8008091E1008F7E8093E1008091E200B0
:105240008F7E8093E2008091E20081608093E20093
:1052500080912403882311F084E007C08091E3004B
:1052600087FD02C081E001C083E080932303809129
:10527000E10083FF27C08091E20083FF23C080917B
:10528000E100877F8093E10082E080932303109206
:1052900024038091E1008E7F8093E1008091E20001
:1052A0008E7F8093E2008091E20080618093E20033
:1052B00042E060E080E00E94442B8091F000886032
:1052C0008093F000FF91EF91BF91AF919F918F91EB
:1052D0007F916F915F914F913F912F910F900FBEF2
:1052E0000F901F9018952091E4003091E50095E60D
:1052F0004091EC00842F817040FF23C08091E80032
:1053000080FD1DC080912303882399F0853099F09A
:105310008091EB0085FD11C04091E4005091E500C3
:105320002417350729F3915011F09A01E1CF84E059
:10533000089582E0089583E0089581E0089580E073
:1053400008954091E80042FFDDCF0895EF92FF926B
:105350000F931F93CF93DF937C018B010E947329DE
:10536000811119C0E70101151105A1F08091E80034
:1053700085FD0AC08091E8008E778093E8000E9446
:105380007329882381F307C089918093F10001502C
:105390001109E9CF80E0DF91CF911F910F91FF902C
:1053A000EF900895882341F0809590917A028923A7
:1053B00080937A020C94851B0895882339F090918C
:1053C0007A02892B80937A020C94851B0895882396
:1053D00041F0809590917B02892380937B020C940D
:1053E000851B0895882339F090917B02892B809347
:1053F0007B020C94851B0895882309F463C08238CE
:1054000069F40E94A02081FF5DC069E384E192E01D
:105410000E94E91A0E94851B69E30EC0833891F44B
:105420000E94A02080FF4EC063E584E192E00E94CC
:10543000E91A0E94851B63E584E192E00E94DC1A70
:105440000C94851B843869F40E94A02082FF3AC026
:1054500067E484E192E00E94E91A0E94851B67E4F8
:10546000EBCF9CEF980F913A10F4682FE5CF90E2C4
:10547000980F983088F4877021E030E0A90102C0CD
:10548000440F551F8A95E2F7CA01809590917B02DF
:10549000892380937B02D4CF9BE5980F933020F42F
:1054A00080E090E00C948A2098E5980F973120F4E2
:1054B00080E090E00C947420803F20F00E9446151C
:1054C0000C941C150895CF93882309F49EC0C82F0F
:1054D0008238B1F40E94A02081FD97C069E384E185
:1054E00092E00E94E91A0E94851B2FEF81EE94E062
:1054F000215080409040E1F700C0000069E317C0F0
:105500008338E1F40E94A02080FD7FC063E584E140
:1055100092E00E94E91A0E94851B2FEF81EE94E031
:10552000215080409040E1F700C0000063E584E135
:1055300092E00E94DC1ACF910C94851B8438B1F460
:105540000E94A02082FD61C067E484E192E00E9495
:10555000E91A0E94851B2FEF81EE94E021508040D4
:105560009040E1F700C0000067E4E1CF8CEF8C0FC2
:10557000813A80F4E6E1F2E08CE192E02191C217F9
:10558000E1F18E179F07D1F76C2F84E192E00E9422
:10559000E91AD1CF80E28C0F883068F4C77081E0BF
:1055A00090E001C0880FCA95EAF790917B02892BA1
:1055B00080937B02C0CFEBE5EC0FE33040F4F0E0EA
:1055C000EC56FE4F808190E0CF910C948A20E8E564
:1055D000EC0FE73150F4F0E0EE0FFF1FE956FE4FFD
:1055E00080819181CF910C947420C03F70F08C2FFA
:1055F0000E94FF15CF910C941C156C2F84E192E052
:105600000E94DC1A0E94851BBFCFCF9108951F9383
:10561000CF93DF93182F893319F0C0E0D0E002C098
:10562000C0E5D0E0812F0E94632A209741F08FE9E6
:105630009FE00197F1F700C000002197F6CF812F7E
:10564000DF91CF911F910C94FC298091250387FF56
:1056500011C08091E80082FD05C080912303811173
:10566000F8CF11C08091E8008B770BC080912303A5
:10567000882349F08091E80080FFF8CF8091E8000E
:105680008E778093E8000895982F973068F590936F
:10569000E900981739F07091EC002091ED005091DD
:1056A000F00003C0242F762F50E021FD02C09F5F41
:1056B000ECCF3091EB003E7F3093EB003091ED006A
:1056C0003D7F3093ED003091EB0031603093EB0083
:1056D0007093EC002093ED005093F0002091EE00C9
:1056E00027FDE5CF80E008958F708093E90081E089
:1056F000089520912B0330912C032617370748F08B
:105700006115710539F42091E8002E772093E800A7
:1057100001C0B901FC0120E06115710579F18091AA
:1057200023038823F1F18530F1F18091E80083FDB6
:105730003CC08091E80082FD2EC08091E80080FF8F
:10574000EBCF2091F3008091F20090E0922B611555
:10575000710551F08830910538F421912093F100C2
:10576000615071090196F3CF21E0089709F020E01C
:105770008091E8008E778093E800CECF2111CFCFC3
:105780000AC080912303882361F0853061F0809105
:10579000E80083FD0AC08091E80082FFF2CF80E03C
:1057A000089582E0089583E0089581E008958F923E
:1057B0009F92AF92BF92CF92DF92EF92FF92CF93E0
:1057C000DF93EC01688179818A819B816115710584
:1057D0008105910521F464E279ED8BE597E02DE1F7
:1057E00033EF41E050E00E94842C49015A019B01B3
:1057F000AC01A7EAB1E40E94A32C6B017C01ACEEE2
:10580000B4EFA50194010E94B12CDC01CB018C0DF9
:105810009D1DAE1DBF1DB7FF03C00197A109B04874
:1058200088839983AA83BB839F77DF91CF91FF9071
:10583000EF90DF90CF90BF90AF909F908F900895A2
:105840000E94D72B089580E091E00E94D72B089505
:10585000A0E0B0E08093000190930101A0930201C9
:10586000B09303010895FB01DC0102C005900D9285
:1058700041505040D8F70895F999FECF92BD81BDAF
:10588000F89A992780B50895A6E1B0E044E050E089
:105890000C94762CA8E1B0E042E050E00C94762C19
:1058A000262FF999FECF92BD81BDF89A019700B4D9
:1058B000021639F01FBA20BD0FB6F894FA9AF99A79
:1058C0000FBE08950396272F0E94512C0E94502C42
:1058D000252F0E94512C242F0C94512C0196272FF8
:1058E0000E94512C0C94502CDC01CB01FC01F99945
:1058F000FECF06C0F2BDE1BDF89A319600B40D921C
:1059000041505040B8F70895052E97FB1EF40094BF
:105910000E949B2C57FD07D00E94B62C07FC03D099
:105920004EF40C949B2C50954095309521953F4F0B
:105930004F4F5F4F089590958095709561957F4F7B
:105940008F4F9F4F08950E94D82CA59F900DB49F14
:10595000900DA49F800D911D11240895B7FF0C9404
:10596000A32C0E94A32C821B930B0895A1E21A2E54
:10597000AA1BBB1BFD010DC0AA1FBB1FEE1FFF1FF3
:10598000A217B307E407F50720F0A21BB30BE40B43
:10599000F50B661F771F881F991F1A9469F760958A
:1059A0007095809590959B01AC01BD01CF01089544
:1059B000A29FB001B39FC001A39F700D811D112450
:1059C000911DB29F700D811D1124911D0895991B89
:1059D00079E004C0991F961708F0961B881F7A95E6
:1059E000C9F78095089587FB082E062687FD8195C7
:1059F00067FD61950E94E72C0EF4919507FC819557
:105A00000895AA1BBB1B51E107C0AA1FBB1FA61705
:105A1000B70710F0A61BB70B881F991F5A95A9F757
:105A200080959095BC01CD01089597FB072E16F443
:105A3000009407D077FD09D00E94012D07FC05D006
:105A40003EF4909581959F4F0895709561957F4F95
:105A50000895EE0FFF1F0590F491E02D099469273A
:105A60009627692778278727782708950E94D82CBA
:105A7000332312F48A1B9B0B0C94402D0E94D82CCC
:105A8000B7FF0895821B930B0895FC0141505040CD
:105A900030F001900616D1F73197CF01089588278D
:085AA00099270895F894FFCF47
:105AA800010000009819161AF719F319EF190119CE
:105AB8001A1B1C1D1E1F20212201020101F4F5F6EC
:105AC800F79190946697C6349190946697C634007F
