:100000000C94DD030C9424040C9424040C94240418
:100010000C9424040C9424040C9424040C942404C0
:100020000C9424040C9424040C94C1150C94FD1419
:100030000C941B1E0C9424040C9424040C9424048F
:100040000C9424040C9424040C9424040C94240490
:100050000C9424040C9496170C9424040C942404FB
:100060000C9424040C9424040C9424040C94240470
:100070000C9424040C9424040C9424040C94240460
:100080000C9424040C9424040C9424040C94240450
:100090000C9424040C9424040C9424040C94240440
:1000A0000C9424040C9424040C9424043E09410967
:1000B0006A0977097E099E09A109E309040AAA0AC7
:1000C000AA0A0F0A110A160A3C0A5F0A620A650A9E
:1000D000890A680F680FA10FA10FFB0F19102311D8
:1000E000231124109810A910A91011133813DF142C
:1000F0003813DF148413A713DF149C14AC14C42921
:10010000C429D729D729CD29D729D729D729C4291F
:10011000C429D229D729D729D229020155FFFFFFA7
:1001200000000000010155FFFFFF0000000000017A
:1001300055FFFFFF000000002E0124011A010000FE
:1001400000047F3F1F643214643214783C1E1E1476
:100150000A0505010902A10185020901A10005099D
:10016000190129081500250195087501810205016D
:10017000093009311581257F9502750881060938F6
:100180001581257F950175088106050C0A38021531
:1001900081257F950175088106C0C005010980A1F0
:1001A00001850319012AB700150126B700950175CD
:1001B000108100C0050C0901A101850419012AA0C4
:1001C00002150126A002950175108100C00660FF8E
:1001D0000961A1010962150026FF009520750881BB
:1001E000020963150026FF00952075089102C005DD
:1001F000010906A101050719E029E7150025019568
:10020000087501810295017508810105071900290A
:10021000FF150026FF0095067508810005081901E5
:100220002905950575019102950175039101C00994
:10023000025B00030100A0FA0904000001030101B0
:100240000009211101000122400007058103080077
:100250000A09040100020300000009211101000144
:100260002222000705820320000107050303200066
:10027000010904020001030000000921110100012D
:10028000227B000705840320000A120100020000FF
:10029000000801BB11000100010200011A03450022
:1002A000720067006F0074006F006E0069006300E9
:1002B0005F003400390000001603480061006E0042
:1002C00061006300680069002D006100700000009B
:1002D000040309042223252628292A2C2D2F303215
:1002E000333536383A3B3D3E4042434547494A4C18
:1002F0004E5051535557595A5C5E60626466686946
:100300006B6D6F71737577797B7D7F81838587894D
:100310008A8C8E90929496989A9C9E9FA1A3A5A752
:10032000A8AAACAEAFB1B3B4B6B8B9BBBCBEBFC17E
:10033000C2C3C5C6C7C9CACBCCCDCED0D1D2D2D309
:10034000D4D5D6D7D7D8D9D9DADADBDBDBDCDCDC1D
:10035000DCDCDDDDDDDDDCDCDCDCDCDBDBDBDADAE0
:10036000D9D9D8D7D7D6D5D4D3D2D2D1D0CECDCC57
:10037000CBCAC9C7C6C5C3C2C1BFBEBCBBB9B8B66C
:10038000B4B3B1AFAEACAAA8A7A5A3A19F9E9C9AF7
:1003900098969492908E8C8A89878583817F7D7BC5
:1003A00079777573716F6D6B6968666462605E5CA6
:1003B0005A5957555351504E4C4A4947454342406C
:1003C0003E3D3B3A3836353332302F2D2C2A292802
:1003D00026252322290014001A0008001500170002
:1003E000FB00AA001C0018000C00120013002D00D6
:1003F0002B0004001600070009000A00FC0002514F
:100400000B000D000E000F0033003400E1001D0052
:100410001B000600190005004C00E300110010004D
:10042000360037003800E5000000560157015068DB
:100430004F642C42E00028622A4351425244A900F2
:100440002E00280001000100010001000100010050
:100450000100010001000100010001000100010094
:100460000100010001000100010001000100010084
:100470000100010001000100010001000100010074
:100480000100010001000100010001000100010064
:100490000100010001000100010001000100010054
:1004A0000100010001000100010001000100010044
:1004B0000100010035001E001F0020002100220065
:1004C00001000100230024002500260027002F0042
:1004D00001001E021F02200221022202010001006F
:1004E000000021002200230025022E020100230229
:1004F00024022502260227020100010027001E0017
:100500001F00200038000100010001000100500917
:100510004F0901000100010001000100010001007C
:100520003000310001003A003B003C003D003E003D
:100530000100010000004E0052004B000000500975
:1005400039003F004000410042004300010001002B
:100550000000500051004F000000000001000000AA
:1005600000000000000000000100010000004A003F
:1005700051004D00000000000100010001000100D9
:100580000100010001000100010001000100010063
:100590004F090000005CC25CCA5CC95C1B5C1C5C4F
:1005A0000100010000000000000000000000000049
:1005B000DE5CC35CC85CC75C175C185C01000000B3
:1005C0000000000000000000000000000000C45C0B
:1005D000C65CC55C195C0000000000000000000063
:1005E0000000000000000000010001000100010007
:1005F00001000100010001000100010001000100F3
:1006000000000000000101010101010101010202DD
:1006100002020202020202030303030303030304B0
:10062000040404040404050505050506060606067B
:10063000070707070708080808090909090A0A0A35
:100640000B0B0B0C0C0C0D0D0D0E0E0E0F0F0F10D7
:100650001011111112121313141415151616171761
:10066000181819191A1A1B1B1C1D1D1E1E1F2020CD
:10067000212222232424252626272829292A2B2C17
:100680002D2D2E2F30313232333435363738393A3A
:100690003B3C3D3E3F404142434445464748494A32
:1006A0004C4D4E4F50515354555658595A5B5D5E00
:1006B0005F616264656668696B6C6D6F707273759B
:1006C00077787A7B7D7E8082838587888A8C8E8FFF
:1006D00091939596989A9C9EA0A2A3A5A7A9ABAD2D
:1006E000AFB1B3B5B7BABCBEC0C2C4C6C9CBCDCF1B
:1006F000D1D4D6D8DBDDDFE2E4E7E9EBEEF0F3F5C9
:10070000F8FAFDFFFFAA7F5540000000000000003E
:1007100000000000000000000000000000000000D9
:10072000000000000000000000000000007E0F003C
:10073000D4FFFFFFC70000007800000000000000A9
:10074000002A2B280000000000000000000000002C
:100750000000000029000000002C1E34202122246B
:10076000342627252E362D3738271E1F20212223F9
:100770002425263333362E37381F0405060708098B
:100780000A0B0C0D0E0F1011121314151617181951
:100790001A1B1C1D2F3130232D35040506070809AF
:1007A0000A0B0C0D0E0F1011121314151617181931
:1007B0001A1B1C1D2F3130354C0011241FBECFEFEA
:1007C000DAE0DEBFCDBF04B603FE27C08091CD02C4
:1007D0009091CE02A091CF02B091D0028730904B81
:1007E000A740B04BD1F41092CD021092CE021092DD
:1007F000CF021092D00214BE84B7877F84BF0FB699
:10080000F894A895809160008861809360001092B0
:1008100060000FBEE0E0F8E3099511E0A0E0B1E070
:10082000E8E9FEE502C005900D92A43CB107D9F7B6
:1008300022E0A4ECB1E001C01D92AD3CB207E1F7AB
:100840000E9426040C944A2F0C940000CF93DF934F
:10085000CDB7DEB7AC970FB6F894DEBF0FBECDBFF5
:1008600084B7877F84BF0FB6F894A8958091600005
:10087000886180936000109260000FBE90E080E875
:100880000FB6F89480936100909361000FBE85B716
:10089000806885BF85B7806885BF83EE97E19093B8
:1008A000C5018093C4010E9441150E94601580918A
:1008B000E20084608093E2007894809103028823B0
:1008C000A1F01091E9001F709091EC00892F8170C8
:1008D00090FD80E8182B1092E9008091E80083FDDC
:1008E0000E942B121F701093E90082E084BD93E0F8
:1008F00095BD9AEF97BD80936E000E9408208111EC
:1009000002C00E94F91FACE1B1E020E231E0AD018C
:1009100001E010E0FA018191AF01E82FE295EF705C
:10092000F0E061A18F70680102C0CC0CDD1C8A95DB
:10093000E2F7C6019C2D9095962391A392A1892B55
:1009400082A32417350731F760E271E087E291E076
:1009500001E010E0FB014191BF01E42FE295EF704F
:10096000F0E0F1A04F70680102C0CC0CDD1C4A958C
:10097000E2F7A6015C2D50955F2151A352A1452BB2
:1009800042A38617970731F76EE271E001E010E0AD
:10099000FC014191CF01E42FE295EF70F0E0F1A06E
:1009A0004F70680102C0CC0CDD1C4A95E2F7A6012D
:1009B0005C2D50955F2151A352A1452B42A368178E
:1009C000790731F761E070E08D91E82FE295EF70E3
:1009D000F0E041A18F707B0102C0EE0CFF1C8A95F4
:1009E000E2F7C7019E2D9095942391A392A1892BA4
:1009F00082A32A173B0741F71092C9011092C80140
:100A00001092E7011092E6011092CB011092CA01F8
:100A10001092E9011092E8011092CD011092CC01E0
:100A20001092EB011092EA011092CF011092CE01C8
:100A30001092ED011092EC010E94F319811102C095
:100A40000E94FE1982E090E00E945B2B8093DD0102
:100A50000E94E2199093C7018093C6010E9440282A
:100A60008FE39CE90197F1F700C000000E94402845
:100A70008091E60180FF08C06FEF7FEF80E090E09B
:100A80000E948D2B0E94721783E090E00E945B2BE6
:100A90000E94B21D8091D001811133C00E94F319D0
:100AA000811104C00E94FE190E942C2388E090E06E
:100AB0000E94632B6093A9027093AA028093AB02F9
:100AC0009093AC026E7F71F40E942C2388E090E03A
:100AD0000E94632B6093A9027093AA028093AB02D9
:100AE0009093AC020E94E522109271028091A902BB
:100AF00080FF04C060E086950E94AE2481E0809370
:100B0000D0016CED862E61E0962E41E451E024E4A4
:100B100031E079ED672E71E0772E61E070E08614A8
:100B2000970409F44EC0F901A1919F018A2F829583
:100B30008F7090E0FC01F1A0AF70EA2E8B0101C034
:100B4000000FAA95EAF7F02FF095FF22DC019196AD
:100B5000FC9291979296AC91A02BFC01A2A3DA0192
:100B6000FD90AD01EF2DE295EF70F0E0B1A0BF2D4B
:100B7000BF70FB2E6B0101C0CC0CBA95EAF7DC2CE0
:100B8000D094DB20D1A2D2A0CD28C2A2DC019096C5
:100B90008C9190E002C095958795EA94E2F7817078
:100BA000E0A1F0E002C0F595E795FA94E2F7E0FFE6
:100BB00002C092E001C090E0892BF30181933F01D4
:100BC000AECF88E391E0909369028093680260E081
:100BD00089E00E94AE2480911B018E7F80931B01CF
:100BE00082E00E946E1A80E091E09093B9028093B7
:100BF000B80280910302853009F07EC0FF24F3948F
:100C000000E112E180910302853009F05EC080911D
:100C10000302843009F443C080E00E942927109227
:100C200071028091D201811116C0F092D20180919F
:100C3000A902982F91709093D1018E7F8093A90281
:100C4000FFEF20E732E0F15020403040E1F700C0F4
:100C500000000E944F201092BC0288E190E0A0E4C6
:100C60000FB6F894A895809360000FBEA093600023
:100C700083B7817F846083BF83B7816083BF7894AB
:100C8000889583B78E7F83BF0FB6F894A89580911F
:100C90006000886180936000109260000FBE8091B8
:100CA0000202882309F4AECF0E944028E6EEF1E06C
:100CB00081919191892B09F077C45EEEC52E51E0A8
:100CC000D52ECE16DF06A1F79DCF0E94F8290E94EF
:100CD000971E0E9429271092D2018091D10188236A
:100CE00049F08091A90281608093A90260E0869515
:100CF0000E94AE240E9439200E94402881110E9447
:100D0000CB17A6EEB1E0EEEDF1E000E010E0702FC1
:100D10002D913D918191919182279327009779F1AF
:100D200060E0EE24E394F12CAC014E215F21452BD1
:100D300009F169A37AA32E213F2181E0232B09F435
:100D400080E08BA30E94D7178160782F9DA38CA38E
:100D500049A15AA16BA18DA10E948126000F111FEC
:100D6000F801E252FE4F80819181E826F926F18256
:100D7000E0821AC06F5FEE0CFF1C6E30A9F60F5FA9
:100D80001F4F0430110519F68FEF8EA38FA318A6FD
:100D90000E94D7178160782F9AA789A74EA15FA1DB
:100DA00068A58AA50E94812680917102882309F492
:100DB00093C080917002E091A902E695E81BE09350
:100DC0006C02823059F4F0E0E25BFE4FE4910E2FAA
:100DD00010E027E0E22E2EE1F22E59C0863059F4C1
:100DE000F0E0E55BFE4FE4910E2F10E097EFE92E67
:100DF0009DE1F92E4CC0893061F4E695F0E0E85BA6
:100E0000FE4FE4910E2F10E08CE8E82E82E2F82EDF
:100E10003EC08F3061F4E695F0E0EB5BFE4FE4916D
:100E20000E2F10E0BFE1EB2EB2E2FB2E30C0853179
:100E300059F4F0E0EE5BFE4FE4910E2F10E0A1EDCF
:100E4000EA2EA1E2FA2E23C08831A1F0833249F4C0
:100E5000E0E4F1E005911491F7EBEF2EFDE1FF2EB8
:100E600016C0843271F000ED17E0E6EBEE2EEDE1F6
:100E7000FE2E0DC008E210E078E4E72E71E2F72EB6
:100E800006C004EF11E06EE0E62E61E2F62E8091DE
:100E90006D02882361F010926D020E94D717909323
:100EA0006B0280936A0210926F0210926E020E948F
:100EB000D717E0916A02F0916B028E1B9F0B8F3F58
:100EC0009F4750F40E0F1F1F10936B0200936A028E
:100ED0008AE692E0F701099596EDE92E91E0F92E68
:100EE00003ED11E02EE3222E21E0322E39ED432EC8
:100EF00031E0532E41E4642E41E0742E54E4852EFB
:100F000051E0952E5CA64BA6B12CA12CABA5BCA59F
:100F10008D91BCA7ABA7E82FEE0FEE0FD4012D915A
:100F20004D01A22FA295AF70B0E090968C9190E009
:100F30002F7002C0959587952A95E2F79C01217044
:100F40003327D3018D913D01A82FA295AF70B0E05A
:100F500090964C9150E08F7002C0559547958A95B8
:100F6000E2F7CA018170992740FF02C082E090E059
:100F7000822B932B8E2BF20181932F01D101CD90E7
:100F80001D018F70E82FF0E0E25DFE4F9081F701C8
:100F90008081890F8083D12C082E000C990B8C1531
:100FA0009D0554F0D8018C918F5F8C9360E08A2D61
:100FB0000E94F32721E001C020E0F7018081082E84
:100FC000000C990B442755274C195D094817590700
:100FD0004CF0D8018C9181508C9361E08A2D0E9455
:100FE000F32721E0F7018081082E000C990BB60150
:100FF0000E94C52BD7018D937D01B22AA3940F5F68
:101000001F4FB3E0AB1282CFB1100E94CB1786E026
:10101000E4ECF2E08E010F5F1F4FD80101900D92BA
:101020008A95E1F7C090C602D090C702E090C8024E
:10103000F090C9021092C6021092C7021092C80224
:101040001092C902C11003C0DD2009F451C0809183
:10105000C2029091C3020E94BC179C019091BE02F3
:10106000992309F4C0C22333310508F441C09F3FDE
:1010700019F09F5F9093BE02CC2061F00E94D925A9
:101080001C1414F491E001C09FEF899F802D11245E
:101090008093C602DD2061F00E94D9251D1414F44E
:1010A00091E001C09FEF899F802D11248093C7029A
:1010B0003091C6023323E1F02091C7022223C1F010
:1010C00045EB3403C0011124992319F09093C60213
:1010D00003C081E08093C60235EB2303C0011124D5
:1010E000992319F09093C70203C081E08093C7024F
:1010F000E11003C0FF2009F451C08091C00290911B
:10110000C1020E94BC179C019091BD02992309F471
:101110006FC22536310508F441C09F3F19F09F5F2B
:101120009093BD02EE2061F00E94B7251E1414F4C6
:1011300091E001C09FEF899F802D11248093C80208
:10114000FF2061F00E94B7251F1414F491E001C044
:101150009FEF899F802D11248093C9023091C8028E
:101160003323E1F02091C9022223C1F045EB34037F
:10117000C0011124992319F09093C80203C081E0A3
:101180008093C80235EB2303C0011124992319F081
:101190009093C90203C081E08093C9028091C60286
:1011A00081110BC08091C702811107C08091C802D4
:1011B000811103C08091C90281110E941625CB8242
:1011C000DC82ED82FE8286E0F801A4ECB2E00190C0
:1011D0000D928A95E1F70E94971E9091DC01891784
:1011E00031F00E94971E8093DC010E942927809194
:1011F0000302843009F0FDCC83E08093E900809104
:10120000E80082FFF6CC8091E80085FF21C00E94B3
:10121000961681111BC080E2C82ED12C780109C01E
:101220008091F100D7018D937D01B1E0CB1AD108F7
:1012300069F08091E80085FDF3CF8091E8008B771D
:101240008093E8000E949616882399F391E001C0EC
:1012500090E08091E8008B778093E800992309F46F
:10126000C8CCE9818E2F90E0FC013197E331F10584
:1012700008F070C1EA5AFF4F0C94FB2B1A8289E0E8
:10128000D3C08A81823009F4A5C1833051F0813006
:1012900009F060C10E94CB179B838C837D836E8392
:1012A0005BC18091E6019091E7019B838C838091E3
:1012B000E8019091E9019D838E838091EA019091EC
:1012C000EB019F8388878091EC019091ED019987D4
:1012D0008A8742C18A81823009F03CC16B817C815E
:1012E0008D819E810E94012C86E290E024C04C8179
:1012F0006B818A810E94A81F9D8373C1ED80FE804F
:10130000FE24EF24FE248C81CB809A81ECE1CE9EDA
:1013100060011124F0E79F9FC00CD11C1124C80E5E
:10132000D11CC80ED11C6F2DC60187960E946F2B51
:101330006E2DC60188960E946F2B0EC10E94741FED
:101340000BC18A818138B1F050F4803809F004C1B2
:1013500020E04B816091AB028091AA0231C08238BB
:1013600059F1833809F0F8C020E04091AC026C815B
:101370008B8126C060E08B810E94AE249B8180918E
:10138000A902911111C08E7F8093A902109271025F
:101390002FEF30E742E0215030404040E1F700C0FD
:1013A00000000E944F20D8C081608093A90260E0B5
:1013B00086950E94AE24D0C08B818093AD02CCC0B4
:1013C0000E94D123C9C08A81813899F030F48038D5
:1013D00009F0C2C08091AC0227C0823891F08338F6
:1013E00009F0BAC08091AA028B838091AB028C83F2
:1013F000B3C08091A90280FF02C0869515C080E02D
:1014000013C08091AD0210C06091A9027091AA0230
:101410008091AB029091AC020E94F8229DC080E1C5
:1014200052C081E08A8389EA8B8396C0EA80FB8080
:10143000FE24EF24FE24AC80B12C6801C701895A38
:101440009D4F9601201B310B2A153B0508F084C0E7
:10145000A9EAEA16A1E0FA0628F40E945B2BF6013D
:10146000848303C0D60114961C92BFEFEB1AFB0ACB
:10147000EFEFCE1ADE0AE2CFEA80FB80FE24EF24F3
:10148000FE24AC80B12C6801C701895A9D4F96019A
:10149000201B310B2A153B0508F05EC0F9EAEF1658
:1014A000F1E0FF0628F4D60114966C910E946F2B90
:1014B000BFEFEB1AFB0AEFEFCE1ADE0AE5CF0E9470
:1014C000641F4AC085E08A8347C0EA80FB80FE240F
:1014D000EF24FE24AC80B12C6801C70187969601E9
:1014E000201B310B2A153B05B8F5F0E3EF16F2E0AF
:1014F000FF0630F40E945B2BD60114968C9302C039
:10150000F6011482FFEFEF1AFF0A2FEFC21AD20A78
:10151000E4CFEA80FB80FE24EF24FE24AC80B12CD3
:101520006801C70187969601201B310B2A153B05E0
:1015300098F430E3E31632E0F30628F4D60114966B
:101540006C910E946F2BBFEFEB1AFB0AEFEFCE1AE4
:10155000DE0AE7CF8FEF898380910302843009F0A0
:1015600048CB8091E9008F702091EC00922F917010
:1015700020FD90E8F92EF82A82E08093E90080911E
:10158000E80080FF0CC040E050E060E270E0C8017D
:101590000E94C9168091E8008E778093E8008F2D15
:1015A0008F708093E90025CB09BD19BD09B400FEF9
:1015B000FDCF8091D8008F7D8093D8008091E0008E
:1015C00082608093E0008091E00081FDFCCF0E946A
:1015D000F82918CB86E290E00E945B2B1B821C82CC
:1015E0001D828E83B9CF2D32314008F042CD80CD9F
:1015F0002D32314008F093CDD1CD9F92AF92BF9262
:10160000CF92DF92EF92FF920F931F93CF93DF93CE
:10161000CDB7DEB72D970FB6F894DEBF0FBECDBFA6
:10162000FC018081918123813481232B31F09F3F04
:1016300031F491E08F3F19F403C091E001C090E0D4
:1016400090FD37C67F0185E0DE01199601900D926D
:101650008A95E1F7F701228189859A85222349F04D
:101660000E94321B182F682F89859A850E944F1D72
:1016700003C00E94231D182F69857A85812F0E943F
:10168000CE1F8C01F7018281882309F446C0C8016E
:1016900082519F45409708F0F6C58FEF93E00E9476
:1016A0005B2B811143C02EEED22ED00E07E512E047
:1016B000DD2069F00115F4E01F07C1F1C8010E94A7
:1016C0005B2B811101C0DA940F5F1F4FF1CF19829C
:1016D0001A821B821C82BB24B39468012FEFC21AAA
:1016E000D20AC8010E945B2B89831A828823F1F0F9
:1016F0009FEF980F933058F48A83B9820E5F1F4F83
:10170000C6010E945B2B8B83882381F06801CE0188
:1017100001960E9440278601E0CF0031FFE51F07B8
:1017200099F481E00E947E1D0E9420128091630244
:10173000877009F4BEC5F7018281882309F4B9C511
:1017400082E00E948A1DB5C501312FE5120711F410
:1017500082E0E8CF0E94D7176C01F70182818823CD
:1017600009F47CC080911B0182FF05C0B60180E0B6
:1017700090E00E94A31E82E00E946E1A09318CE55F
:101780001807D1F178F40731ECE51E0759F108315B
:10179000FCE51F0709F04DC08091190190911A01D5
:1017A000059725C00B312CE5120781F040F00C3174
:1017B0009CE51907F1F580911B018E7F0DC080918A
:1017C0001B01982F909590FB80F906C080911B011A
:1017D000816080931B0194C080931B0182E00E9472
:1017E0006E1A8EC08091190190911A0105969093FE
:1017F0001A018093190184C080911A018F938091FE
:1018000019018F9387E491E09F938F931F9288E053
:101810008F93FE0131966F01FF93EF930E94522C3C
:10182000C6010E9440270FB6F894DEBF0FBECDBFA1
:1018300067C00B32110509F498C128F4C801049758
:101840008497B8F492C10D32110598F0093311054F
:1018500008F48BC10436110561F487C10B32110500
:1018600009F4A6C108F09CC1C8010497849708F444
:101870009FC1033F9CE5190759F190F4083DFCE531
:101880001F07E9F0093D2CE51207A1F1073D8CE5A2
:101890001807B1F506E221EE41EE67ED7CE514C0D4
:1018A000053F9CE5190701F1C8F0063FFCE51F075D
:1018B00039F507E225EE46EE66EF7CE505C007E266
:1018C00025EE45EE68ED7CE5C7010E94F11E2ECFA6
:1018D00006E221EE40EE63EF7CE5F6CF07E225EE6F
:1018E00044EE64EF7CE5F0CF06E221EE42EE65EFD8
:1018F0007CE5EACF08E221E045EE69ED7CE5E4CF46
:10190000F7019281992309F46EC11092B00203305D
:10191000FDE51F0760F40A3F2CE5120768F4980103
:1019200022503C452431310508F047C105C001363D
:101930008DE5180709F041C10E94E2199093C70193
:101940008093C60100319CE5190709F4CAC008F06C
:1019500041C00830FCE51F0709F4A4C0F0F40430CE
:101960008CE5180709F48CC068F40230ECE51E071A
:1019700009F482C003301C4509F0E7C08091C6011C
:101980008260E1C006302CE5120709F483C008F03C
:1019900085C08091C6018860D6C00C309CE51907CF
:1019A00009F490C068F40A30FCE51F0709F47EC012
:1019B00008F084C00E94F8298091C6018068C3C0E5
:1019C0000E308CE5180709F481C008F086C08091BC
:1019D000C60194C00C3FECE51E0709F47BC038F546
:1019E00004312CE5120709F49AC058F402319CE541
:1019F000190709F47AC008F07EC08091C6018F7B78
:101A0000A2C00A3FFCE51F07F1F108F03FC0053115
:101A10001C4509F09AC08091C60182FB222720F95B
:101A200091E0922790FB82F990FB83F98CC001151D
:101A30009DE5190709F467C050F48091C7010E3F76
:101A4000FCE51F07C1F108F05BC08D7F65C0023067
:101A50008DE5180709F471C008F46DC001361D4505
:101A600009F073C08091C60184FB222720F991E020
:101A7000922790FB84F967C08091C601816063C0A2
:101A80008091C60116C08091C70116C08091C70120
:101A9000826042C08091C601806155C08091C601BC
:101AA000806251C08091C60180644DC08091C601A2
:101AB0008860846048C0826081602EC08091C601C9
:101AC0008E7F41C08091C6018D7F3DC08091C6014F
:101AD000877F39C08091C70114C08091C6018F7E75
:101AE00032C08091C6018F7D2EC00E94F82980915E
:101AF000C6018F7728C08091C601877F8B7F23C066
:101B00008D7F8E7F09C08091C701982F909591702D
:101B10008E7F892B90FB81F98093C70116C00E94AC
:101B2000F8298091C60187FB222720F991E09227AE
:101B300090FB87F908C061E001C060E08EE090E0B2
:101B40000E946F2B02C08093C6016091C601109164
:101B5000C70184E090E00E946F2B612F82E290E049
:101B60000E946F2B0E94F829E1CDF7019281992301
:101B7000F9F080911B0180FFC8CE209165022111F0
:101B8000C4CE1093B3020093B202D092B502C092B9
:101B9000B402846080931B0182E00E948A1DC6CD3E
:101BA0000D32110508F465CE0933110508F07AC32A
:101BB000B601C8010E94A31EB9CD8091650206310D
:101BC000FCE51F0709F58A7A91E009F490E090930B
:101BD000EE01882311F065E301C069E28EE092E036
:101BE0000E94511E0EC006311C4509F028C180918B
:101BF000EE01882309F45BC365E38EE092E00E9466
:101C0000441E0E94751A92CD82720C3CFCE51F079F
:101C100009F4C2C008F045C0063CECE51E0709F413
:101C2000A7C0D8F4033C2CE5120709F497C030F4A0
:101C3000023CFCE51F0709F46CC0CEC0043C2CE557
:101C4000120709F490C0053CECE51E0709F0C4C07A
:101C50004CE954E265EA74E2A3C0093CFCE51F07C5
:101C600009F490C078F4073CECE51E0709F485C040
:101C7000083CFCE51F0709F0AFC040E954E264E806
:101C800074E28EC00A3C2CE5120709F480C00B3CBC
:101C9000ECE51E0709F0A0C04AE053E26BE173E2F5
:101CA0007FC0013DFCE51F0709F486C0A0F40E3C8F
:101CB0008CE5180709F47AC008F475C00F3CFCE500
:101CC0001F0709F476C0003D2CE5120709F084C017
:101CD0006EE089E079C0043D8CE5180709F472C014
:101CE00068F4023DFCE51F0709F469C0033D2CE5DB
:101CF000120709F071C061E088E16BC0053D8CE519
:101D0000180709F464C00D35EDE51E0709F40ECD82
:101D100063C08091A90280FF1BC08E7F8093A902BF
:101D20006091A9027091AA028091AB029091AC02DD
:101D30000E94F82210927102FFEF20E782E0F1503A
:101D400020408040E1F700C000000E944F20EECC10
:101D500081608093A90261E086953BC049EE54E220
:101D600062EF74E21DC042EF54E269EE74E218C003
:101D700045EA54E26CE974E213C044E854E260E9D5
:101D800074E20EC04CE654E268E774E209C048E72A
:101D900054E26CE674E204C04BE153E26AE073E2A1
:101DA0000E943320C3CC61E081E013C065E082E093
:101DB0000BC068E086E008C064E18FE005C067E121
:101DC00085E102C062E289E10E942120AFCC61E09E
:101DD00083E20E94AE24AACC992389F10A359DE5BD
:101DE000190741F150F40115FCE51F07A9F00E3D5C
:101DF0001C4529F50E94FE1999CC0B358DE5180775
:101E0000D9F00C351D45D9F48091C70182FB882794
:101E100080F991E0892711C00E94F829EFEFF4E3DF
:101E20002CE0E150F0402040E1F700C000000E94AB
:101E300072177CCC81E001C080E00E94A21AF701F9
:101E4000828100811181882349F0C8010E94321BE0
:101E5000D82E682FC8010E944F1D04C0C8010E94DF
:101E6000231DD82EB8018D2D0E94CE1F0E94481828
:101E7000D82E192F982EF7010281A580A2949FE0F9
:101E8000A92280916302877099F0002389F0812F45
:101E9000807F803421F080E28D0D883048F082E030
:101EA0000E948A1D809163028770CC24C3948111A3
:101EB000C12CB12EB2948FE0B8228B2D90E08C30E3
:101EC000910508F0C0C1FC01E759FF4F0C94FB2BB2
:101ED000812F807F1F70882311F01295107F0023BF
:101EE000B9F0112309F49BC180E28D0D883010F008
:101EF000911006C080916502182B1093650205C0F1
:101F00008091B102182B1093B1020E94751A87C1FB
:101F10008D2D0E94292A112309F495C180E28D0D8F
:101F2000883010F0911007C0109580916502182339
:101F30001093650203C0812F0E946E1A0E94751AC9
:101F400082C1812F807F1F70803211F01295107F27
:101F50008D2D992021F0F1E09F1611F130C0002362
:101F6000B1F0AA2081F021E0A2120DC08091C7013A
:101F700082FD69C180916602182B181709F463C1AC
:101F80001093660260C180916602812B10C0AA2066
:101F900021F081E0A81609F456C10E94681A27C0F2
:101FA000002341F095E09A1508F44DC1812F0E945D
:101FB0001F2A49C1E4E0EA1508F445C118C000230E
:101FC00049F0AA2099F3F701858180FF28C18F701D
:101FD0008583ECCFAA2059F0893309F031C1FFEF96
:101FE00027EE83E0F15020408040E1F727C1812FA8
:101FF0000E94142A28C1812F86958695837019F036
:10200000813061F020C1002321F08D2D912F93703C
:1020100002C080E090E00E94811E1DC1002321F0DB
:102020008D2D912F937002C080E090E00E946B1E76
:1020300012C18D2D002319F00E94F92502C00E94C3
:1020400040250E94162507C1812F8370A9F5011133
:10205000FEC04D2D429546954770440F440F8D2D7F
:102060008F7090E09C01042E01C0220F0A94EAF7C1
:10207000D4FE08C08FE090E001C0880F4A95EAF7CF
:10208000809501C080E0169516951370123069F0A6
:1020900088F490916702113019F0822B892302C0D5
:1020A000922B892B0E94B21DD2C0822B9091670285
:1020B0008927F8CF822BF6CF002319F0812F81706A
:1020C00001C08695882309F4C2C04D2D42954695DE
:1020D0004770440F440F8D2D8F7090E09C01042EAB
:1020E00001C0220F0A94EAF7D4FE08C08FE090E006
:1020F00001C0880F4A95EAF7809501C080E01695E7
:1021000016951370123059F078F490910D02113039
:1021100019F0822B892309C0922B892B06C0822BB0
:1021200090910D02892701C0822B0E947A1D8FC0D9
:102130001F70002339F0812F0E94A71D8D2D0E9452
:102140001F2A85C08D2D0E94142A812F0E947E1D7A
:102150007EC08D2D92EF991659F1991538F0E0EF68
:102160009E1659F0F1EF9F16F1F055C023EF92162D
:1021700031F194EF991681F14EC0002379F0E4E03B
:10218000EA1508F460C01F7181E090E001C0880F7B
:102190001A95EAF790910D0289271BC0F5E0FA1510
:1021A00008F451C0F0CF002329F0812F8F7126C091
:1021B0000023D9F3812F8F710E947E1D44C000231C
:1021C00039F01F7181E001C0880F1A95EAF701C04C
:1021D00080E00E947A1D37C0002399F01F71812F83
:1021E0000E94A71D8091C70182FD07C028E0129FB1
:1021F000C0011124836080936302812F0E94A71D78
:1022000022C081E00E948A1D81E08A15E0F482E00C
:102210000E948A1D18C0002331F0AA2031F28D2DB2
:102220000E94902A10C0AA2029F2893349F49FEF16
:10223000E7EEF3E09150E040F040E1F700C000002D
:102240008D2D0E94292A88EF8B0D843020F40E9466
:10225000971E0E942927CC2061F18091630280FDA6
:1022600028C0F70112828595859585950E94A71D46
:10227000C7010E94FD0A8091630285958595859529
:102280000E947E1D16C000318FE5180711F481E011
:1022900006C001319FE5190709F05CCA82E00E947F
:1022A000A71D42CA0436110509F0E3CA81CC69E2D0
:1022B000A4CC2D960FB6F894DEBF0FBECDBFDF9134
:1022C000CF911F910F91FF90EF90DF90CF90BF9033
:1022D000AF909F9008958091050287FF11C0809173
:1022E000E80082FD05C0809103028111F8CF11C082
:1022F0008091E8008B770BC080910302882349F01E
:102300008091E80080FFF8CF8091E8008E7780937D
:10231000E8000895982F973068F59093E900981792
:1023200039F07091EC002091ED005091F00003C065
:10233000242F762F50E021FD02C09F5FECCF30911B
:10234000EB003E7F3093EB003091ED003D7F30930A
:10235000ED003091EB0031603093EB007093EC00B6
:102360002093ED005093F0002091EE0027FDE5CF83
:1023700080E008958F708093E90081E008952091B6
:102380000B0230910C022617370748F061157105D2
:1023900039F42091E8002E772093E80001C0B901BC
:1023A000FC0120E06115710579F180910302882319
:1023B000F1F18530F1F18091E80083FD3CC080911E
:1023C000E80082FD2EC08091E80080FFEBCF2091D5
:1023D000F3008091F20090E0922B6115710551F0AD
:1023E0008830910538F421912093F10061507109F2
:1023F0000196F3CF21E0089709F020E08091E800F2
:102400008E778093E800CECF2111CFCF0AC0809184
:102410000302882361F0853061F08091E80083FD3C
:102420000AC08091E80082FFF2CF80E0089582E048
:10243000089583E0089581E008958091F80108955A
:1024400080910D02982F9670963011F4886001C02B
:10245000877F0C947A1D1F93CF93DF93CDB7DEB7A0
:10246000AA970FB6F894DEBF0FBECDBFE5E0F2E04D
:102470008091F100819342E0ED30F407C9F780913B
:102480000602833009F462C030F4813071F082308A
:1024900009F49CC0B3C08A3009F488C08B3009F4B9
:1024A0006DC0893009F0AAC020C080910502813A30
:1024B00009F0A4C08091E800877F8093E8008091B4
:1024C000090290910A02892B21F468E089EF91E0DA
:1024D00003C060E080E090E070E00E94BF11809156
:1024E000E8008B778093E80089C0809105028132F3
:1024F00009F084C08091090290910A02009719F0B6
:10250000029709F07BC08091E800877F8093E80004
:102510008091E80082FD05C0809103028111F8CF0F
:102520006DC02091F3008091F20090E0922B029711
:1025300029F48091F1008B7F813021F48091F100AA
:102540008093F8018091E8008B7754C08091050258
:10255000813A09F053C08091090290910A02892BB7
:1025600009F04CC08091E800877F8093E80080915B
:10257000E80080FFFCCF80910A0137C080910502FE
:102580008132E1F58091090290910A02892BB1F51F
:102590008091E800877F8093E8000E946B11809112
:1025A000070280930A010E94F82928C08091050241
:1025B000813221F58091E800877F8093E8000E94B6
:1025C0006B11809108028093F70118C08091050279
:1025D000813AA1F48091E800877F8093E8008091A0
:1025E000E80080FFFCCF8091F7018093F10080919B
:1025F000E8008E778093E8000E946B118091E800DC
:1026000083FFDDC18091050290910602492F50E0C1
:102610004A30510508F0D3C1FA01EB58FF4F0C9432
:10262000FB2B803821F0823809F0C9C108C08091A5
:10263000010290910202992389F082600FC080917B
:1026400009028F70873008F0BAC18093E900809149
:10265000EB0085FB882780F91092E9009091E80053
:10266000977F9093E8008093F1001092F10070C181
:10267000282F2D7F09F0A3C1882319F0823061F043
:102680009EC180910702813009F099C1933009F011
:1026900080E0809302022EC08091070281112AC03F
:1026A000809109028F702FEF280F263008F087C124
:1026B0008093E9002091EB0020FF1CC0933021F4AF
:1026C0008091EB00806214C09091EB009061909338
:1026D000EB0021E030E0A90102C0440F551F8A95AC
:1026E000E2F74093EA001092EA008091EB008860E4
:1026F0008093EB001092E9008091E800877F80933F
:10270000E8000E946B115BC1811159C11091070251
:102710001F778091E3008078812B8093E300809184
:10272000E800877F8093E8000E946B118091E800A9
:1027300080FFFCCF8091E30080688093E30011115B
:1027400002C082E001C083E08093030238C1805858
:10275000823008F034C120910702309108022C3DEC
:1027600053E0350779F583E08A838AE289834FB79E
:10277000F894DE01139620E03EE051E2E32FF0E012
:1027800050935700E49120FF03C0E295EF703F5F44
:10279000EF708E2F90E0EA3010F0C79601C0C0961F
:1027A0008D939D932F5F243149F74FBF8091E800AF
:1027B000877F8093E8006AE270E0CE0101960E9474
:1027C000BF11B4C08091090290910A02432F55278E
:1027D00043305105A9F068F44130510509F4FEC0B9
:1027E0004230510509F0EBC08BE590E0EFE2F2E0FA
:1027F0004BC04132510529F14232510589F1DFC008
:10280000C901992781309105A1F058F0029709F08C
:10281000D6C0ECE9F2E0E4918E2F90E0ECE9F2E032
:1028200030C0E0EDF2E0E4918E2F90E0E0EDF2E0D8
:1028300028C0E8EBF2E0E4918E2F90E0E8EBF2E0C4
:1028400020C08330910508F0BAC0880F991FFC01A1
:10285000EB5AFE4F0190F081E02D89E090E014C02A
:102860008330910508F0ABC0FC01EE0FFF1FE15B68
:10287000FE4F0190F081E02DDC01A45BBE4F8C91F6
:1028800090E0009709F49BC02091E800277F2093F7
:10289000E80020910B0230910C022817390708F448
:1028A000C90140E0009789F120910302222309F435
:1028B0003DC02530D9F12091E80023FD37C020919B
:1028C000E80022FD2FC02091E80020FFEBCF4091CF
:1028D000F3002091F20030E0342B009759F02830BB
:1028E000310540F444914093F100319601972F5FF8
:1028F0003F4FF3CF41E02830310509F040E020910F
:10290000E8002E772093E800CDCF4111CDCF0AC04B
:1029100080910302882351F0853041F08091E800D6
:1029200083FD04C08091E80082FFF2CF8091E8002F
:102930008B778093E80043C0803809F040C08091D5
:10294000E800877F8093E800809104028093F10083
:102950008091E8008E77D3CE811131C0809107023B
:10296000909108029927029754F58091E800877F9B
:102970008093E80010910702109304020E946B11EB
:10298000111106C08091E30087FD02C081E001C003
:1029900084E08093030242E061EC81E00E948A11AE
:1029A00042E261EC84E00E948A1142E261EC82E042
:1029B0000E948A1142E260EC83E00E948A118091B9
:1029C000E80083FF10C08091E800877F8093E800D3
:1029D0008091EB0080628093EB0005C082E190E083
:1029E000EAE8F2E051CFAA960FB6F894DEBF0FBE28
:1029F000CDBFDF91CF911F9108951F920F920FB617
:102A00000F9211242F933F934F935F936F937F9374
:102A10008F939F93AF93BF93CF93DF93EF93FF93E6
:102A2000C091E900CF708091EC00D82FD17080FD6B
:102A3000D0E81092E9008091F000877F8093F00049
:102A400078940E942B121092E9008091F000886027
:102A50008093F000CD2BCF70C093E900FF91EF91F0
:102A6000DF91CF91BF91AF919F918F917F916F91A6
:102A70005F914F913F912F910F900FBE0F901F903C
:102A80001895E8EDF0E080818E7F80831092E2005F
:102A90001092DA001092E100A0EEB0E08C9181601B
:102AA0008C9380818F77808319BCA7EDB0E08C91E7
:102AB0008E7F8C9380818F7E80831092F6010895A3
:102AC000CF92DF92EF92FF920F931F93CF93DF93FA
:102AD000C8EDD0E088818F7E8883E7EDF0E08081CB
:102AE0008160808384E082BF81E08093F6018881E9
:102AF0008E7F888302EE10E0F80110821092DA00D7
:102B000081EEC82ED12CF601108288818F778883C0
:102B100088818068888388818F7D888319BC109222
:102B2000030210920402109202021092010290EE2F
:102B3000E92EF12CF70180818B7F80838881816071
:102B4000888342E060E080E00E948A11F601808183
:102B50008E7F8083F801808181608083808188609E
:102B60008083F70180818E7F808388818061888364
:102B7000DF91CF911F910F91FF90EF90DF90CF9059
:102B800008951F920F920FB60F9211242F933F9327
:102B90004F935F936F937F938F939F93AF93BF9365
:102BA000EF93FF938091E10082FF09C08091E200E2
:102BB00082FF05C08091E1008B7F8093E1008091CE
:102BC000DA0080FF2AC08091D80080FF26C0809163
:102BD000DA008E7F8093DA008091D90080FF18C0E0
:102BE00080E189BD82E189BD09B400FEFDCF81E0AD
:102BF000809303028091F60181110FC00E9441155C
:102C00000E9460158091E20084608093E20005C01C
:102C100019BC109203021092F6018091E10080FF2E
:102C200017C08091E20080FF13C08091E2008E7F88
:102C30008093E2008091E20080618093E2008091C5
:102C4000D80080628093D80019BC85E0809303028D
:102C50008091E10084FF2EC08091E20084FF2AC0B1
:102C600080E189BD82E189BD09B400FEFDCF80917C
:102C7000D8008F7D8093D8008091E1008F7E809373
:102C8000E1008091E2008F7E8093E2008091E2007B
:102C900081608093E20080910402882311F084E037
:102CA00007C08091E30087FD02C081E001C083E09E
:102CB000809303028091E10083FF27C08091E200AE
:102CC00083FF23C08091E100877F8093E10082E051
:102CD00080930302109204028091E1008E7F809322
:102CE000E1008091E2008E7F8093E2008091E2001B
:102CF00080618093E20042E060E080E00E948A11FF
:102D00008091F00088608093F000FF91EF91BF9177
:102D1000AF919F918F917F916F915F914F913F9173
:102D20002F910F900FBE0F901F9018952091E400E7
:102D30003091E50095E64091EC00842F817040FFD2
:102D400023C08091E80080FD1DC08091030288238C
:102D500099F0853099F08091EB0085FD11C040918C
:102D6000E4005091E5002417350729F3915011F044
:102D70009A01E1CF84E0089582E0089583E0089508
:102D800081E0089580E008954091E80042FFDDCFA2
:102D90000895EF92FF920F931F93CF93DF937C01DF
:102DA0008B010E949616811119C0E70101151105CA
:102DB000A1F08091E80085FD0AC08091E8008E773F
:102DC0008093E8000E949616882381F307C08991BA
:102DD0008093F10001501109E9CF80E0DF91CF919C
:102DE0001F910F91FF90EF900895909103029430FE
:102DF00029F58093F3017093F5016093F4019093AA
:102E0000E9008FEF9091E800815095FD06C095EDA7
:102E10009A95F1F700008111F5CF8091E80085FFC8
:102E20000DC040E050E063E070E083EF91E00E946D
:102E3000C9168091E8008E778093E8000895BC0160
:102E400084E00C94F516BC0183E00C94F51624E0A4
:102E50002093E9002FEF3091E800215035FD06C0A6
:102E600035ED3A95F1F700002111F5CF2091E800FA
:102E700025FF0BC040E050E066E070E00E94C916FC
:102E80008091E8008E778093E8000895CF93DF93D8
:102E900021E02093E9002FEF3091E800215035FD2B
:102EA00006C035ED3A95F1F700002111F5CF2091DC
:102EB000E80025FF14C0EC0140E050E068E070E05D
:102EC0000E94C9168091E8008E778093E80088E020
:102ED000FE01A9EFB1E001900D928A95E1F7DF9133
:102EE000CF91089581E08093E00080E28093D80044
:102EF0001092C9008FE19EE40197F1F700C0000035
:102F000087E090EBDC018093CD029093CE02A093FA
:102F1000CF02B093D0029CE088E10FB6F894A89558
:102F2000809360000FBE90936000FFCF78941F9253
:102F30000F920FB60F9211248F939F93AF93BF936D
:102F40008091EF019091F001A091F101B091F20117
:102F50000196A11DB11D8093EF019093F001A09304
:102F6000F101B093F201BF91AF919F918F910F90BA
:102F70000FBE0F901F9018959C014FB7F894809149
:102F8000EF019091F001A091F101B091F2014FBFDA
:102F9000821B930B08952FB7F8946091EF01709105
:102FA000F0018091F1019091F2012FBF08952FB7A8
:102FB000F8948091EF019091F001A091F101B0910E
:102FC000F2012FBF089580E008959091C60192FF0D
:102FD0000DC0282F2871283019F4877F846006C01F
:102FE000282F2471243011F48B7F886093FF0DC04B
:102FF000282F2871283119F4877E846106C0282F74
:103000002471243111F48B7E88612091C70120FF47
:103010000DC0382F3871383019F4877F816006C0B1
:10302000382F3171313011F48E7F886021FF0DC04F
:10303000282F2871283119F4877E816106C0282F36
:103040002171213111F48E7E886194FD877E08956F
:10305000209162029091310256E02917A9F030E0E8
:10306000529FF001539FF00D1124EE5CFD4F7181D2
:10307000761306C07081781303C07281741306C082
:103080002F5F3F4F2770E9CF80E0089581E00895DA
:10309000CF93DF938238910569F1B0F481339105C4
:1030A00009F46FC048F48932910509F465C08A3289
:1030B000910509F46BC08AC08533910509F457C0A6
:1030C00089339105B9F082C0833E910571F138F4DE
:1030D000803E9105B1F0823E910511F177C0863EA8
:1030E0009105B9F1873E9105C9F1843E910509F03A
:1030F0006DC024C02091C60120FD53C021FD51C0E8
:1031000065C08091C60180FD46C08091C70180FFE7
:1031100048C08091C60184FD50C183EE90E04FC14C
:103120008091C60182FF3AC0F4CF8091C60182FD32
:1031300035C08091C70180FD34C0EBCF8091C701BD
:1031400081FF35C08091C60184FD37C187EE90E0D4
:1031500036C18091C60183FF27C0F4CF8091C6019C
:1031600083FD22C08091C70181FD21C0EBCF8091FA
:10317000C60185FD1FC021C08091C60185FD1DC00F
:1031800019C08091C60186FD1BC01DC08091C6017B
:1031900086FD19C015C089E390E011C182EE90E070
:1031A0000EC180EE90E00BC186EE90E008C184EE87
:1031B00090E005C189E290E002C185E390E0FFC0A4
:1031C0008AE290E0FCC081E390E0F9C0811531E52E
:1031D000930708F069C0811540E59407F0F09C0161
:1031E00074E0369527957A95E1F7922F9370482FE2
:1031F000437021E030E002C0220F331F4A95E2F70E
:103200003C68392B982F9F709695969540E2949F35
:10321000C0011124822B932BD2C0883E910568F502
:10322000803E910508F0CBC0883A9105B8F4853A04
:10323000910548F0855AE82FF0E0E55AFE4F80816D
:1032400090E09064BCC08130910509F4B3C008F4EB
:10325000B4C08430910508F4B0C0B1C08F3B910573
:1032600008F0ABC0885AE82FF0E0EE0FFF1FE25ADB
:10327000FE4F808191819464A2C0811520E2920763
:1032800058F4811531E0930708F099C0803F91050B
:1032900008F493C0906593C0811540E4940708F446
:1032A0008CC09F70906A8BC0811525E5920708F04D
:1032B00042C0811534E5930728F0982F8827846F42
:1032C000906A7DC0811543E59407B0F09C0123709E
:1032D000332741E050E002C0440F551F2A95E2F722
:1032E000282F2695269580E2289F90011124CA0157
:1032F000822B932B9A6863C0811522E5920728F4EC
:10330000982F8827816F906A5AC09C0123703327B9
:1033100041E050E002C0440F551F2A95E2F7282FE4
:103320002695269580E2289F90011124CA01822BC0
:10333000932B9C6844C0EC01811539E59307A8F4F0
:103340008115984528F09C2F8827806F906A37C098
:10335000C11586E5D80788F58C2F0E94E5178F7177
:1033600090E0982F882790622AC081152AE592075D
:1033700090F48C2F8F700E94E51794E0D695C79536
:103380009A95E1F7CF70D0E0DC2FCC27D0699E0171
:10339000282BC90114C090568115904270F48D2FCE
:1033A0008F710E94E517282F2F71CE019927906207
:1033B000922B05C081E090E002C080E090E0DF91B8
:1033C000CF910895CF9384E090E00E945B2BC82FAB
:1033D00082E290E00E945B2B2C2F30E0A901582B59
:1033E000CA01CF91089580E090E00E94692B893E48
:1033F0009E4F11F40C94082080E0089569EE7EEF52
:1034000080E090E00E948D2B60E082E090E00E94DE
:103410006F2B60E083E090E00E946F2B10926702B8
:1034200060E084E090E00E946F2B60E082E290E038
:103430000E946F2B60E085E090E00E946F2B60E0BF
:1034400086E090E00E946F2B6FEF87E090E00E9493
:103450006F2B40E050E0BA0188E090E00E94812BA1
:1034600060E08DE090E00E946F2B40E050E0BA01F8
:1034700088E190E00E94812B60E087E190E00E946B
:103480006F2B40E050E0BA018CE190E00E94812B6C
:1034900060E070E080E290E00E948D2B40E050E020
:1034A000BA0188E190E00E94812B80E00E94DB1F3E
:1034B0000E94F91F40E050E0BA018FE090E00E94C6
:1034C000812B40E050E0BA0183E190E00C94812B25
:1034D0008091660281111092660208958095909104
:1034E000B10289238093B102089590916502809181
:1034F000B102892B20916402982F922B90930E0297
:1035000080916602882389F0892B80930E02E0E186
:10351000F2E097E080E0915029F021912223D9F345
:103520008F5FF9CF81110E94681AE091B802F09183
:10353000B902309731F00280F381E02D8EE092E005
:1035400009940895CF93C091C701C2FB992790F9C0
:10355000981781F080FBC2F9C093C7016091C60142
:1035600084E090E00E946F2B6C2F82E290E0CF917C
:103570000C946F2BCF91089580916202909131024B
:10358000891719F08F5F8770FBCF08950F931F93F2
:10359000CF93DF938091300282958F7009F05DC0E8
:1035A00080912D02882309F458C080916202109105
:1035B000310260912B0270912C02C0912E02D091A9
:1035C0002F0291E06F3F09F090E0292F06E081176C
:1035D00009F443C0209721F07F3F21F030E003C081
:1035E00031E001C0322F90E030FD34C0089FF0017F
:1035F000099FF00D1124DF01AE5CBD4F11963C9187
:103600001197371327C03C91361324C012963C9172
:10361000129731111FC013964D915C9114974C1B5A
:103620005D0B483C5105B0F4809130028F70806191
:1036300080933002E95CFD4F80818F7080618083D0
:103640008BE292E00E94FD0ADF91CF911F910F91D2
:103650000C94BC1A01968770BACFDF91CF911F915D
:103660000F910895CF92DF92FF920F931F93CF9304
:10367000DF936C0100910D0280916702082BC7E077
:10368000D0E010E0C8010C2E02C0959587950A94F1
:10369000E2F780FD04C02197A8F7F12C09C0FC2EA9
:1036A000B6018C2F0E94CE1F0E944818019799F3F3
:1036B0008F2DDF91CF911F910F91FF90DF90CF90D1
:1036C0000895CF93DF93EC010E94321BBE010E944C
:1036D000CE1F0E944818DF91CF9108958F929F923C
:1036E000AF92BF92CF92DF92EF92FF920F931F9310
:1036F000CF93DF93CDB7DEB761970FB6F894DEBFF7
:103700000FBECDBF8C0185E0F801DE011D96019052
:103710000D928A95E1F7D8011296EC9090912B02C8
:1037200020912C0240912E0250912F0241155105FB
:1037300031F02F3F31F481E09F3F19F403C081E065
:1037400001C080E080FD51C1F801D080C180A3801C
:10375000B4808BE2882E82E0982EF0902D02B50185
:10376000641B750BFF2009F4FDC080913002382FD7
:10377000307F683C710508F0C7C0311188C02C113A
:1037800012C09D1110C0FE2CE1100DC08F70806121
:1037900080933002C4010E94FD0A80913002D8015A
:1037A00015968C933CC1A114B10439F0BFEFCB1234
:1037B00006C081E0DB1203C003C081E001C080E0ED
:1037C00080FD03C081E08E2502C080E090E080FF94
:1037D00010C04E2D6C2D8D2D0E942818882349F085
:1037E0008BE292E00E94FD0AEBE2F2E086E0DF016C
:1037F00093C0AB2839F0BFEFCB1206C081E0DB12DB
:1038000003C003C081E001C080E080FD03C081E00F
:103810008E2502C080E090E0E82FE170BE2E80FF90
:103820002CC04E2D6C2D8D2D0E942818F82E811144
:1038300024C0DD86CE868D859E850E94611B292F42
:1038400022952F70223018F0243090F405C09F701C
:1038500059F0811109C0E3C09F7031F0D80115966D
:103860009C91907F09F4DBC0805E883008F4D7C05B
:10387000C8010E94FD0AFB2CD2C0FE2CEE2009F4E8
:10388000CEC08091300281608093300248C02C11FC
:1038900006C09D1104C0E11002C0F80185C0C80136
:1038A0000E94AF29882351F1EE2041F1209130028E
:1038B000822F82958F7090E0029774F080912B0296
:1038C00090912C0298878F831986BB86AA862C87B5
:1038D000CE0107960E94FD0A86E0F801ABE2B2E055
:1038E00001900D928A95E1F70E94C61A0AC02C1524
:1038F000C1F0C8010E94AF2981111DC0C8010E94FA
:10390000FD0AFF24F3948BC03111F1CF8BE292E0DA
:103910000E94FD0A86E0D4011D928A95E9F7F12CF8
:103920007EC09D11E6CFE110E4CFF8018583C80188
:103930000E94FD0A54C0EE2009F320913002822F2C
:1039400082958F7090E002973CF280912B029091CB
:103950002C029A8389831B82BD82AC822E83CE0186
:103960000196B8CF683C7105D0F5FE2CEE2031F2FF
:103970002C1127C09D1125C02091300220FD18C0B8
:10398000822F82958F70482F50E04115510581F0AC
:10399000F80125834F30510541F08F5F982F9295A4
:1039A000907F822F8F70892B8583C8010E94FD0A2A
:1039B00086E0F801ABE2B2E001900D928A95E1F762
:1039C0002EC0C8010E94AF29811186CF809130029C
:1039D000816080933002C8010E94FD0A20C086E009
:1039E000D4011D928A95E9F71AC0EE2009F486CF1A
:1039F000C8010E94AF29F82E882309F47FCF86E002
:103A0000F801ABE2B2E001900D928A95E1F7809166
:103A10002B0290912C020E94611B0E94C61A8F2DCE
:103A200061960FB6F894DEBF0FBECDBFDF91CF9188
:103A30001F910F91FF90EF90DF90CF90BF90AF90CC
:103A40009F908F9008952EE0929F800D1124682FF3
:103A5000669566956695982F977083E0689FB0018C
:103A6000112440E050E080E0FB01E40FF51FEA5E26
:103A7000FD4F208130E0092E02C0369527950A942B
:103A8000E2F721703327042E01C0220F0A94EAF7CF
:103A9000822B4F5F5F4F4330510531F708952EE081
:103AA000929F800D1124E82FE695E695E6958770A4
:103AB00051E001C0550F8A95EAF783E0E89FF001D5
:103AC0001124EA5EFD4F20E030E070E04081CB0140
:103AD000022E02C0969587950A94E2F7817081952F
:103AE00084278523842781932F5F3F4F233031051F
:103AF00069F7089580930D020C94DB2921E030E0F2
:103B000001C0220F8A95EAF7209580910D02822349
:103B10000C947A1D20916302809582238093630226
:103B2000982F977041F430E0482F082E000C550B69
:103B30002417350721F49091C70192FF07C085959E
:103B4000859585950E947E1D10926302089521E05F
:103B500030E001C0220F8A95EAF780910D02822B96
:103B60000C947A1D809367020C94DB2908950F93BF
:103B70001F93CF93DF9300D01F92CDB7DEB78C0198
:103B80008091750281110AC09E012F5F3F4F4FEF58
:103B90006FEF0E943B238A8180937502F801848134
:103BA000813051F028F0823061F4409175020AC0F2
:103BB0008091750240E007C06091750240E080E0AE
:103BC00003C040E080E060E00E94D422F8018481DC
:103BD00090E0019663E070E00E94C52B84830F9013
:103BE0000F900F90DF91CF911F910F910895CF9378
:103BF000DF93EC01E9EAF2E0438162818C810E946B
:103C0000FC248C818F5F8C83DF91CF910895CF93BB
:103C1000DF93EC01EC81F0E0EC52FD4F4491E9EAD6
:103C2000F2E0628181810E94FC248C818F5F8C8311
:103C3000DF91CF9108951F920F920FB60F9211242A
:103C40008F939F93AF93BF938091BC02811113C058
:103C50008091EF019091F001A091F101B091F201FA
:103C60004196A11DB11D8093EF019093F001A093A7
:103C7000F101B093F201BF91AF919F918F910F909D
:103C80000FBE0F901F9018959C012A5F3F4FFC01BB
:103C90004281461301C01282019682179307B9F739
:103CA00008959C01FC0132969FEF80E041914617F8
:103CB00089F09F3F19F4411101C0982F8F5F863022
:103CC000A9F79F3F39F0F901E90FF11D97FDFA952A
:103CD0006283089508952091BA023091BB0228179B
:103CE000390771F09093BB028093BA02E091B80259
:103CF000F091B902309721F00084F185E02D09940C
:103D000008952091B6023091B7022817390771F053
:103D10009093B7028093B602E091B802F091B90295
:103D2000309721F00680F781E02D09940895E09105
:103D3000B802F091B902309721F00190F081E02DA6
:103D4000099480E008950F931F93CF93DF938C0124
:103D5000EB0180911B0182FF2CC08B7F80931B01A4
:103D60008091B4029091B5029B01281B390B809180
:103D7000190190911A012817390740F48091B20275
:103D80000E94902A80911B018D7F0CC08091B1020E
:103D900082608093B1028091B2020E94902A809149
:103DA0001B01826080931B018091B2020E94292A2C
:103DB0000AC0802F0E94292A8091B2029091B302FA
:103DC0000817190719F482E00E946E1A0E94751AEA
:103DD000D093B502C093B402DF91CF911F910F91A0
:103DE00008950F931F93CF93DF93C42FD22FFC011D
:103DF00082818823C9F04093B0020E94D717909324
:103E0000AF028093AE0280E28C0F883008F057C07A
:103E1000C77081E001C0880FCA95EAF7DF91CF91A2
:103E20001F910F910C941F2A8091B002481330C04B
:103E30008091AE029091AF020E94BC17883C910520
:103E400038F510E21D0FCD17B9F080E28C0F8830E5
:103E500040F4C77081E001C0880FCA95EAF70E945C
:103E6000142A183028F581E09D2F977001C0880F23
:103E70009A95EAF70E941F2A802F0E94342B18304F
:103E8000F0F4D77081E001C0880FDA95EAF70AC034
:103E900080E28C0F883098F4C77081E001C0880FF1
:103EA000CA95EAF7DF91CF911F910F910C94142AD4
:103EB000802FDF91CF911F910F910C94342BDF91C4
:103EC000CF911F910F910895CF93DF93C7E5D2E073
:103ED00060E0CE010E946F2B2196C11584E0D807C7
:103EE000B9F7DF91CF910895CF92DF92EF92FF92D1
:103EF0000F931F93CF93DF93C0E0D0E08E01005962
:103F00001F4F6E018CE1C80ED11CFE01EC52FC4F1C
:103F1000E590F4906F2DCE0187960E946F2B6E2D49
:103F2000CE0188960E946F2B2296CC15DD0569F78D
:103F30000C171D0731F7E80100331240F9F6DF9145
:103F4000CF911F910F91FF90EF90DF90CF90089548
:103F50000F931F93CF93DF93C42FD0E0CC0FDD1FBF
:103F60002CE1629FC00DD11D112430E7839FC00D4D
:103F7000D11D1124CE0187960E945B2B082F10E0E3
:103F8000102F0027CE0188960E945B2B9801282BCA
:103F9000C901DF91CF911F910F910895462F853070
:103FA00038F4743028F46E3018F4672F0C94A81F7E
:103FB00080E090E00895CF93C82F811102C06FEF89
:103FC00001C061E283E290E00E946F2BC11102C048
:103FD0006FEF01C060E184E290E00E946F2BC1119D
:103FE00002C06FEF01C064E285E290E0CF910C94D3
:103FF0006F2B80E00E94DB1F60E086E290E00E9471
:104000006F2B0E94741F0E94641F81E00C94DB1FC1
:1040100083E290E00E945B2B813281F484E290E0A5
:104020000E945B2B803151F485E290E00E945B2B73
:1040300091E0843209F090E0892F01C080E0817026
:1040400008959091A90290FF04C09695981740F0AA
:1040500003C0811105C090E0961710F40C94F2246F
:1040600061E00C94AE24882311F0FA0101C0FB0139
:1040700009946091A902669570E04BE050E08BE0F6
:1040800091E00E94452C892B19F481E08093710204
:104090000E94D71790936B0280936A0208956F92E3
:1040A0007F928F929F92AF92BF92CF92DF92EF92C8
:1040B000FF920F931F93CF93DF9300D000D01F92F6
:1040C000CDB7DEB78091A902982F917080FF08C00C
:1040D00080906802909069028114910469F424C070
:1040E000E6E7F2E029EA32E011821082128233968A
:1040F0002E173F07C9F7ECCF9923B1F0A12CB12CB3
:1041000066246394712C20917202C3010A2C01C0B1
:10411000880F0A94EAF7822309F444C0F401C59099
:10412000D490C114D10469F4539A8BB1877F9BB1A9
:1041300098602FB7F894E6E7F2E040C035E0C30E90
:10414000D11C45E050E0B601CE0101960E94522BF1
:1041500009810F3F39F110E08A819801280F311D44
:10416000C9012231310514F081E190E07C01EE0CAF
:10417000FF1C8E0D9F1D9C012A583D4F7901C801DF
:10418000880F991F080F191F0A581D4F0E151F057C
:10419000A8F698014D816C818B810E943B230D5FB5
:1041A0001F4FF4CF82E0880E911C9FEFA91AB90A25
:1041B00028E0A216B10409F0A6CFB6CF32E0E93A62
:1041C000F30789F0319148E09BB9000000C037FF48
:1041D0008BB9330F000000C000C000C08BB900C015
:1041E0004A9591F7EBCF2FBF8FE594E00197F1F758
:1041F00000C000000F900F900F900F900F90DF9174
:10420000CF911F910F91FF90EF90DF90CF90BF90D3
:10421000AF909F908F907F906F900895EF92FF9254
:104220000F931F93CF93DF938C01C6E7D2E0E12C6D
:10423000F12CF8018481F8E0EF16F1041CF48823D6
:1042400039F002C0811104C09E014091AC0202C04D
:104250009E0140E06091AB028091AA020E943B2344
:104260008FEFE81AF80A239691E1E916F10409F7AD
:104270000E944F20F801848190E001968170992777
:104280008483DF91CF911F910F91FF90EF9008955C
:104290008F929F92AF92BF92CF92DF92EF92FF9256
:1042A0000F931F93CF93DF93EC014C81042F10E009
:1042B0009801D8010E94102C9B01AC010E94262C71
:1042C0006B017C01E0E2F0E0E01BF10BA5E5B0E062
:1042D0009B01AC010E94262C4B015C019F01DF0178
:1042E0000E94082C9B01AC010E94312C9B01AC0167
:1042F0002C0D3D1D4E1D5F1DC501B4010E94D92B23
:10430000822FF22E99E2921728F093E0299F9001D4
:1043100011240DC025E530E0281B3109C901880FA3
:10432000991F280F391F37FF02C02F5F3F4F359568
:104330002795122F109596E7C92E92E0D92E00E00E
:1043400085E5E82EEF1801FD02C08E2D01C08F2DEE
:104350009601412F6091AB020E943B230F5F83E0E7
:10436000C80ED11C013179F70E944F208C81811138
:1043700002C091E003C0803219F49FEF90931801BE
:1043800090911801890F8C83DF91CF911F910F912C
:10439000FF90EF90DF90CF90BF90AF909F908F9065
:1043A00008950F931F93CF93DF93C6E7D2E0FE01EA
:1043B000118210821282339682E0E93AF807C1F73F
:1043C00000E010E080917402082E000C990B081791
:1043D000190794F080911701082E000C990B801793
:1043E000910754F09E014091AC026091AB02809124
:1043F000AA020E943B2303C0198218821A820F5F0F
:104400001F4F239601311105E9F60E944F2080913C
:10441000160190917402980F9093740220911701E5
:10442000280F20931701121614F490311CF0819577
:1044300080931601DF91CF911F910F910895BF9244
:10444000CF92DF92EF92FF920F931F93CF93DF9360
:10445000FC01828180FF03C0DD24DA9402C0DD24E8
:10446000D39406E712E0C0E0D0E021E1B22EF801DB
:1044700011821082128294E0E92EF12CC12C8091DD
:1044800073028C0D82312CF06B2D0E94A32B892F8F
:1044900002C087FD8F5E082E000C990BC817D90744
:1044A00091F48091AC028E9DA0018F9D500D11243E
:1044B000559547955595479598016091AB02809128
:1044C000AA020E943B23CD0CF1E0EF1AF108B9F6E5
:1044D00021960D5F1F4FC131D10549F60E944F2033
:1044E0008091730291E0D91206C0811102C080E16F
:1044F00007C0815005C090E00196BE010E94C52B07
:1045000080937302DF91CF911F910F91FF90EF90F5
:10451000DF90CF90BF900895EF92FF921F93CF93BB
:10452000DF93EC0186E7E82E82E0F82E10E08C8124
:1045300097014091AC026091AB02810F0E943B2336
:10454000115F83E0E80EF11C1F3F89F70E944F20A6
:104550009A818C8190FF02C08F5F01C081508C8353
:10456000DF91CF911F91FF90EF90089521E030E00F
:10457000A90102C0440F551F8A95E2F7CA01209194
:104580007202662311F0822B02C0809582238093F1
:10459000720280917102811106C08091A90260E0CF
:1045A00086950C94AE2408959091A90290FF0CC0BA
:1045B000E6E7F2E0818360834283339692E0E93A52
:1045C000F907C1F70C944F2008958091A902282F74
:1045D000269530E02115310519F48170826005C0FF
:1045E0002532310524F0817088648093A9020895F2
:1045F000CF92DF92EF92FF926B017C010E94E52245
:10460000B701A60188E090E0FF90EF90DF90CF9097
:104610000C94812B8091AD02882319F081508093F6
:10462000AD026091A9027091AA028091AB029091B3
:10463000AC020C94F8228091AD02833018F48F5FA5
:104640008093AD026091A9027091AA028091AB02A1
:104650009091AC020C94F822E9EAF2E083E08083C6
:1046600011828FEF828383831482608171818281C2
:1046700093810C94F822AF92BF92CF92DF92EF9287
:10468000FF920F931F93CF93DF93E82EF62EE9014D
:10469000E42FF0E0611106C0EC5FF94FE4914E2F7A
:1046A0002E2F71C0062F10E0EC5FF94F4491F42FCC
:1046B000C42ED12C26E0829FC00111242FEF30E0C0
:1046C000B9010E94B12B5BEA5603C001579F900DC0
:1046D00011248E0D911D8E0D911D582F550F580FC1
:1046E000D901A01BB10BAC9DC001AD9D900DBC9D2F
:1046F000900D1124E92FF59ED0011124AB2FBB277B
:104700007901EA1AFB0AEC9CD001ED9CB00DFC9CEF
:10471000B00D11245901A51AB108A09E7001A19EE7
:10472000F00CB09EF00C1124EF2CFF242E193F0941
:104730002C9D80012D9D100D3C9D100D1124212FCD
:104740006230710591F048F461157105E1F0613056
:104750007105B9F4242F4B2F16C06430710569F030
:1047600040F06630710579F00CC0242F492FE12FFD
:104770000AC0492FEF2F2B2F06C0292FE42F412FDE
:1047800002C0292FEB2F49832883EA83DF91CF9141
:104790001F910F91FF90EF90DF90CF90BF90AF905F
:1047A00008955F926F927F928F929F92AF92BF9285
:1047B000CF92DF92EF92FF920F931F93CF93DF93ED
:1047C00000D01F92CDB7DEB7182F762E042F622EA1
:1047D0009091A90290FF6DC0E92FE695AE2FB0E051
:1047E000A457BE4F8C91809370029E7F923061F4EB
:1047F0009E012F5F3F4F812F0E943B234B81698198
:104800008A810E94D42243C0823019F40091AC0204
:104810003EC0863019F41091AA0239C08930D9F30C
:104820008931A9F5E9518E2F8170582EE695F0E077
:10483000EC5FF84FA590B49086E7C82E82E0D82EA2
:10484000E12CF12CBB2491E1892E912CAE9CC0016E
:10485000AF9C900DBE9C900D1124B4010E94B12B11
:10486000812F511002C0860F01C0861B9601402F78
:10487000672D0E943B238FEFE81AF80A83E0C80EE9
:10488000D11C81E1E816F10409F70E944F20109332
:10489000AA027092AB020093AC02662051F06091C4
:1048A000A9027091AA028091AB029091AC020E9481
:1048B000F8220F900F900F90DF91CF911F910F91E1
:1048C000FF90EF90DF90CF90BF90AF909F908F9030
:1048D0007F906F905F900895E9EAF2E0438128E0CD
:1048E000421B08F440E021E0628181810C94D123D5
:1048F000E9EAF2E0438128E0420F08F44FEF21E0BB
:10490000628181810C94D123E9EAF2E0628128E09E
:10491000621B08F460E021E0438181810C94D12383
:10492000E9EAF2E0628128E0620F08F46FEF21E02B
:10493000438181810C94D123E9EAF2E0818121E075
:104940004381628188500C94D123E9EAF2E08181AD
:1049500021E043816281885F0C94D1239091A90268
:1049600090FF36C09170811102C0926006C08532FE
:1049700010F0986402C0880F982B9093A9026623C8
:1049800051F06091A9027091AA028091AB029091BE
:10499000AC020E94F8226091A902669570E04BE09B
:1049A00050E08BE091E00E94452C892B19F0109289
:1049B000710202C00E94392081E080936D0220E0E4
:1049C0004091AC026091AB028091AA020C94D12379
:1049D00008958091A9028695815009F484E261E0EE
:1049E0000C94AE248091A90286958F5F853208F0E1
:1049F00081E061E00C94AE24CF93DF9300D01F924E
:104A0000CDB7DEB79091A90290FF0AC09E012F5F3B
:104A10003F4F0E943B234B8169818A810E94D422AF
:104A20000F900F900F90DF91CF9108950E94D717AC
:104A30002091C602211104C02091C702222321F037
:104A40009093C3028093C2022091C802211104C036
:104A50002091C902222321F09093C1028093C002C9
:104A6000E091B802F091B902309749F082E080936A
:104A7000C4020480F581E02D84EC92E0099408954D
:104A8000803F39F49091C70297FF35C01092C7025A
:104A900059C0813F29F49091C7021916BCF32BC06D
:104AA0009091C602823F29F497FF25C01092C6025A
:104AB00049C0833F19F41916CCF31DC09091C80268
:104AC000893F29F41916BCF41092C8023BC08A3FF2
:104AD00019F497FF10C0F8CF8B3F39F49091C902B9
:104AE00097FF09C01092C9022DC08C3F21F490910C
:104AF000C9021916BCF39CE0980F953080F421E0B0
:104B000030E0A90102C0440F551F9A95E2F7CA018F
:104B100080959091C50289238093C50213C08D3F73
:104B200021F48091BF028E7F0BC08E3F21F48091D3
:104B3000BF028D7F05C08F3F29F48091BF028B7F1C
:104B40008093BF028091C602811106C08091C70286
:104B5000811102C01092BE028091C802811106C06C
:104B60008091C902811102C01092BD020895809106
:104B7000BF0280FD16C081FD16C082FD18C0809165
:104B8000BD02882391F0883290F428E0829FC00112
:104B9000112468E270E00E94C52B862F672B29F054
:104BA00007C082E0089584E0089581E0089588E0D8
:104BB00008958091BF0280FD14C081FD14C082FD64
:104BC00016C08091BE02882381F0843180F422E3F4
:104BD000829FC001112464E170E00E94C52B862FE2
:104BE00008958CE0089589E1089585E0089582E3B1
:104BF0000895803F21F40E94D925819504C0813F0A
:104C000029F40E94D9258093C7020895823F21F498
:104C10000E94D925819504C0833F29F40E94D9259B
:104C20008093C6020895893F19F40E94B72505C0F4
:104C30008A3F31F40E94B72581958093C802089578
:104C40008B3F21F40E94B725819504C08C3F29F445
:104C50000E94B7258093C90208959CE0980F953073
:104C600078F421E030E0A90102C0440F551F9A9565
:104C7000E2F7CA019091C502892B8093C50208957D
:104C80008D3F21F48091BF0281600BC08E3F21F4E3
:104C90008091BF02826005C08F3F29F48091BF02DE
:104CA00084608093BF0208959C013A9521153F418D
:104CB00030F5BC0166277270AC01442754709C012A
:104CC0002227387094FF0FC090FF02C080E101C01E
:104CD00080E0672B09F08062452B09F08064232B6C
:104CE00079F080680895892F8170672B09F08260C0
:104CF000452B09F08460232B19F08860089580E02B
:104D000008951F93CF93DF93CDB7DEB767970FB6A4
:104D1000F894DEBF0FBECDBF4B8B5C8B6D8B7E8B53
:104D20008F8B61111092B10286E09E01235F3F4F8D
:104D3000D901E82F1D92EA95E9F795E0FE017396F7
:104D4000D90101900D929A95E1F79C894E895F896E
:104D50007B897D879E876F87598B488BF901DE01A0
:104D6000179601900D928A95E1F7CE0107960E9461
:104D70006E1B81113EC086E0FE013796DE01119662
:104D800001900D928A95E1F7FF81E8856A857B8520
:104D90006115710531F0EF3F31F481E0FF3F19F407
:104DA00003C081E001C080E080FD23C0209131027A
:104DB00030E0C9010196877099274091620250E066
:104DC0008417950779F1F983EA837D836C8396E0F4
:104DD000929FD001939FB00D1124AE5CBD4FFE0198
:104DE000319601900D929A95E1F7809331020E94DD
:104DF000BC1A16E080916202909131028917F9F095
:104E0000189FC00111248E5C9D4F0E946E1B882349
:104E1000B1F08091620290E00196877099278093AB
:104E20006202E8CF0E94F8291092310210926202C9
:104E3000EBE2F2E086E0DF011D928A95E9F76796E2
:104E40000FB6F894DEBF0FBECDBFDF91CF911F919B
:104E500008950E94971E682F617080E00E94B6221C
:104E60000E94971E81FB662760F981E00E94B622AE
:104E70000E94971E82FB662760F982E00C94B6229E
:104E8000AF92BF92CF92DF92EF92FF920F931F9358
:104E9000CF93DF93EC018AE0A82E2881222309F426
:104EA00097C0213009F041C08981813039F48E01E9
:104EB0000E5F1F4F8A810E94342B08C0823041F45C
:104EC0008E010E5F1F4F8A810E94902AE8017EC0EA
:104ED000833039F48E010E5F1F4F8A810E94292A88
:104EE000F5CF843011F0219671C02A81229680E09E
:104EF00090E030E0205331092A30310558F4A89E63
:104F0000A001A99E500D1124C901840F951F21965F
:104F10002881EFCF009709F459C0EFE9FFE03197FE
:104F2000F1F700C000000197F5CFE22FF0E0E75C59
:104F3000F84FB490822F86958695869590E0FC0177
:104F4000E75DF84FE4902770F12C022E02C0F59433
:104F5000E7940A94E2F7F1E0EF22FF24FC01E75E18
:104F6000F84FC490D12C022E02C0D594C7940A9455
:104F7000E2F731E0C322DD24FC01E75FF84F049142
:104F800010E002C0159507952A95E2F701701127E8
:104F9000E114F10419F081EE0E94902AC114D104A9
:104FA00019F086EE0E94902A8B2D0E94342BCD287A
:104FB00019F086EE0E94292AEF2819F081EE0E944E
:104FC000292A012B19F08CE20E94342B219665CFFF
:104FD000DF91CF911F910F91FF90EF90DF90CF90D5
:104FE000BF90AF9008950F931F93CF93DF9390E0FE
:104FF000FC01EE0FFF1FE80FF91FE60FF11DEE0F8A
:10500000FF1FEF54FE4FC081D1818D2F9C2F0E9436
:10501000321B6D2F7C2F0E94CE1FEC018C01005E95
:1050200011090830110510F0009729F40E94542648
:105030000E941F2A04C00E9454260E940A2A8FE35D
:105040009CE90197F1F700C000008C2F0E94902A84
:105050008C2F0E94292ACE010830110510F0CD2B8B
:1050600029F40E9454260E94142A04C00E94542647
:105070000E94032A80E0DF91CF911F910F91089544
:105080002F923F924F925F926F927F928F929F9258
:10509000AF92BF92CF92DF92EF92FF920F931F9346
:1050A000CF93DF9300D000D0CDB7DEB730EDA32E85
:1050B00031E0B32EA8ECB1E06CE171E0198241E07F
:1050C00050E04D016D907C901197FB018191BF01E3
:1050D000E82FE295EF702E2E312CF10191A18F7007
:1050E0006A0101C0CC0C8A95EAF7892F8C2981A32B
:1050F00082A15C2C5094852182A3F0EAFA95F1F705
:1051000000E211E080E090E0F801F1908F012F2D96
:1051100022952F7030E0F90120A130E0FF2DFF70C3
:1051200002C035952795FA95E2F7ED90FC9011971E
:1051300020FF0CC09A01082E02C0220F331F0A94D0
:10514000E2F7209530952E213F2109C09A01082EC3
:1051500002C0220F331F0A94E2F72E293F2911962D
:105160003C932E9301968730910571F6F10121A1B0
:10517000522251A222A1C22AC2A2129621E0F40117
:10518000008111810615170509F420E0F981F22B41
:10519000F983AA16BB0609F094CF67E271E001E03B
:1051A00010E0DB012D91BD01E22FE295EF70F0E000
:1051B00031A12F70480101C0880C2A95EAF7232FEE
:1051C000282921A322A1382C3094232122A3B0EA3C
:1051D000BA95F1F77801082E02C0EE0CFF1C0A9474
:1051E000E2F727014094509428EC31E03C832B8374
:1051F0002CE1C22E21E0D22E212C6B807C80D301A9
:105200002D913C91D6014D916D014A8342954F708D
:1052100050E0DA0190964C9150E0BA81BF7002C024
:1052200055954795BA95E2F740FD05C0A9014E296D
:105230005F29D30105C0A90144215521AB81BC815F
:105240004D935C934B815C814E5F5F4F5C834B83DE
:10525000D3014D915C912417350711F0222423943A
:105260002B813C81A216B30641F621A1322231A244
:1052700022A1822A82A239813229398301968E3075
:10528000910509F08ECF332349F081E08093CC0261
:105290000E94D7179093CB028093CA028091CC02D0
:1052A000882351F18091CA029091CB020E94BC17D1
:1052B000059710F18091C8019091C9019093E70181
:1052C0008093E6018091CA019091CB019093E9010E
:1052D0008093E8018091CC019091CD019093EB01F6
:1052E0008093EA018091CE019091CF019093ED01DE
:1052F0008093EC011092CC0280911B0182FF17C0B9
:105300000E94D7172091B4023091B502AC01421B24
:10531000530B2091190130911A014217530738F0AD
:10532000BC018091B2029091B3020E94A31E8981B8
:105330000F900F900F900F90DF91CF911F910F91D1
:10534000FF90EF90DF90CF90BF90AF909F908F90A5
:105350007F906F905F904F903F902F900895FC0149
:10536000808191810E94611B292F2F70E92FE29586
:10537000EF704E2F50E0FA013297EE30F105B8F49D
:10538000E158FF4F0C94FB2B803F99F018F4883EB6
:1053900070F40FC0843F59F40CC0883E50F0813F38
:1053A00031F407C0822F869586958695089580E012
:1053B000089581E0089580E090E00E94811E80E0E1
:1053C00090E00E946B1E1092B102109264020E9443
:1053D000751AE4ECF2E086E0DF011D928A95E9F7A8
:1053E0001092BE021092BD021092BF020C941625BC
:1053F0001092650286E0E0E1F2E0DF011D928A95FD
:10540000E9F70C94DB29882321F00E946E1A0C9492
:10541000751A0895882339F09091B102892B8093F1
:10542000B1020C94751A0895882341F080959091EB
:1054300065028923809365020C94751A0895882368
:1054400039F090916502892B809365020C94751A4E
:105450000895882309F463C0823869F40E94971E76
:1054600081FF5DC069E38EE092E00E94511E0E94C0
:10547000751A69E30EC0833891F40E94971E80FF6D
:105480004EC063E58EE092E00E94511E0E94751AA4
:1054900063E58EE092E00E94441E0C94751A8438F5
:1054A00069F40E94971E82FF3AC067E48EE092E0A2
:1054B0000E94511E0E94751A67E4EBCF9CEF980F73
:1054C000913A10F4682FE5CF90E2980F983088F465
:1054D000877021E030E0A90102C0440F551F8A9572
:1054E000E2F7CA0180959091650289238093650255
:1054F000D4CF9BE5980F933020F480E090E00C949B
:10550000811E98E5980F973120F480E090E00C948C
:105510006B1E803F20F00E9440250C9416250895B4
:10552000CF93882309F49EC0C82F8238B1F40E941B
:10553000971E81FD97C069E38EE092E00E94511EA4
:105540000E94751A2FEF81EE94E021508040904028
:10555000E1F700C0000069E317C08338E1F40E945E
:10556000971E80FD7FC063E58EE092E00E94511E91
:105570000E94751A2FEF81EE94E0215080409040F8
:10558000E1F700C0000063E58EE092E00E94441E57
:10559000CF910C94751A8438B1F40E94971E82FD45
:1055A00061C067E48EE092E00E94511E0E94751A6D
:1055B0002FEF81EE94E0215080409040E1F700C051
:1055C000000067E4E1CF8CEF8C0F813A80F4E0E1DA
:1055D000F2E086E192E02191C217E1F18E179F0778
:1055E000D1F76C2F8EE092E00E94511ED1CF80E265
:1055F0008C0F883068F4C77081E090E001C0880F9C
:10560000CA95EAF790916502892B80936502C0CF15
:10561000EBE5EC0FE33040F4F0E0E55AFE4F80811B
:1056200090E0CF910C94811EE8E5EC0FE73150F447
:10563000F0E0EE0FFF1FE25AFE4F80819181CF9183
:105640000C946B1EC03F70F08C2F0E94F925CF91F7
:105650000C9416256C2F8EE092E00E94441E0E944E
:10566000751ABFCFCF9108951F93CF93DF93182F53
:10567000893319F0C0E0D0E002C0C0E5D0E0812F4E
:105680000E94902A209741F08FE99FE00197F1F75F
:1056900000C000002197F6CF812FDF91CF911F919D
:1056A0000C94292AFB01DC0102C005900D924150A7
:1056B0005040D8F70895F999FECF92BD81BDF89A70
:1056C000992780B50895A6E1B0E044E050E00C943D
:1056D000952BA8E1B0E042E050E00C94952B262FEA
:1056E000F999FECF92BD81BDF89A019700B40216D8
:1056F00039F01FBA20BD0FB6F894FA9AF99A0FBE86
:1057000008950396272F0E94702B0E946F2B252F40
:105710000E94702B242F0C94702B0196272F0E942F
:10572000702B0C946F2BDC01CB01FC01F999FECF9F
:1057300006C0F2BDE1BDF89A319600B40D92415019
:105740005040B8F7089587FB082E062687FD8195FF
:1057500067FD61950E94392C0EF4919507FC8195A7
:105760000895AA1BBB1B51E107C0AA1FBB1FA617A8
:10577000B70710F0A61BB70B881F991F5A95A9F7FA
:1057800080959095BC01CD01089597FB072E16F4E6
:10579000009407D077FD09D00E94B12B07FC05D0FB
:1057A0003EF4909581959F4F0895709561957F4F38
:1057B0000895A1E21A2EAA1BBB1BFD010DC0AA1F52
:1057C000BB1FEE1FFF1FA217B307E407F50720F06A
:1057D000A21BB30BE40BF50B661F771F881F991FE5
:1057E0001A9469F760957095809590959B01AC012E
:1057F000BD01CF010895EE0FFF1F0590F491E02D3C
:105800000994692796276927782787277827089595
:105810000E94102C332312F48A1B9B0B0C94212C16
:10582000A29FB001B39FC001A39F700D811D1124E1
:10583000911DB29F700D811D1124911D08950E942C
:10584000102CB7FF0895821B930B08950E94102C13
:10585000A59F900DB49F900DA49F800D911D1124C4
:105860000895B7FF0C94262C0E94262C821B930BC4
:105870000895991B79E004C0991F961708F0961BAC
:10588000881F7A95C9F780950895FC0141505040D2
:1058900030F001900616D1F73197CF01089588278F
:1058A00099270895AEE0B0E0E8E5FCE20C94212FE2
:1058B0000D891E898F89988D26E02C831A83098390
:1058C00097FF02C080E090E801979E838D83AE0130
:1058D000455E5F4F698D7A8DCE0101960E94822CC4
:1058E0004D815E8157FD0AC02F81388542175307CD
:1058F0000CF49A01F801E20FF31F10822E96E4E0F7
:105900000C943D2FABE0B0E0E8E8FCE20C94132FE0
:105910006C017B018A01FC0117821682838181FF61
:10592000CCC1CE0101963C01F6019381F70193FDB4
:10593000859193FF81917F01882309F4BAC1853253
:1059400039F493FD859193FF81917F01853229F48C
:10595000B60190E00E94792EE7CF912C212C312CBA
:10596000FFE1F315D8F08B3279F038F4803279F01A
:105970008332A1F4232D20611DC08D3261F080336C
:1059800069F4232D216016C0832D8260382EE32D0B
:10599000E4603E2E2AC0F32DF8601DC037FC2DC0F8
:1059A00020ED280F2A3040F08E32B9F436FC81C148
:1059B000232D2064322E19C036FE06C08AE0989E40
:1059C000200D1124922E11C0EAE02E9E200D1124EC
:1059D000222EF32DF0623F2E08C08C3621F4832D49
:1059E0008068382E02C0883641F4F70193FD859116
:1059F00093FF81917F018111B3CF982F9F7D9554A3
:105A0000933028F40C5F1F4F9FE399830DC08336BA
:105A100031F0833771F0833509F059C021C0F801A6
:105A2000808189830E5F1F4F88248394912C5301BA
:105A300013C02801F2E04F0E511CF801A080B18084
:105A400036FE03C0692D70E002C06FEF7FEFC50125
:105A50000E946E2E4C018201F32DFF773F2E16C05F
:105A6000280122E0420E511CF801A080B18036FED0
:105A700003C0692D70E002C06FEF7FEFC5010E9487
:105A8000632E4C01F32DF0683F2E820133FC1BC0C6
:105A9000822D90E088169906B0F4B60180E290E07D
:105AA0000E94792E2A94F4CFF50137FC859137FEB8
:105AB00081915F01B60190E00E94792E21102A9415
:105AC00021E0821A91088114910471F7E8C08436AC
:105AD00011F0893641F5F80137FE07C06081718108
